:100000000C94B7040C94D4040C9405070C94D404F9
:100010000C94D4040C94D4040C94D4040C94D40400
:100020000C94D4040C94D4040C94D4040C94D404F0
:100030000C94D4040C94D4040C94D4040C94D404E0
:100040000C94D4040C94D4040C94D4040C94D404D0
:100050000C94D4040C94D4040C94D4040C94D404C0
:100060000C94D4040C94D4040C94D4040C94D404B0
:100070000C94D4040C94D4040C94D4040C94D404A0
:100080000C94D4040C94D4040C94DA220C94D4046C
:100090000C94D4040C94D4040C94D4040C94D40480
:1000A0000C94D4040C94D4040C94D4040C94D40470
:1000B0000C94D4040C94D4040C94D4040C94D40460
:1000C0000C94D4040C94D4040C94D4040C94D40450
:1000D0000C94D4040C94D4040C94D4040C94D40440
:1000E0000C94D4040C94D4040C94D4040C94D40430
:1000F0000C94D4040C94D4040C94D4040C94D40420
:100100000C94D4040C94D4040C94130D0C94D404C7
:100110000C94D4040C94D4040C94D4040C94D404FF
:100120000C94D4040C94D4040C94D4040C94D404EF
:100130000C94D4040C94D4040C94D4040C94D404DF
:100140000C94D4040C94D4040C94D4040C94D404CF
:100150000C94D4040C94D4040C94D4040C94D404BF
:100160000C94D4040C94D4040C94D404646174618D
:100170003A20257300570041434B000D0A4E6F741F
:1001800020466F756E640D0A000D0A0D0A00256485
:10019000200046724C73743A004E6D3A25730D0A76
:1001A0004F6666733A25640D0A4E4F46723A2564CF
:1001B0000D0A000D0A0025642C2000426C6F636B51
:1001C000733A0D0A00256409257309092564090994
:1001D0002564090925640D0A000D0A23094E616D85
:1001E00065090909426C6F636B204E756D09447592
:1001F000726174696F6E0952657365727665640D1C
:100200000A000D0A4672616D652023256420426C48
:100210006F636B202325643A0D0A0048616C6C20E3
:1002200053656E736F720D0A00726563656976655A
:1002300064204E41434B0D0A00736C617665206467
:100240006F6573206E6F7420726573706F6E640DCE
:100250000A006E6F20736C61766520646574656357
:100260007465640D0A007472616E73616374696F02
:100270006E207375636365737366756C20284143E4
:100280004B6564290D0A0075736167653A207772C2
:100290006974655F63616C207265643136206772D2
:1002A00065656E313620626C756531360D0A005217
:1002B00065643A2025753B2020477265656E3A20BB
:1002C00025753B2020426C75653A2025753B200D35
:1002D0000A00426C7565746F6F746820696E666F92
:1002E0003A0D0A20205374617475733A2025640D09
:1002F0000A202056657273696F6E3A2025730D0AC5
:1003000020204E616D65206368616E67653A202527
:10031000640D0A0045786974696E67204154206D48
:100320006F64652E2E2E20436F6E6669677572614D
:1003300074696F6E20636F6D706C6574652E0D0A45
:100340000041542B4E414D453D414E4942494B459C
:100350005F3256375F42540D0A0041542B564552C6
:1003600053494F4E3F0D0A0041540D0A00456E742B
:10037000657272696E67204154206D6F64652E2E20
:100380002E0D0A0025733A2025730D0A007573613E
:1003900067653A2025732025730D0A007573616720
:1003A000653A2068656C70205B636D645D0D0A00C2
:1003B0004E756D626572206F66206572726F727322
:1003C0003A20256C750D0A00256C75200052656178
:1003D00064696E67207468652074657374696E67FC
:1003E0002073657175656E63652E2E0D0A00256C90
:1003F00075200057726974696E672074657374693B
:100400006E672073657175656E63652E2E2E0D0AFD
:1004100000556E70726F74656374696E6720656EE7
:100420007469726520666C6173682E2E2E0D0A0049
:1004300044656C6574696E6720616C6C20696E66DA
:100440006F726D6174696F6E2066726F6D20666C7D
:100450006173682E2E2E0D0A0075736167653A2050
:10046000746573745F6C6564205B726F77235D20C5
:100470005B5247425D205B76616C5D0A0046494EE7
:1004800049534845442E46494E49534845442E4613
:10049000494E49534845442E0D0A00454D50545984
:1004A0002E454D5054592E454D5054592E0D0A008D
:1004B0000D0A233720736563746F722070726F7436
:1004C000656374696F6E20726567697374657273B2
:1004D00020554E4C4F434B4544202830290D0A0DE2
:1004E0000A000D0A233720736563746F72207072DF
:1004F0006F74656374696F6E207265676973746584
:100500007273204C4F434B4544202831290D0A0D6E
:100510000A000D0A23352070726F6772616D202802
:1005200065726173652920776173207375636365F4
:10053000737366756C6C20283029000D0A233520F2
:100540006661696C65642070726F6772616D2028E6
:1005500065726173652920283129000D0A23342032
:1005600077726974652070726F7465637465642056
:10057000283029000D0A2334204E4F542077726909
:1005800074652070726F7465637465642028312906
:10059000000D0A2332332070726F74656374696FC3
:1005A0006E20756E6B6E6F776E202831302072650D
:1005B00073657276656429000D0A233233204E4F2D
:1005C000542077726974652070726F746563746506
:1005D000642028303029000D0A2331204E4F54204A
:1005E000777269746520656E61626C65642028307D
:1005F00029000D0A233120777269746520656E61C8
:10060000626C656420283129000D0A233020726550
:1006100061647920283029000D0A2330204E4F5480
:1006200020726561647920283129004F4B0D0A0042
:1006300075736167653A2065726173655F666C61A9
:100640007368205B3C626C6F636B206E756D6265D6
:10065000723E206F72203C414C4C3E5D0D0A004FB3
:100660004B0D0A0075736167653A2070726F745F95
:10067000666C617368205B3C626C6F636B206E75A7
:100680006D6265723E206F72203C414C4C3E5D0DA8
:100690000A004F4B0D0A0075736167653A20756E4D
:1006A00070726F745F666C617368205B3C626C6F24
:1006B000636B206E756D6265723E206F72203C41E7
:1006C0004C4C3E5D0D0A000D0A5265636965766506
:1006D0006420307825780D0A000D0A53656E646930
:1006E0006E6720307825780075736167653A2073EE
:1006F00070695F7472616E73205B627974655D0D01
:100700000A004F4B0D0A004F4B0D0A0075736167CD
:10071000653A20726561645F626C6F636B205B7326
:10072000746172745F626C6F636B5D0D0A00666169
:10073000696C0D0A006F6B6F6B0D0A004F4B0D0A51
:100740000075736167653A2077726974655F626CE2
:100750006F636B205B73746172745F626C6F636B49
:100760005D205B7175616E745D205B6C656E677496
:10077000685D0D0A0077726974696E673A20256CAE
:100780007520746F20256C753B0D0A0075736167C9
:10079000653A207772697465205B33326269742030
:1007A00073746172745F616464726573735D205BFE
:1007B00038626974206C656E6774685D0D0A00416B
:1007C000256C753A202020307825780D0A00726556
:1007D0006164696E673A20256C7520746F20256C02
:1007E000753B0D0A0075736167653A207265616437
:1007F000205B73746172745F616464726573735DAE
:10080000205B6C656E6774685D0D0A00434F4C4F4A
:10081000525F44455054483A253033643B46494C76
:100820004523424C4B533A253032643B464E5F4C95
:10083000454E3A253033643B4D41585F4652414D59
:1008400045533A253033643B656F6C0D0A004D61AA
:100850006E4944203D20307825783B204465764918
:100860004431203D20307825783B2044657649444A
:1008700032203D20307825783B20457844617461F2
:10088000203D2030782578656F6C0D0A000D0A46F2
:100890006C617368496E666F3A0D0A00414E4942B9
:1008A000494B452056455253494F4E3A2530336403
:1008B0002E25643B4D454D5F53495A453A25303509
:1008C00064204D424954533B434C4F434B3A2530EF
:1008D0003364204D485A3B234C4544533A2530332A
:1008E000643B5247423A25643B4D454D424C4B3A9E
:1008F00025303264204B420D0A0025733A20436FA5
:100900006D6D616E64206E6F74207265636F676ECB
:10091000697A65642E0D0A004F4B0D0A004F4B0D8E
:100920000A004F4B0D0A004F4B0D0A00414E494241
:10093000494B455F3256374254203E3E20000D0A57
:1009400000476F6F646279652E2E2E0D0A000D0A26
:1009500000414E4942494B4520494E432E205645C1
:10096000522E20322E372042542E0D0A0000112420
:100970001FBECFEFDFE2DEBFCDBF12E2A0E0B0E2EC
:10098000EEE5FFE402C005900D92A032B107D9F761
:1009900013E2A0E2B2E201C01D92AB32B107E1F76F
:1009A0000E94C30E0C94AD270C940000803279F1A4
:1009B000909150009160909350009091510090FF61
:1009C000FCCF8230D1F0682F6695669580E00E945A
:1009D0000B1B8091500080618093500080E060E0AC
:1009E0000E941B1B8091510084FFFCCF84E00E9479
:1009F000331B82E00E94111B089580E00E94331B8C
:100A000080E10E94111B82E00E94111B08958091D9
:100A1000500082608093500080E060E00E941B1BC9
:100A20008091510081FFFCCF81E00E94331B80E167
:100A30000E94111B81E00E94111B08958F92AF92BA
:100A4000CF92EF920F93882361F180E20E9465209C
:100A5000E0E4F6E080E2828380E88183858380E4BD
:100A600096E060E840E020E000E3EE240E944320AE
:100A700080E496E060E240E020E00E94432080E4D1
:100A800096E063E040E20E9435208091A2008760FA
:100A9000E0EAF0E082830F91EF90CF90AF908F90DB
:100AA000089580E496E060E840E020E000E353E051
:100AB000E52E0E94432080E496E060E240E020E0E2
:100AC00037E0E32E0E94432087E992E260EC78E071
:100AD00040E456E020E004E0EE24CC24AA2488245C
:100AE0000E947A2087E992E260E00E94BA20E0E466
:100AF000F6E080E2818390E8928385830F91EF9006
:100B0000CF90AF908F900895EF920F931F93CF9354
:100B1000DF93EC01162F8091480687FD07C081E026
:100B2000DF91CF911F910F91EF90089580E2E0E463
:100B3000F6E086838FE703C0815009F465C0E0E4E6
:100B4000F6E09091480697FDF7CF80EA818380E434
:100B500096E060EA40E020E000E077E0E72E0E94C7
:100B6000432087E992E261E00E94BA2087E992E29D
:100B7000612F0E948221E0919722F091982260E0FB
:100B800099919383828187FFFDCF690F1150C1F73F
:100B900087E992E20E94822187E992E260E00E9466
:100BA000BA2080E496E060E840E020E000E3F3E073
:100BB000EF2E0E94432080E496E060E240E020E0D7
:100BC000E7E0EE2E0E94432087E992E260E00E9477
:100BD000BA20E0E4F6E080E2818390E892838683A5
:100BE0008FE702C08150A1F0E0E4F6E09091480662
:100BF00097FFF8CF8091480687FD02C080E090CF34
:100C000080E2858380E08CCF80E2858382E088CF9C
:100C100080E2858383E084CF3F933FB73F9388276B
:100C20003FEF88943A95B79BE9F7B5990894881FE8
:100C300038E03A95B79BE9F7B5990894881F38E0F2
:100C40003A95B79BE9F7B5990894881F38E03A952B
:100C5000B79BE9F7B5990894881F38E03A95B79B98
:100C6000E9F7B5990894881F38E03A95B79BE9F7FA
:100C7000B5990894881F38E03A95B79BE9F7B5997C
:100C80000894881F38E03A95B79BE9F7B59908941E
:100C9000881F3F913FBF3F910895DF92EF92FF92EF
:100CA0000F931F93CF93DF93C0E4D6E0A0E8FA2E12
:100CB000FE82FA8280E496E060E840E020E000E016
:100CC000EE240E94432080E496E060E240E020E0D1
:100CD0000E9443200E940C06182F1F7709F483C03E
:100CE000F12EFA94C0E0D0E00E940C06FE01E2561C
:100CF000FD4D808321961C17B9F70E940C06D82E53
:100D000080E496E060E840E020E000E3EE240E940A
:100D10004320E0E4F6E080E886838183109320227C
:100D20002F2D30E02F5F3F4F80E090E040E0FC014E
:100D3000E256FD4D5081450F019682179307B9F792
:100D40004D1509F440C08091480685FD0FC0C5E7E8
:100D5000D1E000D0EDB7FEB7C183D2830E94FE245C
:100D6000809148060F900F9085FFF3CF80E8E0E474
:100D7000F6E0858380E496E060E240E020E000E376
:100D8000EE240E944320E0912022F0E0E256FD4D47
:100D9000108200D000D08CE691E0EDB7FEB78183E1
:100DA00092838EE992E2838394830E94FE240F90C3
:100DB0000F900F900F90DF91CF911F910F91FF90A7
:100DC000EF90DF90089580E8E0E4F6E0858300D0BE
:100DD00087E791E0EDB7FEB7818392830E94FE24FE
:100DE0000F900F90E8CF0E940C06D82E80E496E07A
:100DF00060E840E020E000E3EE240E944320FE8211
:100E0000F9821092202240E09BCF1F920F920FB6E2
:100E10000F9211242F933F934F935F936F937F9380
:100E20008F939F93AF93BF93EF93FF938091480667
:100E300085FD06C0F894109220220E944D067894F9
:100E4000FF91EF91BF91AF919F918F917F916F91A2
:100E50005F914F913F912F910F900FBE0F901F9078
:100E60001895CF92DF92FF920F931F93CF93DF934A
:100E70000097D9F08C0110706C01FD2C8EE193E28B
:100E8000602F0E9482218EE193E26D2D0E948221CB
:100E90003F2D20E0022B132BC801DF91CF911F9132
:100EA0000F91FF90DF90CF9008958EE193E260E084
:100EB0000E948221082F10E08EE193E260E00E9400
:100EC0008221F82EE5CF4F925F926F927F929F9290
:100ED000AF92BF92CF92DF92EF92FF920F931F9348
:100EE000CF93DF933C017B01FC01A080B180C280E5
:100EF000D38000E616E020E1922EF80195829682DA
:100F00008EE193E263E00E948221960144275527F7
:100F10008EE193E2622F0E94822155274D2D3C2DB8
:100F20002B2D8EE193E2622F0E9482218EE193E2CB
:100F30006A2D0E9482218EE193E260E00E9482216C
:100F4000D82E8EE193E260E00E948221382F20E0CB
:100F50008D2D90E0822B932BA82E813208F0A9C012
:100F6000F701808311828EE193E260E00E9482218A
:100F7000F70182838EE193E260E00E948221F70113
:100F800083838EE193E260E00E948221F7018483F3
:100F90008EE193E260E00E948221F70185838EE179
:100FA00093E260E00E948221F70186838EE193E262
:100FB00060E00E948221F70187838EE193E260E086
:100FC0000E948221F70180878EE193E260E00E9417
:100FD0008221F70181878EE193E260E00E94822105
:100FE000F70182878EE193E260E00E948221F7019F
:100FF00083878EE193E260E00E948221F70184877B
:101000008EE193E260E00E948221F7018587AA20A9
:10101000E1F08701025F1F4F99248EE193E260E0C7
:101020000E948221D82E8EE193E260E00E9482210C
:1010300080E0EC018D2D90E08C2B9D2BF8018193AD
:1010400091938F0193949A1440F38EE193E260E0C0
:101050000E948221F701E25BFF4F80838EE193E2E1
:1010600060E00E948221F701E15BFF4F808380E115
:10107000E0E6F6E08583F30180819181A281B3816E
:10108000805B9F4FAF4FBF4F80839183A283B38319
:1010900081E0DF91CF911F910F91FF90EF90DF9052
:1010A000CF90BF90AF909F907F906F905F904F9048
:1010B0000895F801958280E0ECCFCF93DF93EC01A7
:1010C00080E090E2BE010E946307882321F081E066
:1010D000DF91CF91089580E090E9AFE3B0E0809395
:1010E000002090930120A0930220B093032080E081
:1010F00090E2BE010E946307882331F01092232200
:1011000081E0DF91CF91089581E08093232280E0F8
:10111000DF91CF910895EF92FF920F931F93CF939A
:10112000DF939C01E0E6F6E0A0E1A58340E050E318
:101130000E949D237B018C01A6838EE193E263E0F4
:101140000E9482219801442755278EE193E2622F65
:101150000E948221EF2CF02E012F11278EE193E2C5
:101160006E2D0E9482218EE193E260E00E94822136
:10117000C0E8D5E28EE193E260E00E9482216091B6
:1011800027237091282390E00E94A624219791F7AD
:1011900080E1E0E6F6E08583DF91CF911F910F912A
:1011A000FF90EF9008954F925F926F927F929F927F
:1011B000AF92BF92CF92DF92EF92FF920F931F9365
:1011C000CF93DF933C017B012A01FC01A080B18019
:1011D000C280D38000E616E070E1972EF801958278
:1011E00096828EE193E263E00E9482219601442779
:1011F00055278EE193E2622F0E94822155274D2DC3
:101200003C2D2B2D8EE193E2622F0E9482218EE1F4
:1012100093E26A2D0E9482218EE193E260E00E94B7
:101220008221A82E8EE193E260E00E948221382F75
:1012300020E08A2D90E0822B932BA82E813208F09B
:10124000C1C0F701808311828EE193E260E00E94C9
:101250008221F70182838EE193E260E00E94822185
:10126000F70183838EE193E260E00E948221F7011F
:1012700084838EE193E260E00E948221F7018583FE
:101280008EE193E260E00E948221F70186838EE185
:1012900093E260E00E948221F70187838EE193E26E
:1012A00060E00E948221F70180878EE193E260E096
:1012B0000E948221F70181878EE193E260E00E9423
:1012C0008221F70182878EE193E260E00E94822111
:1012D000F70183878EE193E260E00E948221F701AB
:1012E00084878EE193E260E00E948221F701858786
:1012F000C7010296B2010E94F623009701F1F8019E
:101300009582F30180819181A281B381805B9F4F9F
:10131000AF4FBF4F80839183A283B38382E0DF917D
:10132000CF911F910F91FF90EF90DF90CF90BF90E2
:10133000AF909F907F906F905F904F900895AA20FC
:10134000E1F08701025F1F4F99248EE193E260E094
:101350000E948221482E8EE193E260E00E94822169
:1013600080E0EC01842D90E08C2B9D2BF801819383
:1013700091938F0193949A1440F38EE193E260E08D
:101380000E948221F701E25BFF4F80838EE193E2AE
:1013900060E00E948221F701E15BFF4F808380E1E2
:1013A000E0E6F6E08583F30180819181A281B3813B
:1013B000805B9F4FAF4FBF4F80839183A283B383E6
:1013C00081E0ADCFF801958280E0A9CF4F925F9286
:1013D0007F928F929F92AF92BF92CF92DF92EF92C5
:1013E000FF920F931F93DF93CF93CDB7DEB7C45512
:1013F000D040CDBFDEBF2C0180E090E9AFE3B0E08C
:1014000089839A83AB83BC8325E0A22EB12CAC0EDA
:10141000BD1E4E010894811C911CC401B501A2019E
:101420000E94D308882309F402C100E09EE8C92E77
:1014300091E0D92E08C0C401B501A2010E94D308D1
:10144000882309F463C08130B1F78DB79EB7089740
:101450008DBF9EBFEDB7FEB7319689E991E0ADB77C
:10146000BEB711968D939C931297A7E0B0E0AC0F96
:10147000BD1FA283B38364968FAD64978483158266
:101480008D819E81868397830E94FE24EDB7FEB7EF
:101490003696EDBFFEBF82E991E0818392830E9480
:1014A000FE240F900F908D819E81009701F183E1C2
:1014B000E82EF12CEC0EFD1E00E010E0D7018D911E
:1014C0009D917D0100D000D0EDB7FEB7C182D282E0
:1014D000838394830E94FE240F5F1F4F0F900F9011
:1014E0000F900F908D819E810817190738F300D057
:1014F000E9E8F1E0ADB7BEB71196ED93FC93129712
:101500000E94FE240F900F9001E095CF002309F474
:101510008EC08D819E81009709F474C003E1A02ED6
:10152000B12CAC0EBD1ECC24DD2412E0412E12E005
:10153000512EB0E68B2EB6E09B2EA0E17A2E00D085
:1015400000D000D0EDB7FEB73196ADB7BEB711965B
:101550004D925C921297C282D382D5018D919C915B
:10156000848395830E94FE24F501219131915F01CE
:10157000D40115967C92159740E050E30E949D237C
:101580007B018C0116967C92EDB7FEB73696EDBFC7
:10159000FEBF8EE193E263E00E948221980144271E
:1015A00055278EE193E2622F0E948221EF2CF02ECC
:1015B000012F11278EE193E26E2D0E9482218EE190
:1015C00093E260E00E94822100E815E28EE193E25E
:1015D00060E00E948221609127237091282390E08F
:1015E0000E94A6240150104089F7D40115967C92E0
:1015F00015970894C11CD11C8D819E81C816D906EF
:1016000008F49DCF81E0CC5ADF4FCDBFDEBFCF9134
:10161000DF911F910F91FF90EF90DF90CF90BF90DF
:10162000AF909F908F907F905F904F90089500D0E3
:101630008BE791E0ADB7BEB711968D939C9312974F
:101640000E94FE240F900F90DDCF2F923F924F9279
:101650005F927F928F929F92AF92BF92CF92DF92D2
:10166000EF92FF920F931F93DF93CF93CDB7DEB727
:10167000C455D040CDBFDEBFE12CF0E9FF2EFFE323
:101680000F2F112DE982FA820B831C8300D089ED84
:1016900091E0ADB7BEB711968D939C9312970E94BF
:1016A000FE24E982FA820B831C830F900F90CC24D6
:1016B000DD248E010F5F1F4FE5E0AE2EB12CAC0E86
:1016C000BD1E75EC872E71E0972E67E0462E512CDB
:1016D0004C0E5D1E53E5252E312C2C0E3D1E46EB87
:1016E000E42E41E0F42EC801B5010E94630788236F
:1016F00009F47BC00894C11CD11CEDB7FEB73C9720
:10170000EDBFFEBF3196ADB7BEB711968D929C92DC
:101710001297C282D382448255828B899C898683A8
:101720009783D1018C918087118665968FAD6597DF
:10173000828713860E94FE24EDB7FEB73C96EDBF6C
:10174000FEBF8D819E818230910508F443C000D098
:10175000EBEBF1E0ADB7BEB71196ED93FC931297AA
:101760000E94FE240F900F908D819E81009729F199
:10177000772480E090E000D000D0ADB7BEB71196DE
:10178000ED92FC9212970796880F991F800F911F78
:10179000FC018481958113968D939C9314970E94EC
:1017A000FE247394872D90E00F900F900F900F9070
:1017B0002D813E8182179307F0F200D0E3EBF1E038
:1017C000ADB7BEB71196ED93FC9312970E94FE241D
:1017D0000F900F90C0920420D0920520C801B5014F
:1017E0000E946307882309F085CFC114D104C9F48E
:1017F00081E080932322CC5ADF4FCDBFDEBFCF9153
:10180000DF911F910F91FF90EF90DF90CF90BF90ED
:10181000AF909F908F907F905F904F903F902F90D0
:10182000089510922322E7CF2F923F924F925F921A
:101830006F927F928F929F92AF92BF92CF92DF92E0
:10184000EF92FF920F931F93DF93CF93CDB7DEB745
:101850002897CDBFDEBF3C016B0180E090E9AFE38C
:10186000B0E089839A83AB83BC834E010894811CCA
:10187000911CC401A3010E94D308882309F4A0C0CD
:1018800000E019E9412E11E0512EB2E02B2E312C4F
:101890002C0C3D1C9601225B3F4F2D833E83D601CD
:1018A0001E96AF83B887AEE8AA2EA1E0BA2E08C074
:1018B000C401B601A3010E94D308882309F467C0BC
:1018C0008130B1F7EDB7FEB73897EDBFFEBF319667
:1018D000ADB7BEB711964D925C92129722823382B9
:1018E000AD81BE818C9184831582D6018D919C91AE
:1018F000868397830E94FE24EDB7FEB73696EDBF30
:10190000FEBF22E931E0218332830E94FE240F9042
:101910000F90D6018D919C911197009711F1EF8056
:10192000F88400E010E0F701819191917F0100D0EF
:1019300000D0ADB7BEB71196AD92BC921297139678
:101940008D939C9314970E94FE240F5F1F4F0F905E
:101950000F900F900F90F601808191810817190761
:1019600010F300D0E9E8F1E0ADB7BEB71196ED9302
:10197000FC9312970E94FE240F900F9001E0C40187
:10198000B601A3010E94D308882309F099CF002350
:10199000B9F081E02896CDBFDEBFCF91DF911F91D6
:1019A0000F91FF90EF90DF90CF90BF90AF909F90FE
:1019B0008F907F906F905F904F903F902F90089501
:1019C00000D08BE791E0ADB7BEB711968D939C9395
:1019D00012970E94FE240F900F9080E0DBCF80E1F1
:1019E000E0E6F6E0858308950895EF920F9384E092
:1019F000E0E0F6E0828380E096E064E040E020E012
:101A000008E1EE24E3940E94432080E096E062E047
:101A100044E00E9435200F91EF9008958093242296
:101A20009093252208951F920F920FB60F921124C2
:101A30002F933F934F935F936F937F938F939F93D6
:101A4000AF93BF93EF93FF93E0912422F09125226F
:101A5000309709F00995FF91EF91BF91AF919F9158
:101A60008F917F916F915F914F913F912F910F9047
:101A70000FBE0F901F901895CF92DF92EF92FF92BA
:101A80000F931F93CF93DF9380EFE0E0F6E0818325
:101A9000E5E0F6E080E8808380E780930606108228
:101AA0008FE0E0E4F6E08183E0E6F6E08183E0E8C1
:101AB000F6E0818380E696E06FE041E021E008E314
:101AC00037E0E32E0E94432080E496E06FE041E09F
:101AD00021E00E94432080E896E06FE041E021E0B1
:101AE0000E944320C0E0D8E0898180618983898198
:101AF0008062898389818064898389818068898300
:101B000089818360898300E019E0F8018181806127
:101B100081838181806281838181806481838181ED
:101B200080688183818183608183E12C8AE0F82E43
:101B3000F7018181806181838181806281838181DC
:101B400080648183818180688183818183608183D6
:101B500080E099E061E00E94132380E098E061E07A
:101B60000E94132380E09AE061E00E94132380E04A
:101B700060E00E94351F90E080930620909307203C
:101B8000C0900620D090072080E061E00E94351FC1
:101B9000382F20E0C22AD32AC0920620D0920720F4
:101BA00080E062E00E94351F90E0809308209093CF
:101BB0000920C0900820D090092080E063E00E94B6
:101BC000351F382F20E0C22AD32AC0920820D09295
:101BD000092080E064E00E94351F90E080930A2095
:101BE00090930B20C0900A20D0900B2080E065E0FD
:101BF0000E94351F382F20E0C22AD32AC0920A2023
:101C0000D0920B2080910820909109208EA39FA351
:101C10008091062090910720F80186A397A38091D8
:101C20000A2090910B20F70186A397A3F80110A238
:101C300011A218A219A2F70110A211A2DF91CF914F
:101C40001F910F91FF90EF90DF90CF900895CF926A
:101C5000DF92EF92FF920F931F93CF93DF937C015C
:101C60006B01EA0180E060E00E94351F082F10E060
:101C7000F7010083118380E061E00E94351F382F57
:101C800020E0022B132BF7010083118380E062E038
:101C90000E94351F082F10E0F6010083118380E0B9
:101CA00063E00E94351F382F20E0022B132BF60132
:101CB0000083118380E064E00E94351F082F10E04C
:101CC0000883198380E065E00E94351F382F20E0EB
:101CD000022B132B08831983DF91CF911F910F9152
:101CE000FF90EF90DF90CF900895CF92DF92EF9228
:101CF000FF920F931F93CF93DF937C018B01EA0137
:101D000080E00E94D21F80E060E04E2D0E94F11E14
:101D100080E061E04F2D0E94F11E80E062E0402FE4
:101D20000E94F11E80E063E0412F0E94F11E80E0DE
:101D300064E06E014C2F0E94F11E80E065E04D2DA5
:101D40000E94F11EE0E0F8E006A317A3E0E0F9E04E
:101D5000E6A2F7A2E0E0FAE0C6A3D7A3DF91CF9115
:101D60001F910F91FF90EF90DF90CF90089500D0DA
:101D70008BE192E0EDB7FEB7818392830E94FE244F
:101D80000F900F90089580E10E94D6040E94F50CF8
:101D90000E943C0D0E94A71B80E090E00E9411224F
:101DA00083E090E00E947B2288EA98E10E94D5229D
:101DB00087EB9EE00E940E0D80E00E941E05789445
:101DC000FFCF88ED84BF81E0E8E7F0E081830895EC
:101DD000FB0182819381FC01DF010D900020E9F776
:101DE000BD01615070406E1B7F0B0E9484058130E5
:101DF00009F1813028F0823059F1833069F008957B
:101E000000D086E692E0EDB7FEB7818392830E9410
:101E1000FE240F900F90089500D089E292E0ADB7B4
:101E2000BEB711968D939C9312970E94FE240F903B
:101E30000F90089500D082E592E0ADB7BEB711963D
:101E40008D939C9312970E94FE240F900F900895FB
:101E500000D089E392E0EDB7FEB7818392830E94C0
:101E6000FE240F900F90089580E1E0E6F6E0858370
:101E700000D082E097E0EDB7FEB7818392830E94A5
:101E8000FE240F900F90089580E1E0E6F6E086834F
:101E900000D087E097E0EDB7FEB7818392830E9480
:101EA000FE240F900F9008958DB79EB70A978DBFAF
:101EB0009EBFEDB7FEB731968CE098E0ADB7BEB7E8
:101EC00011968D939C93129784E090E08283938384
:101ED00083E090E0848395838CE090E08683978311
:101EE00080E290E0808791870E94FE248DB79EB7A4
:101EF0000A968DBF9EBF089581E08093302000D068
:101F000088E199E0EDB7FEB7818392830E94FE24B9
:101F10000F900F90089581E080932B2280E1E0E6FE
:101F2000F6E0858300D08DE199E0EDB7FEB78183BF
:101F300092830E94FE240F900F90089510922B22FE
:101F400080E1E0E6F6E0858300D082E299E0EDB73B
:101F5000FEB7818392830E94FE240F900F90089514
:101F60001092302000D087E299E0EDB7FEB7818370
:101F700092830E94FE240F900F900895AF92BF921B
:101F8000CF92DF92EF92FF920F931F93CF93DF9345
:101F9000EB018430B1F000D087E892E0EDB7FEB7F6
:101FA000818392830E94FE240F900F90DF91CF9146
:101FB0001F910F91FF90EF90DF90CF90BF90AF9067
:101FC00008958A819B810E94CA237B018C016093C2
:101FD0000620709307208C819D810E94CA235B019B
:101FE0006C0160930820709309208E819F810E946C
:101FF000CA239B01AC0160930A2070930B20C70198
:10200000B501A9010E94750E8091082090910920C8
:10201000E0E0F8E086A397A3809106209091072046
:10202000E0E0F9E086A397A380910A2090910B202D
:10203000E0E0FAE086A397A3B9CF86E090E268E0FB
:1020400070E24AE050E20E94270E8DB79EB70897D3
:102050008DBF9EBFEDB7FEB731968FEA92E0ADB768
:10206000BEB711968D939C93129780910620909104
:102070000720828393838091082090910920848394
:10208000958380910A2090910B20868397830E94EC
:10209000FE248DB79EB708968DBF9EBF0895CF9240
:1020A000DF92EF92FF920F931F93DF93CF93CDB701
:1020B000DEB7E097CDBFDEBF7E010894E11CF11CC6
:1020C00080E1D7011D928A95E9F78E010F5E1F4FBF
:1020D00080E2F80111928A95E9F700D08DE693E04D
:1020E000ADB7BEB711968D939C9312970E94FE24B4
:1020F000E0E0F6E088E0818385838FE39DE0A3E064
:1021000081509040A040E1F700C0000088E693E0D5
:10211000ADB7BEB711968D939C9312970E94FE2483
:102120000F900F90C8010E94D224009709F47AC042
:10213000C8016CE070E20E94062421E0C22ED12C7E
:10214000009709F46FC000D08AE593E0EDB7FEB7C1
:10215000818392830E94FE240F900F90C8010E94F9
:10216000D224009779F0C8016FE070E20E94F12359
:1021700080E090E06FE070E20E94F123BC01C701B3
:102180000E94FF2300D081E493E0ADB7BEB7119663
:102190008D939C9312970E94FE240F900F90C8017C
:1021A0000E94D224009709F440C0C8016CE070E29C
:1021B0000E94062401E010E00097B9F188E0E0E019
:1021C000F6E0868300D084E193E0EDB7FEB781832B
:1021D00092830E94FE2400D000D000D0EDB7FEB75D
:1021E000319682ED92E0ADB7BEB711968D939C9378
:1021F0001297C282D382E482F582068317830E94FB
:10220000FE24EDB7FEB73896EDBFFEBFE096CDBF1A
:10221000DEBFCF91DF911F910F91FF90EF90DF9084
:10222000CF900895CC24DD248ECF00E010E0C6CFFF
:10223000DF92EF92FF920F931F93CF93DF93833040
:1022400008F0A7C0823009F44DC042E150E280E0BE
:1022500090E000E020E030E074E8E72E73E0F72E35
:10226000F901E80FF91FEE0FFF1FEC59FE4D048036
:10227000F581E02D8081882311F4E7E1F0E200D0C0
:1022800000D000D0ADB7BEB71196CDB7DEB7E982AA
:10229000FA8212964D935C9313971496ED93FC93E8
:1022A00015970E94FE240F5F802F90E09C01220F63
:1022B000331FF901E80FF91FEE0FFF1FEC59FE4D18
:1022C00040815181EDB7FEB73696EDBFFEBF411597
:1022D000510531F6DF91CF911F910F91FF90EF9053
:1022E000DF900895FB01E280F38002E110E2C0E09C
:1022F000D0E0DD2411C0D394CD2DD0E0FE01EE0F4F
:10230000FF1FEC0FFD1FEE0FFF1FEC59FE4D00816C
:10231000118101151105F1F2C801B7010E94F623E0
:10232000009749F701151105A9F2FE01EE0FFF1FF5
:10233000EC0FFD1FEE0FFF1FEC59FE4D0480F581E1
:10234000E02D8081882311F4E7E1F0E200D000D095
:1023500000D0ADB7BEB711968DE893E0CDB7DEB72C
:1023600089839A8312960D931C9313971496ED9379
:10237000FC9315970E94FE24EDB7FEB73696EDBF8D
:10238000FEBFDF91CF911F910F91FF90EF90DF90F3
:10239000089500D08CE993E0CDB7DEB789839A83A6
:1023A0000E94FE240F900F90DF91CF911F910F910B
:1023B000FF90EF90DF9008956F927F928F929F929F
:1023C000AF92BF92CF92DF92EF92FF920F931F9343
:1023D000DF93CF930F92CDB7DEB700D080E394E0C8
:1023E000ADB7BEB711968D939C9312970E94FE24B1
:1023F0000F900F900E94551D00D081E194E0EDB741
:10240000FEB7818392830E94FE240F900F900E945A
:102410009D1C8FEF94E3ACE081509040A040E1F729
:1024200000C0000000D083EF93E0ADB7BEB71196B7
:102430008D939C9312970E94FE240F900F90EE2490
:10244000FF2487019EEEA92E93E0B92E12C0C80189
:10245000B7010E94121C0894E11CF11C011D111D02
:10246000F0E0EF16F0E0FF06F0E40F07F0E01F07E2
:1024700019F14E2DD801C7019F70A070B070009760
:10248000A105B10521F700D000D000D0EDB7FEB70F
:10249000A182B282ADB7BEB71396ED92FD920D93B5
:1024A0001C931697E9820E94FE24EDB7FEB736967C
:1024B000EDBFFEBF4981CBCF8FE794E8AEE18150FD
:1024C0009040A040E1F700C0000000D08DEC93E008
:1024D000ADB7BEB711968D939C9312970E94FE24C0
:1024E0000F900F90EE24FF248701AA24BB246501DE
:1024F00088EC682E83E0782E15C0891429F00894A2
:10250000A11CB11CC11CD11C0894E11CF11C011DB3
:10251000111DF0E0EF16F0E0FF06F0E40F07F0E029
:102520001F0739F1C801B7010E94611C982E8E2C3B
:10253000A80197013F704070507021153105410589
:102540005105D9F600D000D000D0EDB7FEB76182BA
:102550007282ADB7BEB71396ED92FD920D931C93A8
:1025600016970E94FE24EDB7FEB73696EDBFFEBF6C
:10257000C4CF00D000D000D080EB93E0ADB7BEB7A1
:1025800011968D939C931297EDB7FEB7A382B482F8
:10259000C582D6820E94FE248DB79EB706968DBF57
:1025A0009EBF0F90CF91DF911F910F91FF90EF9001
:1025B000DF90CF90BF90AF909F908F907F906F9063
:1025C00008952F923F924F925F926F927F928F92D7
:1025D0009F92AF92BF92CF92DF92EF92FF920F93B2
:1025E0001F93CF93DF93EB01833001F100D085EE91
:1025F00097E0ADB7BEB711968D939C9312970E944A
:10260000FE240F900F90DF91CF911F910F91FF90BB
:10261000EF90DF90CF90BF90AF909F908F907F9082
:102620006F905F904F903F902F9008958A819B818B
:102630000E94CA233B014C018C819D810E94CA23C8
:102640001B012C01EDB7FEB73A97EDBFFEBF3196E7
:102650008EEC97E0ADB7BEB711968D939C93129711
:102660006282738284829582D201C101860D971D98
:10267000A81DB91D86839783A087B1870E94FE2479
:10268000EDB7FEB73A96EDBFFEBFEE24FF248701FB
:10269000CFEBD7E064015301AE0CBF1CC01ED11EAE
:1026A000C601B5010E94611C2DB73EB728503040CD
:1026B0002DBF3EBFEDB7FEB73196ADB7BEB7119691
:1026C000CD93DC931297A282B382C482D582868393
:1026D00017820E94FE240894E11CF11C011D111DAB
:1026E000EDB7FEB73896EDBFFEBF2E143F0440068F
:1026F000510680F688CFDF92EF92FF920F931F93DF
:10270000CF93DF93EB01823008F472C080E88093AE
:10271000060680E7809306068A819B810E94AC238F
:102720008295807F809305068E819F810E94CA23B7
:1027300024E0E22EF12CEC0EFD1EDD24F701808159
:10274000918140E059E0C0E0D8E000E01AE02D2D92
:1027500030E0FC0101900020E9F73197E81BF90B0C
:102760002E173F0708F051C0FC01E20FF31FE08174
:10277000E23529F1E73499F0E23411F0D394E7CF50
:10278000F80160AF71AF62AF73AF64AF75AF66AFA2
:1027900077AFD7018D919C911197D394D8CF68AF23
:1027A00079AF6AAF7BAF6CAF7DAF6EAF7FAFD70154
:1027B0008D919C91280F391FD901EC91DDCFDA0161
:1027C000D8966D937C93D997DA966D937C93DB972B
:1027D000DC966D937C93DD97DE966D937C93DF970B
:1027E000F70180819181FC01E20FF31FE081C2CFEC
:1027F00000D089E594E0ADB7BEB711968D939C9358
:1028000012970E94FE240F900F90DF91CF911F919D
:102810000F91FF90EF90DF9008951F93CF93DF9378
:10282000EB01833009F051C08A819B810E94CA2349
:102830009B01AC0120932722309328224093292228
:1028400050932A228C819D810E94AC238093262262
:10285000809126228031A8F52091272230912822CC
:102860004091292250912A221091262280912722DC
:1028700090912822A0912922B0912A22EDB7FEB78B
:102880003A97EDBFFEBF319665E777E0CDB7DEB78B
:1028900069837A832283338344835583810F911D17
:1028A000A11DB11D86839783A087B1870E94FE2456
:1028B000EDB7FEB73A96EDBFFEBFDF91CF911F9106
:1028C00008958FE080932622C7CF00D08CE897E050
:1028D000CDB7DEB789839A830E94FE240F900F90B4
:1028E000DF91CF911F910895EF92FF920F931F9365
:1028F000823009F03FC0FB01828193810E94CA238C
:102900003CE0660F771F881F991F3A95D1F76093B7
:102910002722709328228093292290932A22EE2442
:10292000FF2487016091272270912822809129221B
:1029300090912A226E0D7F1D801F911F0E94611CA5
:10294000609127237091282390E00E94A624089488
:10295000E11CF11C011D111DF1E0EF16F0E1FF0675
:10296000F0E00F07F0E01F07E9F61F910F91FF90CD
:10297000EF90089500D08CE097E0EDB7FEB781832B
:1029800092830E94FE240F900F901F910F91FF9051
:10299000EF900895AF92BF92CF92DF92EF92FF92A5
:1029A0000F931F93DF93CF93CDB7DEB7C455D040BD
:1029B000CDBFDEBF80E090E9AFE3B0E089839A83CA
:1029C000AB83BC8300E055E0C52ED12CCC0EDD1EC0
:1029D0005E010894A11CB11C45E5E42EF12CEC0E1F
:1029E000FD1EC501B6010E9463078823A9F0860178
:1029F0006091272370912823F80181918F0190E045
:102A00000E94A6240E151F0599F700E5C501B60121
:102A10000E946307882359F70023D1F000D08DE787
:102A200094E0EDB7FEB7818392830E94FE240F905D
:102A30000F90CC5ADF4FCDBFDEBFCF91DF911F91FA
:102A40000F91FF90EF90DF90CF90BF90AF900895DF
:102A500000D08BE994E0EDB7FEB7818392830E94AA
:102A6000FE240F900F90E5CF0E94250B08951F9331
:102A7000CF93DF930E94D61E182FC82FD0E0CE012F
:102A800080FF55C000D088E196E0EDB7FEB78183A6
:102A900092830E94FE240F900F90C1FF55C000D07A
:102AA00082EF95E0EDB7FEB7818392830E94FE240A
:102AB0000F900F909E012C7030702115310509F098
:102AC00055C000D088EB95E0EDB7FEB781839283C7
:102AD0000E94FE240F900F90C4FF55C000D024E741
:102AE00035E0EDB7FEB7218332830E94FE240F90BC
:102AF0000F90C5FF55C000D02BE335E0EDB7FEB712
:102B0000218332830E94FE240F900F9017FD55C041
:102B100000D080EB94E0EDB7FEB7818392830E94F2
:102B2000FE240F900F90DF91CF911F91089500D058
:102B300089E096E0EDB7FEB7818392830E94FE2480
:102B40000F900F90C1FDABCF00D087ED95E0EDB7B2
:102B5000FEB7818392830E94FE240F900F909E0106
:102B60002C7030702115310509F4ABCF00D021E96C
:102B700035E0EDB7FEB7218332830E94FE240F902B
:102B80000F90C4FDABCF00D02BE535E0EDB7FEB71D
:102B9000218332830E94FE240F900F90C5FDABCF9E
:102BA00000D022E135E0EDB7FEB7218332830E94E9
:102BB000FE240F900F9017FFABCF00D082EE94E071
:102BC000EDB7FEB7818392830E94FE240F900F9091
:102BD000DF91CF911F910895CF93DF93823049F514
:102BE000FB01C281D381CE0165E270E20E94F6232F
:102BF0000097E1F0CE010E94CA23DC01CB016CE01A
:102C0000880F991FAA1FBB1F6A95D1F70E94341E17
:102C100000D082E996E0EDB7FEB7818392830E94EF
:102C2000FE240F900F90DF91CF9108950E949D1C7C
:102C3000EFCF00D087E996E0EDB7FEB781839283AE
:102C40000E94FE240F900F90DF91CF910895EF9294
:102C5000FF920F931F93CF93DF93823051F5FB01C7
:102C6000C281D381CE0165E270E20E94F623009713
:102C7000E9F0CE010E94CA237B018C01CB010E94A6
:102C8000341EC7010E94E31D00D08BE296E0EDB731
:102C9000FEB7818392830E94FE240F900F90DF91F4
:102CA000CF911F910F91FF90EF9008950E94551DB5
:102CB000EBCF00D080E396E0EDB7FEB7818392833F
:102CC0000E94FE240F900F90DF91CF911F910F91E2
:102CD000FF90EF900895CF93DF93823049F5FB0189
:102CE000C281D381CE0165E270E20E94F623009793
:102CF000E1F0CE010E94CA23DC01CB017CE0880F09
:102D0000991FAA1FBB1F7A95D1F70E94851E00D07C
:102D10008FE596E0EDB7FEB7818392830E94FE2493
:102D20000F900F90DF91CF9108950E94F91CEFCF83
:102D300000D084E696E0EDB7FEB7818392830E94CF
:102D4000FE240F900F90DF91CF910895DF93CF93E2
:102D50000F92CDB7DEB7823089F000D088EE96E0D2
:102D6000ADB7BEB711968D939C9312970E94FE2427
:102D70000F900F900F90CF91DF910895FB0182810A
:102D800093810E94AC2300D000D0EDB7FEB73196FE
:102D900029ED36E0ADB7BEB711962D933C9312974F
:102DA0008283138289830E94FE240F900F900F90DC
:102DB0000F908EE193E269810E94822100D000D0C1
:102DC000EDB7FEB7319627EC36E0ADB7BEB711963A
:102DD0002D933C931297828313820E94FE240F90BE
:102DE0000F900F900F900F90CF91DF9108952F9239
:102DF0003F924F925F926F927F928F929F92AF928B
:102E0000BF92CF92DF92EF92FF920F931F93DF93C7
:102E1000CF93CDB7DEB7C854D040CDBFDEBF7B0166
:102E2000843021F100D081E497E0ADB7BEB71196B0
:102E30008D939C9312970E94FE240F900F90C85B75
:102E4000DF4FCDBFDEBFCF91DF911F910F91FF907C
:102E5000EF90DF90CF90BF90AF909F908F907F903A
:102E60006F905F904F903F902F900895FB0182816B
:102E700093810E94CA235B016C01D70114968D9146
:102E80009C9115970E94AC23982EF701868197811B
:102E90000E94CA232B013C0100D08CE397E0ADB720
:102EA000BEB711968D939C9312970E94FE240F90AB
:102EB0000F90411451046104710409F2292D30E08E
:102EC00040E050E025962CAF3DAF4EAF5FAF259769
:102ED000D601C5011CE0880F991FAA1FBB1F1A95B8
:102EE000D1F729968CAF9DAFAEAFBFAF29975E01EA
:102EF0000894A11CB11CA2E08A2E8A0CF2E02F2EAD
:102F0000312C2C0E3D1E942C25962CAD3DAD4EAD96
:102F10005FAD2597241535054605570508F4922E13
:102F2000392D3E3F71F07501C92CC80C80912523C5
:102F3000909126230E946424D7018D937D01CA16A7
:102F4000A9F7992009F48EC0F501892D81509101CE
:102F5000280F311D8FEF9FEF41918427482F429515
:102F60004827042E469546954025042E4695402533
:102F70004770082E892F469507944795902D8427F2
:102F80000694479590258427E217F30729F7292D02
:102F900030E0BC017070F501E20FF31F408150E09A
:102FA0006417750751F4892F9927220D331DF901F4
:102FB000208130E082179307A1F000D0EEE2F7E025
:102FC000ADB7BEB71196ED93FC9312970E94FE2405
:102FD0000F900F90411451046104710409F093CFD4
:102FE0002ECF9920B9F02996ECACFDAC0EAD1FADFB
:102FF00029976501D6014D916D01C801B7010E9465
:10300000121C0894E11CF11C011D111D8C2D8A1944
:10301000891580F329962CAD3DAD4EAD5FAD299756
:1030200025968CAD9DADAEADBFAD2597280F391F50
:103030004A1F5B1F29962CAF3DAF4EAF5FAF29975C
:10304000481A590A6A0A7B0A00D0E5E3F7E0ADB7EF
:10305000BEB71196ED93FC9312970E94FE240F9039
:103060000F90B8CF8FEF9FEF92CFDF93CF9300D029
:1030700000D0CDB7DEB78DB79EB740978DBF9EBF4E
:10308000EDB7FEB731968CE998E0ADB7BEB71196B3
:103090008D939C93129782E090E08283938387E0E4
:1030A00090E08483958380E290E086839783808795
:1030B00091878287938781E090E08487958780E07D
:1030C00090E1868797870E94FE24EDB7FEB73E9673
:1030D000EDBFFEBF8DE898E0818392830E94FE24BD
:1030E0000F900F90CE010196BE016E5F7F4FAE0133
:1030F0004D5F5F4F9E012C5F3F4F0E94CD1B8DB7F0
:103100009EB70A978DBF9EBFEDB7FEB731968EE48E
:1031100098E0ADB7BEB711968D939C9312978981B5
:10312000828313828A81848315828B8186831782AE
:103130008C81808711860E94FE24EDB7FEB73A96F7
:10314000EDBFFEBF2496CDBFDEBFCF91DF910895C6
:103150002F923F924F925F926F927F928F929F92A7
:10316000AF92BF92CF92DF92EF92FF920F931F9395
:10317000DF93CF93CDB7DEB7EC97CDBFDEBF00D0E6
:1031800081E599E0EDB7FEB7818392830E94FE242A
:10319000809126220F900F90882329F4809130206F
:1031A000813009F438C17EE2C72E72E2D72E65E085
:1031B000862E912C8C0E9D1E3E010894611C711C64
:1031C0005EE4452E59E0552E40E6242E46E0342E8E
:1031D0000E94FD21082F8D30C1F08A33B1F0883074
:1031E00009F44BC080913020882309F0E4C0E091BD
:1031F0002C22F0912D220193E0932C22F0932D228A
:103200000E94FD21082F8D3041F780912B228823C9
:1032100009F0C0C0E0912C22F0912D221082809103
:103220003020882309F0ACC08EE292E269E270E2BD
:103230000E94F6230097D1F500D081E499E0EDB724
:10324000FEB7818392830E94FE240F900F90EC962C
:10325000CDBFDEBFCF91DF911F910F91FF90EF9017
:10326000DF90CF90BF90AF909F908F907F906F90A6
:103270005F904F903F902F90089580912C229091D5
:103280002D22E2E28E329E0709F008F4A1CF0197C9
:1032900080932C2290932D2288E00E94E72180E2E7
:1032A0000E94E72188E00E94E72192CF80E692E227
:1032B0006EE272E20E94FF238EE292E26EE270E220
:1032C0000E94F12389839A8380E090E06EE270E2AD
:1032D0000E94F123282F392F2B833C838401BB24A8
:1032E000B39410C0B39480E090E06EE270E20E946C
:1032F000F123282F392FF801219331938F01FB2DD2
:10330000FE3119F02115310569F7E980FA8062E193
:1033100070E200E010E0AA2412C0A3940A2D10E08D
:10332000F801EE0FFF1FE00FF11FEE0FFF1FEC592A
:10333000FE4D608171816115710509F440C0C701BE
:103340000E94F623009749F7F801EE0FFF1FE00FE8
:10335000F11FEE0FFF1FEC59FE4D0280F381E02DAF
:103360008B2DB301099580912622882321F4809129
:1033700030208130E1F1C0922C22D0922D2228CF32
:1033800000D0EDB7FEB7418252820E94FE240F901A
:103390000F904ACF10922B2220E1F101258300D01B
:1033A00082E299E0EDB7FEB7818392830E94FE240A
:1033B0000F900F902FCF802F0E94E72118CF00D0C1
:1033C00000D08AEF98E0EDB7FEB781839283C38285
:1033D000D4820E94FE24809126220F900F900F909D
:1033E0000F90882341F680913020813021F600D063
:1033F0008EE399E0EDB7FEB7818392830E94FE24AD
:103400008CE299E0EDB7FEB7818392830E94FE249F
:103410000F900F90B0CF00D08EE399E0EDB7FEB7DC
:10342000818392830E94FE248CE299E0EDB7FEB77F
:10343000818392830E94FE240F900F90B4CE8091DE
:103440002622882321F480913020813009F00895CC
:1034500000D08EE399E0EDB7FEB7818392830E949E
:10346000FE248CE299E0EDB7FEB7818392830E943F
:10347000FE240F900F900895AF92BF92CF92DF92EB
:10348000EF92FF920F931F93DF93CF93CDB7DEB7E9
:10349000EC97CDBFDEBF6C016EE270E20E94F123BB
:1034A00089839A8380E090E06EE270E20E94F123CB
:1034B000282F392F2B833C838E010B5F1F4FBB249A
:1034C000B39410C0B39480E090E06EE270E20E948A
:1034D000F123282F392FF801219331938F01FB2DF0
:1034E000FE3119F02115310569F7E980FA8062E1B2
:1034F00070E200E010E0AA2411C0A3940A2D10E0AD
:10350000F801EE0FFF1FE00FF11FEE0FFF1FEC5948
:10351000FE4D608171816115710561F1C7010E94E5
:10352000F623009751F7F801EE0FFF1FE00FF11F90
:10353000EE0FFF1FEC59FE4D0280F381E02D8B2D25
:10354000BE016F5F7F4F099580912622882321F469
:1035500080913020813031F1EC96CDBFDEBFCF912C
:10356000DF911F910F91FF90EF90DF90CF90BF9070
:10357000AF90089500D000D08AEF98E0EDB7FEB785
:1035800081839283C382D4820E94FE24809126226A
:103590000F900F900F900F908823F1F680913020BC
:1035A0008130D1F600D08EE399E0EDB7FEB781838C
:1035B00092830E94FE248CE299E0EDB7FEB78183EE
:1035C00092830E94FE240F900F90C6CF0F93DF933B
:1035D000CF930F92CDB7DEB72FB72983F8941BBED8
:1035E000FC0108ED04BF608389818FBF0F90CF91EC
:1035F000DF910F910895662339F490E0842B892B95
:10360000E0E5F0E08283089590E2842B892BE0E5E9
:10361000F0E0828308956F71682BE0E5F0E0658348
:103620000895E0E5F0E02081982F90959223908313
:103630009081892308950F93DF93CF930F92CDB795
:10364000DEB79FB79983F8941BBE682B81E490E0A6
:10365000FC0108ED04BF608389818FBF0F90CF917B
:10366000DF910F9108950F93DF93CF930F92CDB712
:10367000DEB7A0E4B0E09C912FB72983F8941BBE7D
:10368000987F982B20E430E0F90108ED04BF908387
:1036900099819FBF9C9189230F90CF91DF910F91CA
:1036A0000895E0E4F0E09381917F9160982B9383FB
:1036B000089530915600282F982F909593236623D4
:1036C00009F420E0922BE0E5F0E09683813049F0A8
:1036D000823009F0089580916000816080936000DD
:1036E00008958091680081608093680008950F9329
:1036F000DF93CF930F92CDB7DEB78FB78983F8945E
:103700001BBE23E083E590E0FC0108ED04BF2083AD
:1037100089818FBF0F90CF91DF910F9108950F9303
:10372000DF93CF930F92CDB7DEB78FB78983F8942D
:103730001BBE21E082E490E0FC0108ED04BF208381
:1037400089818FBF0F90CF91DF910F9108958F9254
:10375000AF92CF92EF920F931F93CF93DF93C0E678
:10376000D6E010E119838EE193E260EC79E040E667
:1037700056E020E000E0EE24CC24C394AA24882460
:1037800083940E947A201D83DF91CF911F910F9126
:10379000EF90CF90AF908F9008957F928F929F92ED
:1037A000AF92BF92CF92DF92EF92FF920F931F934F
:1037B000CF93DF934C015B016A01790100E616E0CB
:1037C00080E1782EF8017682CEE1D3E2CE016FE976
:1037D0000E948221CE0160E00E948221F401808358
:1037E000CE0160E00E948221F5018083CE0160E07D
:1037F0000E948221F6018083CE0160E00E94822136
:10380000F7018083F8017582DF91CF911F910F91AD
:10381000FF90EF90DF90CF90BF90AF909F908F90F0
:103820007F900895CF92DF92EF92FF920F931F93B4
:10383000CF93DF936B017C01042FC0E6D6E010E14B
:103840001E838EE193E266E00E9482211D831E8327
:103850008EE193E262E00E9482219701442755277E
:103860008EE193E2622F0E94822155274F2D3E2D3B
:103870002D2D8EE193E2622F0E9482218EE193E250
:103880006C2D0E9482218EE193E2602F0E948221A2
:103890001D8300E11E838EE193E265E00E94822198
:1038A0008EE193E260E00E9482210D8380FDF2CFE1
:1038B000DF91CF911F910F91FF90EF90DF90CF900C
:1038C0000895BF92CF92DF92EF92FF920F931F93D2
:1038D000CF93DF937B018C0160E6C62E66E0D62E87
:1038E00050E1B52EF601B682CEE1D3E2CE0163E01F
:1038F0000E948221980144275527CE01622F0E9401
:1039000082215527412F302F2F2DCE01622F0E946B
:103910008221CE016E2D0E948221CE0160E00E94A4
:103920008221F601B582DF91CF911F910F91FF9017
:10393000EF90DF90CF90BF900895CF92DF92EF92FB
:10394000FF920F931F93CF93DF93CC24DD24760156
:10395000C0E6D6E010E100E10E838EE193E266E07E
:103960000E9482211D831E838EE193E269E30E94FF
:1039700082219701442755278EE193E2622F0E940E
:10398000822155274F2D3E2D2D2D8EE193E2622F62
:103990000E9482218EE193E260E00E9482211D83D9
:1039A0000E838EE193E265E00E9482218EE193E234
:1039B00060E00E9482211D8380FDF2CF80E090E1D3
:1039C000A0E0B0E0C80ED91EEA1EFB1E90E0C916AA
:1039D00090E0D90690E4E90690E0F90609F0BCCF42
:1039E000DF91CF911F910F91FF90EF90DF90CF90DB
:1039F0000895CF92DF92EF92FF920F931F93CF9390
:103A0000DF93CC24DD247601C0E6D6E010E100E1AE
:103A10000E838EE193E266E00E9482211D831E8365
:103A20008EE193E266E30E948221970144275527A5
:103A30008EE193E2622F0E94822155274F2D3E2D69
:103A40002D2D8EE193E2622F0E9482218EE193E27E
:103A500060E00E9482211D830E838EE193E265E087
:103A60000E9482218EE193E260E00E9482211D8308
:103A700080FDF2CF80E090E1A0E0B0E0C80ED91E5A
:103A8000EA1EFB1E90E0C91690E0D90690E4E90614
:103A900090E0F90609F0BCCFDF91CF911F910F9113
:103AA000FF90EF90DF90CF9008959F92AF92BF92DA
:103AB000CF92DF92EF92FF920F931F93CF93DF93FA
:103AC000AA24BB246501C0E6D6E040E1F42E30E133
:103AD000E32EEE828EE193E266E00E948221FD8277
:103AE000FE828EE193E269E30E94822196014427DF
:103AF00055278EE193E2622F0E94822155274D2D9A
:103B00003C2D2B2D8EE193E2622F0E9482218EE1CB
:103B100093E260E00E948221FD8200E616E080E1EF
:103B2000982EEE828EE193E265E00E9482218EE182
:103B300093E260E00E948221FD8280FDEECF80E072
:103B400090E1A0E0B0E0A80EB91ECA1EDB1E90E016
:103B5000A91690E0B90690E4C90690E0D90609F0EC
:103B6000B8CFD80116969C928EE193E266E00E944F
:103B70008221F801958296828EE193E260E60E94AE
:103B80008221D80115969C92C0E6D6E0B0E1FB2ECA
:103B900000E10E838EE193E265E00E9482218EE1D6
:103BA00093E260E00E948221FD8280FDF2CFDF91EE
:103BB000CF911F910F91FF90EF90DF90CF90BF902A
:103BC000AF909F900895DF92EF92FF920F931F9313
:103BD000CF93DF937C0100E010E0ECE0EE0CFF1CE3
:103BE000001F111FEA95D1F7C0E6D6E070E1D72E8D
:103BF000DE828EE193E266E00E948221DD82DE8237
:103C00008EE193E260E20E948221980144275527C9
:103C10008EE193E2622F0E948221EF2CF02E012F81
:103C200011278EE193E26E2D0E9482218EE193E2B4
:103C300060E00E948221DD8200E110E11E838EE1BE
:103C400093E265E00E9482218EE193E260E00E94AF
:103C500082210D8380FDF2CFDF91CF911F910F91D3
:103C6000FF90EF90DF900895DF92EF92FF920F9315
:103C70001F93CF93DF937C0100E010E08CE0EE0C0B
:103C8000FF1C001F111F8A95D1F7C0E6D6E0B0E1F6
:103C9000DB2EDE828EE193E266E00E948221DD82ED
:103CA000DE828EE193E269E30E948221980144273B
:103CB00055278EE193E2622F0E948221EF2CF02E95
:103CC000012F11278EE193E26E2D0E9482218EE159
:103CD00093E260E00E948221DD8200E110E11E8318
:103CE0008EE193E265E00E9482218EE193E260E042
:103CF0000E9482210D8380FDF2CFDF91CF911F9131
:103D00000F91FF90EF90DF900895DF92EF92FF9276
:103D10000F931F93CF93DF937C0100E010E04CE002
:103D2000EE0CFF1C001F111F4A95D1F7C0E6D6E02C
:103D300030E1D32EDE828EE193E266E00E948221A2
:103D4000DD82DE828EE193E266E30E9482219801A9
:103D5000442755278EE193E2622F0E948221EF2CA7
:103D6000F02E012F11278EE193E26E2D0E94822109
:103D70008EE193E260E00E948221DD8200E110E1A9
:103D80001E838EE193E265E00E9482218EE193E240
:103D900060E00E9482210D8380FDF2CFDF91CF9100
:103DA0001F910F91FF90EF90DF900895FF920F9376
:103DB0001F93CF93DF93C0E6D6E050E1F52EFE824D
:103DC0000EE113E2C80165E00E948221C80160E0B3
:103DD0000E948221FD82DF91CF911F910F91FF9070
:103DE00008959091CF0197FDFCCF9091CF0191FF65
:103DF00012C096E3E0ECF1E09287EF93FF930F930C
:103E00002F93EBECF1E008ED21E004BF20832F912C
:103E10000F91FF91EF91E0ECF1E093E3928770E076
:103E20006F71707090E0880F991F82959295907FC6
:103E30009827807F9827682B792B6093C001872F64
:103E40008F7181831282448385E38287EF93FF938E
:103E50000F932F93EBECF1E008ED21E004BF2083FA
:103E60002F910F91FF91EF910895E0ECF1E0909187
:103E7000CF0197FDFACF70E06F71707090E0880FFE
:103E8000991F82959295907F9827807F9827682B1D
:103E9000792B6093C001872F8F718183128286E016
:103EA0008287EF93FF930F932F93EBECF1E008EDF4
:103EB00021E004BF20832F910F91FF91EF9180911A
:103EC000C40108958091CF0187FDFCCF08958091B2
:103ED000CF0187FDFCCF8091CF0181FF12C086E327
:103EE000E0ECF1E08287EF93FF930F932F93EBECDD
:103EF000F1E008ED21E004BF20832F910F91FF91A5
:103F0000EF910895E0ECF1E09091CF0197FDFACFA9
:103F100093E392878093C001118212826483089593
:103F2000FC01A0ECB1E08091CF0187FDFACF83E3E3
:103F30001A968C931A9711961C92119712961C92AE
:103F4000129780E08093C001919114969C931497EE
:103F50008F5F8032B9F70895E0ECF1E09091CF01E6
:103F600097FDFACF90E0880F991F82959295907FE8
:103F70009827807F98278093C001892F8F71818334
:103F8000128285E38287EF93FF930F932F93EBECDD
:103F9000F1E008ED21E004BF20832F910F91FF9104
:103FA000EF910895E0ECF1E09091CF0197FDFACF09
:103FB00090E0880F991F82959295907F9827807F37
:103FC00098278093C001892F8F718183128282E3A9
:103FD0008287EF93FF930F932F93EBECF1E008EDC3
:103FE00021E004BF20832F910F91FF91EF9108955D
:103FF000E0ECF1E09091CF0197FDFACF90E0880FCF
:10400000991F82959295907F9827807F982780931B
:10401000C001892F8F718183128284E38287EF939D
:10402000FF930F932F93EBECF1E008ED21E004BF39
:1040300020832F910F91FF91EF9108958091CF01EF
:1040400087FDFCCF80E3E0ECF1E08287EF93FF9304
:104050000F932F93EBECF1E008ED21E004BF2083F8
:104060002F910F91FF91EF910895FC0181858C7F35
:10407000682B618742870895FC018185837F682BC7
:10408000618743870895EF920F93E02A442381F0DC
:1040900030E8E32A222381F420E0E22A2FB7F894C3
:1040A0006093B000FC01E08A2FBF0F91EF9008955C
:1040B00030E0E32A222381F320E4EFCFE0EBF0E0CD
:1040C0009281907F982B92830895E0EBF0E09281AB
:1040D0009F70982B92830895E0EBF0E09381907F9E
:1040E000982B93830895E0EBF0E093819F70982BD9
:1040F000938308958F92AF92CF92EF920F93DF93B5
:10410000CF93CDB7DEB7FC016083718342835383C5
:104110001482CC2039F130E8882039F190E4222350
:1041200039F580E000610A29032B092B082BDB01FC
:104130000C93A081B1811196EC92A081B18180E8AD
:1041400012968C931297158216820280F381E02DCD
:1041500080EA8183CF91DF910F91EF90CF90AF9064
:104160008F90089530E08820C9F690E02223C9F2AC
:1041700080E2D8CF662341F4DC01ED91FC911197E8
:1041800080818F7B80830895DC01ED91FC911197F4
:104190008081806480830895EF920F93FC01608397
:1041A000718342835383222389F480E4082BDB014B
:1041B0000C93A081B1811196EC9211970280F3814A
:1041C000E02D80E481830F91EF90089580E6EECF9B
:1041D000EF920F931F93FC0100831183E2826383AC
:1041E0007483458356832783108611861F910F9110
:1041F000EF900895CF93DF93FC01A581B6811896C7
:104200008C911897C081D181988194FF37C09B8190
:1042100015960D90BC91A02DA80FB11D9C938F5F9A
:10422000A581B68117969C9117978917A0F01296D1
:104230009C9112970D90BC91A02D15969C93A581F1
:10424000B68191E019969C93199718968C931897BC
:10425000DF91CF91089513960D90BC91A02DA80FDA
:10426000B11D9C91A081B18113969C93A581B681CB
:1042700018968C931897DF91CF91089591E09483CD
:1042800018968C931897DF91CF910895CF93DF9371
:10429000FC01DB019481C581D681209729F08985B5
:1042A000882361F1992309F5A583B68319961C9299
:1042B0001997148212968C9112970D90BC91A02D93
:1042C00016968C93A581B68118961C92A581B6810D
:1042D00013960D90BC91A02D8C910190F081E02D52
:1042E000838380E0DF91CF910895C281D3818C8157
:1042F00084FDDACF81E0DF91CF91089582E0DF91F4
:10430000CF910895FC01A081B18113966C9313970E
:104310000190F081E02D828187FFFDCF8381089598
:10432000CF93DF93FC01EB01209709F44CC0658328
:1043300076833A81A881B981109709F442C0169614
:104340003C93A581B6814F81442329F180E090E020
:1043500013960D90BC91A02DA80FB91F2C91A08190
:10436000B18113962C93A081B18112962C91129752
:1043700027FFFBCF13962C91A581B68115960D9042
:10438000BC91A02DA80FB91F2C930196841720F47F
:10439000A581B681DDCF40E0A581B681CD91DC91CC
:1043A0001197209719F03D83A581B68118964C93FB
:1043B00018970580F681E02D81E08187DF91CF910C
:1043C0000895DB01C0CF80E0DF91CF9108951F9366
:1043D0001FB71F938F931AE08095089410F48B9861
:1043E00002C08B9A000011D110D186951A95B1F7B1
:1043F0008F911F911FBF1F9108953F933FB73F9328
:1044000039E09299FECF08D107D106D188949299CC
:1044100008943A9511F08795F7CF3F913FBF3F91B0
:104420000895EF920F93CF93DF93EC0181E00E9408
:104430005E2082E192E28093272390932823809349
:104440002523909326238298839A8B9A209739F17B
:1044500081E08093942280E296E064E040E020E0F6
:1044600000E052E0E52E0E944320C230D105A9F1C0
:10447000C330D1052CF5C130D10531F480E296E08E
:1044800060E044E00E9435208091A2008760E0EA6D
:10449000F0E08283DF91CF910F91EF900895109219
:1044A000942280E296E064E040E020E000E037E023
:1044B000E32E0E944320DF91CF910F91EF9008955A
:1044C000C330D10589F0C430D105F1F680E296E021
:1044D00063E044E00E943520D7CF80E296E061E0BF
:1044E00044E00E943520D0CF80E296E062E044E0D4
:1044F0000E943520C9CFEF920F93CF93DF93EC0149
:10450000009739F181E08093942280E296E064E0A4
:1045100040E020E000E0E2E0EE2E0E944320C230C6
:10452000D105A9F1C330D1052CF5C130D10531F445
:1045300080E296E060E044E00E9435208091A20095
:104540008760E0EAF0E08283DF91CF910F91EF90F6
:1045500008951092942280E296E064E040E020E02A
:1045600000E077E0E72E0E944320DF91CF910F918A
:10457000EF900895C330D10589F0C430D105F1F62C
:1045800080E296E063E044E00E943520D7CF80E2ED
:1045900096E061E044E00E943520D0CF80E296E0D2
:1045A00062E044E00E943520C9CF8093922290932C
:1045B000932208951F920F920FB60F9211242F93FA
:1045C0003F934F935F936F937F938F939F93AF939B
:1045D000BF93EF93FF93F894E0919222F09193228E
:1045E000309709F009957894FF91EF91BF91AF91C1
:1045F0009F918F917F916F915F914F913F912F91FB
:104600000F900FBE0F901F9018958F938CE88A958E
:10461000F1F78F91000008958F938CE88A95F1F758
:104620008F9100000895FC018081807F682B60835A
:104630000895FC018081807F682B60830895FC01D0
:104640008181887F682B61830895FC018181887F47
:10465000682B61830895FC01838180718062862BC1
:1046600083830895FC01838180718062862B83831C
:104670000895FC018181607F682B61830895FC01AE
:1046800081816073682B61830895FC018181607F63
:104690006095682361830895FC0181816073609552
:1046A000682361830895FC0186818C7F682B668373
:1046B0000895FC0186818C7F682B66830895FC0138
:1046C0008681837F682B66830895FC018681837FC2
:1046D000682B66830895FC0187818C7F682B678334
:1046E0000895FC0187818C7F682B67830895FC0106
:1046F0008781837F682B67830895FC018781837F8F
:10470000682B67830895FC0187818F7C682B678302
:104710000895FC0187818F73682B67830895FC01DE
:104720008081807F80838CE081870895FC01808177
:10473000807F80838CE081870895539FC001429FD2
:10474000B001529F700D811D1124911D349F700D79
:10475000811D1124911D0895FC0188279927E89453
:1047600021912032E9F3293010F02E30C8F32B329A
:1047700041F02D3239F4689404C00E945C24820F09
:10478000911D219120532A30C0F31EF490958195FC
:104790009F4F08951F93FC0199278827BC01E89437
:1047A00011911032E9F3193010F01E30C8F31B32AA
:1047B00051F01D3249F4689406C00E944724610FED
:1047C000711D811D911D119110531A30B0F33EF4EB
:1047D00090958095709561957F4F8F4F9F4F1F915A
:1047E000089545E952E20E9420240895FB01DC016E
:1047F0008D91019080190110D9F3990B0895FB0157
:10480000DC0101900D920020E1F70895FB01519128
:104810005523A9F0BF01DC014D9145174111E1F786
:1048200059F4CD010190002049F04D9140154111FE
:10483000C9F3FB014111EFCF81E090E001970895AA
:10484000FA01A191B081009719F41097E1F0CD0120
:10485000DC01CD010D90002011F4C00113C0FB015B
:104860002191222319F02015D9F7F3CFFB012191D3
:10487000201519F41E92119606C02223C1F70D903F
:104880000020A1F7D001FA01A193B0830895592F18
:10489000482F372F262F660F771F881F991F660F07
:1048A000771F881F991F620F731F841F951F660F44
:1048B000771F881F991F08957AE0979F902D879FF3
:1048C000802D910D11240895CF93DF93EC013B814E
:1048D00030FF36C036FF09C03F7B3B838E819F810E
:1048E00001968E839F832A8129C032FF0FC0E88101
:1048F000F9818081992787FD9095009719F430629E
:104900003B831EC03196E883F98311C0EA85FB859D
:10491000CE01099597FF0BC02B813FEF8F3F930787
:1049200011F480E101C080E2822B8B8309C02E81CB
:104930003F812F5F3F4F2E833F83282F30E002C0FF
:104940002FEF3FEFC901DF91CF9108950F931F9390
:10495000CF93DF938C01EB018B8181FF1BC082FF22
:104960000DC02E813F818C819D812817390764F409
:10497000E881F9810193E883F98306C0E885F98528
:10498000802F0995009731F48E819F8101968E8347
:104990009F8302C00FEF1FEFC801DF91CF911F91DE
:1049A0000F910895EF92FF920F931F93CF93DF9390
:1049B000EC01E0912523F0912623838180FF15C02F
:1049C0008E0101C08F0180912523909126230E94A2
:1049D00064242FEF8F3F920741F0F80181938A30D2
:1049E000910581F7F801108202C0C0E0D0E07E019D
:1049F000CE01CDB7DEB7E6E00C94A127A0E0B0E091
:104A0000E4E0F5E20C948C27FE01359661917191FA
:104A10008091272390912823DC0113962C911397E2
:104A2000286013962C93AF010E942125E091272343
:104A3000F09128232381277F23832096E2E00C94A2
:104A4000A527ACE0B0E0E7E2F5E20C947C276C012E
:104A50001B018A01FC0116821782838181FFD1C16B
:104A60002E010894411C511CF6019381F10193FD24
:104A7000859193FF81911F01882309F4BEC185327E
:104A800039F493FD859193FF81911F01853229F4BB
:104A900090E0B6010E94A624E7CFEE24FF2420E098
:104AA0002032B0F48B3269F08C3228F4803251F02D
:104AB000833271F40BC08D3239F0803349F42160B8
:104AC0002CC02260246029C0286027C0206125C036
:104AD00027FD2CC0382F30533A3098F426FF08C0F9
:104AE0008E2D880FE82EEE0CEE0CE80EE30E15C0AE
:104AF0008F2D880FF82EFF0CFF0CF80EF30E20629E
:104B00000CC08E3221F426FD78C1206406C08C369C
:104B100011F4206802C0883649F4F10193FD8591B3
:104B200093FF81911F01882309F0BACF982F9554E4
:104B3000933018F09052933028F40C5F1F4FFFE32E
:104B4000F9830DC0833631F0833771F0833509F076
:104B500060C022C0F801808189830E5F1F4F42012F
:104B600071E0A72EB12C16C062E0662E712C600E8B
:104B7000711EF8018080918026FF03C06E2D70E0C9
:104B800002C06FEF7FEFC4012C870E9413275C01E6
:104B900083012C852F7717C052E0652E712C600E93
:104BA000711EF8018080918026FF03C06E2D70E099
:104BB00002C06FEF7FEFC4012C870E9408275C01C1
:104BC0002C852068830123FD20C008C080E290E08E
:104BD000B6012C870E94A624FA942C858F2D90E094
:104BE000A816B90698F311C0F40127FD859127FF97
:104BF00081914F0190E0B6012C870E94A6242C855C
:104C0000F110FA940894A108B108A114B10461F755
:104C1000F1C0843611F0893649F527FF08C0F80144
:104C200060817181828193810C5F1F4F09C0F801FF
:104C300060817181882777FD8095982F0E5F1F4FC7
:104C40004FE6B42EB22297FF09C0909580957095DB
:104C500061957F4F8F4F9F4FF0E8BF2AA2012AE056
:104C600030E00E941E27782E741845C0853731F435
:104C70003FEEB32EB2222AE030E025C099EFB92EE4
:104C8000B2228F36C1F0803720F4883509F0B5C0E4
:104C90000DC0803721F0883709F0AFC002C020E195
:104CA000B22AB4FE0BC084E0B82A08C0B4FE09C022
:104CB000E6E0BE2A06C028E030E005C020E130E092
:104CC00002C020E132E0B7FE08C0F80160817181C6
:104CD000828193810C5F1F4F07C0F8016081718151
:104CE00080E090E00E5F1F4FA2010E941E27782EE9
:104CF0007418FFE7BF22B6FE0BC02EEFB2227E145F
:104D000038F4B4FE07C0B2FC05C08FEEB82202C072
:104D1000A72C01C0AE2C8B2D90E0B4FE0DC0FE017F
:104D2000E70DF11D2081203319F4E9EEBE2209C000
:104D3000A394B2FE06C004C086789070009709F074
:104D4000A3948B2C9924B3FC14C0B0FE0FC0AF14F5
:104D500028F4E72CEF0CEA18AF2C08C0E72C06C0AB
:104D600080E290E0B6010E94A624A394AF14C0F3A1
:104D700004C0AF1410F4FA1801C0FF2484FE0FC061
:104D800080E390E0B6010E94A62482FE1FC081FE4F
:104D900003C088E590E010C088E790E00DC0C40132
:104DA00086789070009791F081FC02C080E201C08B
:104DB0008BE2B7FC8DE290E0B6010E94A62406C00B
:104DC00080E390E0B6010E94A624EA947E14C0F32A
:104DD0007A94F201E70DF11D808190E0B6010E9406
:104DE000A6247720A9F706C080E290E0B6010E94D1
:104DF000A624FA94FF20C1F737CEF6012681378129
:104E000002C02FEF3FEFC9012C96E2E10C949527E9
:104E1000FC010590615070400110D8F78095909585
:104E20008E0F9F1F0895FC0161507040019001108A
:104E3000D8F7809590958E0F9F1F0895FA01AA27A5
:104E4000283051F1203181F1E8946F936E7F6E5FCD
:104E50007F4F8F4F9F4FAF4FB1E03ED0B4E03CD07B
:104E6000670F781F891F9A1FA11D680F791F8A1F5E
:104E7000911DA11D6A0F711D811D911DA11D20D0C5
:104E800009F468943F912AE0269F11243019305D7F
:104E90003193DEF6CF010895462F4770405D419370
:104EA000B3E00FD0C9F7F6CF462F4F70405D4A33BD
:104EB00018F0495D31FD4052419302D0A9F7EACF85
:104EC000B4E0A6959795879577956795BA95C9F7B4
:104ED00000976105710508959B01AC010A2E0694A7
:104EE0005795479537952795BA95C9F7620F731F60
:104EF000841F951FA01D08952F923F924F925F929D
:104F00006F927F928F929F92AF92BF92CF92DF92D9
:104F1000EF92FF920F931F93CF93DF93CDB7DEB73E
:104F2000CA1BDB0BCDBFDEBF09942A8839884888AD
:104F30005F846E847D848C849B84AA84B984C884B5
:104F4000DF80EE80FD800C811B81AA81B981CE0FAC
:0E4F5000D11DCDBFDEBFED010895F894FFCF57
:104F5E0000903F00FFFFFF00FF00FF004F4B003AA5
:104F6E000A0069646E3F006E6F20706172616D653C
:104F7E007465727300414C4C0065786974002000B2
:104F8E000100726570610072656164005B73745D2F
:104F9E00205B6C656E5D007772697465007772696F
:104FAE0074655F626C6B005B626C6B235D205B7182
:104FBE006E745D205B6C656E5D00726561645F6230
:104FCE006C6B005B626C6B235D0063735F6C6F7761
:104FDE000063735F68696768007370695F747261FC
:104FEE006E73005B75385D00756E70726F745F6600
:104FFE006C617368005B626C6B232F616C6C5D007F
:10500E0070726F745F666C61736800657261736550
:10501E005F666C61736800666C6173685F73746160
:10502E007400646972006765745F667300746573FB
:10503E00745F6C6564005B726F77235D205B7267D3
:10504E00625D006D656D5F746573740068656C708C
:10505E00005B636D645D0073775F726573657400EA
:10506E00656F6600656F6E0073746F705F616C6C58
:10507E000073746172745F616C6C00636F6E66694D
:10508E00677572655F627400726561645F63616CFF
:10509E000077726974655F63616C007231362067E8
:1050AE003136206231360077726974655F646C0048
:1050BE00737472001220351831203220540F3120B3
:1050CE003720E1123C2047200D143C204D20F716CE
:1050DE0057206A20741473207A20440F31208120C7
:1050EE00340F31208920A61693209820EC15A52088
:1050FE00B0206B16A520BB202716A520C72037157C
:10510E003120D22034153120D620CA143120DD2092
:10511E007B13E620F320DC113120FC201811012135
:10512E000721E10E31201021B00F312014217C0F08
:10513E00312018219E0F312021218B0F31202B2160
:10514E004F10312038211D1031204121BE0F4B212F
:10515E005721E80E602129200000312000000000B8
:10516E0000000000000300000000E721FD21000008
:00000001FF
