:100000000C94BE000C94DB000C940C030C94DB00ED
:100010000C94DB000C94DB000C94DB000C94DB00F4
:100020000C94DB000C94DB000C94DB000C94DB00E4
:100030000C94DB000C94DB000C94DB000C94DB00D4
:100040000C94DB000C94DB000C94DB000C94DB00C4
:100050000C94DB000C94DB000C94DB000C94DB00B4
:100060000C94DB000C94DB000C94DB000C94DB00A4
:100070000C94DB000C94DB000C94DB000C94DB0094
:100080000C94DB000C94DB000C9473090C94DB00E3
:100090000C94DB000C94DB000C94DB000C94DB0074
:1000A0000C94DB000C94DB000C94DB000C94DB0064
:1000B0000C94DB000C94DB000C94DB000C94DB0054
:1000C0000C94DB000C94DB000C94DB000C94DB0044
:1000D0000C94DB000C94DB000C94DB000C94DB0034
:1000E0000C94DB000C94DB000C94DB000C94DB0024
:1000F0000C94DB000C94DB000C94DB000C94DB0014
:100100000C94DB000C94DB000C94DB000C94DB0003
:100110000C94DB000C94DB000C94DB000C94DB00F3
:100120000C94DB000C94DB000C94DB000C94DB00E3
:100130000C94DB000C94DB000C94DB000C94DB00D3
:100140000C94DB000C94DB000C94DB000C94DB00C3
:100150000C94DB000C94DB000C94DB000C94DB00B3
:100160000C94DB000C94DB000C94DB006461746184
:100170003A20257300570041434B000011241FBE55
:10018000CFEFDFE2DEBFCDBF10E2A0E0B0E2E6E2FB
:10019000FAE102C005900D92A431B107D9F710E23F
:1001A000A4E1B0E201C01D92A53AB107E1F70E94B7
:1001B000B3040C94110D0C940000803279F19091ED
:1001C00050009160909350009091510090FFFCCFAF
:1001D0008230D1F0682F6695669580E00E94EE042B
:1001E0008091500080618093500080E060E00E9428
:1001F000FE048091510084FFFCCF84E00E9416052C
:1002000082E00E94F404089580E00E94160580E1D7
:100210000E94F40482E00E94F4040895809150004A
:1002200082608093500080E060E00E94FE04809134
:10023000510081FFFCCF81E00E94160580E10E9401
:10024000F40481E00E94F40408958F92AF92CF925B
:10025000EF920F93882361F180E20E94FE06E0E4B2
:10026000F6E080E2828380E88183858380E496E003
:1002700060E840E020E000E3EE240E94DC0680E439
:1002800096E060E240E020E00E94DC0680E496E038
:1002900063E040E20E94CE068091A2008760E0EA1F
:1002A000F0E082830F91EF90CF90AF908F90089500
:1002B00080E496E060E840E020E000E353E0E52ED3
:1002C0000E94DC0680E496E060E240E020E037E057
:1002D000E32E0E94DC0688E190E260EC78E040E4E6
:1002E00056E020E004E0EE24CC24AA2488240E94D6
:1002F000130788E190E260E00E945307E0E4F6E033
:1003000080E2818390E8928385830F91EF90CF9074
:10031000AF908F900895EF920F931F93CF93DF9339
:10032000EC01162F8091480687FD07C081E0DF9120
:10033000CF911F910F91EF90089580E2E0E4F6E0F5
:1003400086838FE703C0815009F465C0E0E4F6E0DE
:100350009091480697FDF7CF80EA818380E496E08C
:1003600060EA40E020E000E077E0E72E0E94DC0653
:1003700088E190E261E00E94530788E190E2612FFA
:100380000E941B08E0911820F091192060E09991DB
:100390009383828187FFFDCF690F1150C1F788E1F8
:1003A00090E20E941B0888E190E260E00E945307FF
:1003B00080E496E060E840E020E000E3F3E0EF2E28
:1003C0000E94DC0680E496E060E240E020E0E7E0A6
:1003D000EE2E0E94DC0688E190E260E00E94530766
:1003E000E0E4F6E080E2818390E8928386838FE701
:1003F00002C08150A1F0E0E4F6E09091480697FF3A
:10040000F8CF8091480687FD02C080E090CF80E25F
:10041000858380E08CCF80E2858382E088CF80E294
:10042000858383E084CF3F933FB73F9388273FEF97
:1004300088943A95B79BE9F7B5990894881F38E0F6
:100440003A95B79BE9F7B5990894881F38E03A9533
:10045000B79BE9F7B5990894881F38E03A95B79BA0
:10046000E9F7B5990894881F38E03A95B79BE9F702
:10047000B5990894881F38E03A95B79BE9F7B59984
:100480000894881F38E03A95B79BE9F7B599089426
:10049000881F38E03A95B79BE9F7B5990894881F0B
:1004A0003F913FBF3F910895DF92EF92FF920F93EC
:1004B0001F93CF93DF93C0E4D6E0A0E8FA2EFE822C
:1004C000FA8280E496E060E840E020E000E0EE247C
:1004D0000E94DC0680E496E060E240E020E00E94BA
:1004E000DC060E941302182F1F7709F483C0F12E37
:1004F000FA94C0E0D0E00E941302FE01E15EFF4DDD
:10050000808321961C17B9F70E941302D82E80E42D
:1005100096E060E840E020E000E3EE240E94DC0684
:10052000E0E4F6E080E886838183109314202F2D89
:1005300030E02F5F3F4F80E090E040E0FC01E15E63
:10054000FF4D5081450F019682179307B9F74D155E
:1005500009F440C08091480685FD0FC0C5E7D1E091
:1005600000D0EDB7FEB7C183D2830E94360A8091D6
:1005700048060F900F9085FFF3CF80E8E0E4F6E0A7
:10058000858380E496E060E240E020E000E3EE2432
:100590000E94DC06E0911420F0E0E15EFF4D108245
:1005A00000D000D08CE691E0EDB7FEB78183928356
:1005B0008FE190E2838394830E94360A0F900F901C
:1005C0000F900F90DF91CF911F910F91FF90EF90BF
:1005D000DF90089580E8E0E4F6E0858300D087E7C7
:1005E00091E0EDB7FEB7818392830E94360A0F90A7
:1005F0000F90E8CF0E941302D82E80E496E060E8C6
:1006000040E020E000E3EE240E94DC06FE82F98256
:100610001092142040E09BCF1F920F920FB60F92C2
:1006200011242F933F934F935F936F937F938F93F7
:100630009F93AF93BF93EF93FF938091480685FDFF
:1006400006C0F894109214200E9454027894FF91EE
:10065000EF91BF91AF919F918F917F916F915F913A
:100660004F913F912F910F900FBE0F901F901895B3
:10067000CF92DF92EF92FF920F931F93CF93DF936E
:1006800080EFE0E0F6E08183E5E0F6E080E880835B
:1006900080E78093060610828FE0E0E4F6E0818335
:1006A000E0E6F6E08183E0E8F6E0818380E696E02C
:1006B0006FE041E021E008E337E0E32E0E94DC0632
:1006C00080E496E06FE041E021E00E94DC0680E8F3
:1006D00096E06FE041E021E00E94DC06C0E0D8E057
:1006E000898180618983898180628983898180642D
:1006F000898389818068898389818360898300E017
:1007000019E0F80181818061818381818062818328
:10071000818180648183818180688183818183601C
:100720008183E12C8AE0F82EF70181818061818349
:1007300081818062818381818064818381818068FD
:10074000818381818360818380E099E061E00E9400
:10075000AC0980E098E061E00E94AC0980E09AE09A
:1007600061E00E94AC0980E060E00E94CE0590E06C
:100770008093002090930120C0900020D090012011
:1007800080E061E00E94CE05382F20E0C22AD32A03
:10079000C0920020D092012080E062E00E94CE054D
:1007A00090E08093022090930320C0900220D0908C
:1007B000032080E063E00E94CE05382F20E0C22AAB
:1007C000D32AC0920220D092032080E064E00E94ED
:1007D000CE0590E08093042090930520C0900420E3
:1007E000D090052080E065E00E94CE05382F20E003
:1007F000C22AD32AC0920420D092052080910220E0
:10080000909103208EA39FA38091002090910120BE
:10081000F80186A397A38091042090910520F70109
:1008200086A397A3F80110A211A218A219A2F7019A
:1008300010A211A2DF91CF911F910F91FF90EF9025
:10084000DF90CF900895CF92DF92EF92FF920F93B7
:100850001F93CF93DF937C016B01EA0180E060E09E
:100860000E94CE05082F10E0F7010083118380E07D
:1008700061E00E94CE05382F20E0022B132BF701F8
:100880000083118380E062E00E94CE05082F10E013
:10089000F6010083118380E063E00E94CE05382FCB
:1008A00020E0022B132BF6010083118380E064E02B
:1008B0000E94CE05082F10E00883198380E065E0D0
:1008C0000E94CE05382F20E0022B132B08831983BA
:1008D000DF91CF911F910F91FF90EF90DF90CF901C
:1008E0000895CF92DF92EF92FF920F931F93CF93D1
:1008F000DF937C018B01EA0180E00E946B0680E0BF
:1009000060E04E2D0E948A0580E061E04F2D0E943C
:100910008A0580E062E0402F0E948A0580E063E063
:10092000412F0E948A0580E064E06E014C2F0E94F6
:100930008A0580E065E04D2D0E948A05E0E0F8E040
:1009400006A317A3E0E0F9E0E6A2F7A2E0E0FAE0F0
:10095000C6A3D7A3DF91CF911F910F91FF90EF9086
:10096000DF90CF90089580E20E94DD0080E090E06B
:100970000E94AA0883E090E00E94140980E090E0C1
:100980000E946E090E94380381E00E94250178943C
:10099000FFCF0F93DF93CF930F92CDB7DEB72FB773
:1009A0002983F8941BBEFC0108ED04BF6083898194
:1009B0008FBF0F90CF91DF910F910895662339F487
:1009C00090E0842B892BE0E5F0E08283089590E2AB
:1009D000842B892BE0E5F0E0828308956F71682B0A
:1009E000E0E5F0E065830895E0E5F0E02081982FF0
:1009F0009095922390839081892308950F93DF939C
:100A0000CF930F92CDB7DEB79FB79983F8941BBEF3
:100A1000682B81E490E0FC0108ED04BF60838981CC
:100A20008FBF0F90CF91DF910F9108950F93DF93B8
:100A3000CF930F92CDB7DEB7A0E4B0E09C912FB773
:100A40002983F8941BBE987F982B20E430E0F901AD
:100A500008ED04BF908399819FBF9C9189230F90DB
:100A6000CF91DF910F910895E0E4F0E09381917FC1
:100A70009160982B9383089530915600282F982FDA
:100A800090959323662309F420E0922BE0E5F0E0B3
:100A90009683813049F0823009F00895809160009A
:100AA00081608093600008958091680081608093E8
:100AB000680008950F93DF93CF930F92CDB7DEB701
:100AC0008FB78983F8941BBE23E083E590E0FC0197
:100AD00008ED04BF208389818FBF0F90CF91DF91F4
:100AE0000F9108950F93DF93CF930F92CDB7DEB799
:100AF0008FB78983F8941BBE21E082E490E0FC016B
:100B000008ED04BF208389818FBF0F90CF91DF91C3
:100B10000F9108959091CF0197FDFCCF9091CF0157
:100B200091FF12C096E3E0ECF1E09287EF93FF9320
:100B30000F932F93EBECF1E008ED21E004BF20834D
:100B40002F910F91FF91EF91E0ECF1E093E3928709
:100B500070E06F71707090E0880F991F8295929588
:100B6000907F9827807F9827682B792B6093C0010E
:100B7000872F8F7181831282448385E38287EF936D
:100B8000FF930F932F93EBECF1E008ED21E004BF0E
:100B900020832F910F91FF91EF910895E0ECF1E008
:100BA0009091CF0197FDFACF70E06F71707090E077
:100BB000880F991F82959295907F9827807F98271C
:100BC000682B792B6093C001872F8F7181831282EC
:100BD00086E08287EF93FF930F932F93EBECF1E086
:100BE00008ED21E004BF20832F910F91FF91EF9139
:100BF0008091C40108958091CF0187FDFCCF0895B5
:100C00008091CF0187FDFCCF8091CF0181FF12C081
:100C100086E3E0ECF1E08287EF93FF930F932F934D
:100C2000EBECF1E008ED21E004BF20832F910F9160
:100C3000FF91EF910895E0ECF1E09091CF0197FDE5
:100C4000FACF93E392878093C0011182128264836A
:100C50000895FC01A0ECB1E08091CF0187FDFACFAF
:100C600083E31A968C931A9711961C9211971296F9
:100C70001C92129780E08093C001919114969C93EE
:100C800014978F5F8032B9F70895E0ECF1E090910E
:100C9000CF0197FDFACF90E0880F991F829592952A
:100CA000907F9827807F98278093C001892F8F712C
:100CB0008183128285E38287EF93FF930F932F93B3
:100CC000EBECF1E008ED21E004BF20832F910F91C0
:100CD000FF91EF910895E0ECF1E09091CF0197FD45
:100CE000FACF90E0880F991F82959295907F982770
:100CF000807F98278093C001892F8F718183128212
:100D000082E38287EF93FF930F932F93EBECF1E055
:100D100008ED21E004BF20832F910F91FF91EF9107
:100D20000895E0ECF1E09091CF0197FDFACF90E0CB
:100D3000880F991F82959295907F9827807F98279A
:100D40008093C001892F8F718183128284E382870F
:100D5000EF93FF930F932F93EBECF1E008ED21E07D
:100D600004BF20832F910F91FF91EF9108958091FF
:100D7000CF0187FDFCCF80E3E0ECF1E08287EF93C9
:100D8000FF930F932F93EBECF1E008ED21E004BF0C
:100D900020832F910F91FF91EF910895FC018185A0
:100DA0008C7F682B618742870895FC018185837F52
:100DB000682B618743870895EF920F93E02A4423BD
:100DC00081F030E8E32A222381F420E0E22A2FB7E1
:100DD000F8946093B000FC01E08A2FBF0F91EF9070
:100DE000089530E0E32A222381F320E4EFCFE0EB03
:100DF000F0E09281907F982B92830895E0EBF0E0F1
:100E000092819F70982B92830895E0EBF0E093819C
:100E1000907F982B93830895E0EBF0E093819F708F
:100E2000982B938308958F92AF92CF92EF920F9366
:100E3000DF93CF93CDB7DEB7FC016083718342832C
:100E400053831482CC2039F130E8882039F190E4C2
:100E5000222339F580E000610A29032B092B082B96
:100E6000DB010C93A081B1811196EC92A081B1813C
:100E700080E812968C931297158216820280F38175
:100E8000E02D80EA8183CF91DF910F91EF90CF9099
:100E9000AF908F90089530E08820C9F690E022232B
:100EA000C9F280E2D8CF662341F4DC01ED91FC91D8
:100EB000119780818F7B80830895DC01ED91FC91F7
:100EC00011978081806480830895EF920F93FC01D5
:100ED0006083718342835383222389F480E4082B47
:100EE000DB010C93A081B1811196EC9211970280E5
:100EF000F381E02D80E481830F91EF90089580E6E7
:100F0000EECFEF920F931F93FC0100831183E282D7
:100F100063837483458356832783108611861F91CC
:100F20000F91EF900895CF93DF93FC01A581B681D7
:100F300018968C911897C081D181988194FF37C001
:100F40009B8115960D90BC91A02DA80FB11D9C936F
:100F50008F5FA581B68117969C9117978917A0F08E
:100F600012969C9112970D90BC91A02D15969C9372
:100F7000A581B68191E019969C93199718968C9348
:100F80001897DF91CF91089513960D90BC91A02DE5
:100F9000A80FB11D9C91A081B18113969C93A5814E
:100FA000B68118968C931897DF91CF91089591E0B0
:100FB000948318968C931897DF91CF910895CF93CF
:100FC000DF93FC01DB019481C581D681209729F054
:100FD0008985882361F1992309F5A583B68319963C
:100FE0001C921997148212968C9112970D90BC91B5
:100FF000A02D16968C93A581B68118961C92A5817A
:10100000B68113960D90BC91A02D8C910190F0812A
:10101000E02D838380E0DF91CF910895C281D38159
:101020008C8184FDDACF81E0DF91CF91089582E059
:10103000DF91CF910895FC01A081B18113966C934B
:1010400013970190F081E02D828187FFFDCF83818E
:101050000895CF93DF93FC01EB01209709F44CC076
:10106000658376833A81A881B981109709F442C0DB
:1010700016963C93A581B6814F81442329F180E0E7
:1010800090E013960D90BC91A02DA80FB91F2C9144
:10109000A081B18113962C93A081B18112962C91DD
:1010A000129727FFFBCF13962C91A581B681159639
:1010B0000D90BC91A02DA80FB91F2C9301968417F9
:1010C00020F4A581B681DDCF40E0A581B681CD9128
:1010D000DC911197209719F03D83A581B681189670
:1010E0004C9318970580F681E02D81E08187DF9190
:1010F000CF910895DB01C0CF80E0DF91CF910895BB
:101100001F931FB71F938F931AE08095089410F4D4
:101110008B9802C08B9A000011D110D186951A9538
:10112000B1F78F911F911FBF1F9108953F933FB754
:101130003F9339E09299FECF08D107D106D1889428
:10114000929908943A9511F08795F7CF3F913FBF58
:101150003F910895EF920F93CF93DF93EC0181E0DD
:101160000E94F70686E090E28093A1209093A2204F
:1011700080939F209093A0208298839A8B9A2097A7
:1011800039F181E08093172080E296E064E040E04E
:1011900020E000E052E0E52E0E94DC06C230D105DE
:1011A000A9F1C330D1052CF5C130D10531F480E26D
:1011B00096E060E044E00E94CE068091A200876045
:1011C000E0EAF0E08283DF91CF910F91EF900895F4
:1011D0001092172080E296E064E040E020E000E01A
:1011E00037E0E32E0E94DC06DF91CF910F91EF9064
:1011F0000895C330D10589F0C430D105F1F680E2FD
:1012000096E063E044E00E94CE06D7CF80E296E00D
:1012100061E044E00E94CE06D0CF80E296E062E03A
:1012200044E00E94CE06C9CFEF920F93CF93DF9395
:10123000EC01009739F181E08093172080E296E07D
:1012400064E040E020E000E0E2E0EE2E0E94DC06F8
:10125000C230D105A9F1C330D1052CF5C130D1057B
:1012600031F480E296E060E044E00E94CE06809196
:10127000A2008760E0EAF0E08283DF91CF910F91D6
:10128000EF9008951092172080E296E064E040E02D
:1012900020E000E077E0E72E0E94DC06DF91CF91AE
:1012A0000F91EF900895C330D10589F0C430D10576
:1012B000F1F680E296E063E044E00E94CE06D7CFEC
:1012C00080E296E061E044E00E94CE06D0CF80E26A
:1012D00096E062E044E00E94CE06C9CF80931520DC
:1012E0009093162008951F920F920FB60F9211241B
:1012F0002F933F934F935F936F937F938F939F931E
:10130000AF93BF93EF93FF93F894E0911520F09182
:101310001620309709F009957894FF91EF91BF91CD
:10132000AF919F918F917F916F915F914F913F917D
:101330002F910F900FBE0F901F9018958F938CE8F0
:101340008A95F1F78F91000008958F938CE88A9524
:10135000F1F78F9100000895FC018081807F682B58
:1013600060830895FC018081807F682B60830895ED
:10137000FC018181887F682B61830895FC01818154
:10138000887F682B61830895FC018381807180626E
:10139000862B83830895FC01838180718062862B74
:1013A00083830895FC018181607F682B61830895A8
:1013B000FC0181816073682B61830895FC01818148
:1013C000607F6095682361830895FC01818160736B
:1013D0006095682361830895FC0186818C7F682B6A
:1013E00066830895FC0186818C7F682B668308954F
:1013F000FC018681837F682B66830895FC018681CA
:10140000837F682B66830895FC0187818C7F682B1E
:1014100067830895FC0187818C7F682B678308951B
:10142000FC018781837F682B67830895FC01878196
:10143000837F682B67830895FC0187818F7C682BED
:1014400067830895FC0187818F73682B67830895F4
:10145000FC018081807F80838CE081870895FC017E
:101460008081807F80838CE081870895A0E0B0E058
:10147000ECE3FAE00C94F00CFE0135966191719169
:101480008091A1209091A220DC0113962C911397BA
:10149000286013962C93AF010E94590AE091A12075
:1014A000F091A2202381277F23832096E2E00C94F1
:1014B000090DACE0B0E0EFE5FAE00C94E00C6C0153
:1014C0001B018A01FC0116821782838181FFD1C131
:1014D0002E010894411C511CF6019381F10193FDEA
:1014E000859193FF81911F01882309F4BEC1853244
:1014F00039F493FD859193FF81911F01853229F481
:1015000090E0B6010E94560CE7CFEE24FF2420E0C5
:101510002032B0F48B3269F08C3228F4803251F0F2
:10152000833271F40BC08D3239F0803349F421607D
:101530002CC02260246029C0286027C0206125C0FB
:1015400027FD2CC0382F30533A3098F426FF08C0BE
:101550008E2D880FE82EEE0CEE0CE80EE30E15C073
:101560008F2D880FF82EFF0CFF0CF80EF30E206263
:101570000CC08E3221F426FD78C1206406C08C3662
:1015800011F4206802C0883649F4F10193FD859179
:1015900093FF81911F01882309F0BACF982F9554AA
:1015A000933018F09052933028F40C5F1F4FFFE3F4
:1015B000F9830DC0833631F0833771F0833509F03C
:1015C00060C022C0F801808189830E5F1F4F4201F5
:1015D00071E0A72EB12C16C062E0662E712C600E51
:1015E000711EF8018080918026FF03C06E2D70E08F
:1015F00002C06FEF7FEFC4012C870E944B0C5C018F
:1016000083012C852F7717C052E0652E712C600E58
:10161000711EF8018080918026FF03C06E2D70E05E
:1016200002C06FEF7FEFC4012C870E94400C5C0169
:101630002C852068830123FD20C008C080E290E053
:10164000B6012C870E94560CFA942C858F2D90E0C1
:10165000A816B90698F311C0F40127FD859127FF5C
:1016600081914F0190E0B6012C870E94560C2C8589
:10167000F110FA940894A108B108A114B10461F71B
:10168000F1C0843611F0893649F527FF08C0F8010A
:1016900060817181828193810C5F1F4F09C0F801C5
:1016A00060817181882777FD8095982F0E5F1F4F8D
:1016B0004FE6B42EB22297FF09C0909580957095A1
:1016C00061957F4F8F4F9F4FF0E8BF2AA2012AE01C
:1016D00030E00E94820C782E741845C0853731F4B2
:1016E0003FEEB32EB2222AE030E025C099EFB92EAA
:1016F000B2228F36C1F0803720F4883509F0B5C0AA
:101700000DC0803721F0883709F0AFC002C020E15A
:10171000B22AB4FE0BC084E0B82A08C0B4FE09C0E7
:10172000E6E0BE2A06C028E030E005C020E130E057
:1017300002C020E132E0B7FE08C0F801608171818B
:10174000828193810C5F1F4F07C0F8016081718116
:1017500080E090E00E5F1F4FA2010E94820C782E65
:101760007418FFE7BF22B6FE0BC02EEFB2227E1424
:1017700038F4B4FE07C0B2FC05C08FEEB82202C038
:10178000A72C01C0AE2C8B2D90E0B4FE0DC0FE0145
:10179000E70DF11D2081203319F4E9EEBE2209C0C6
:1017A000A394B2FE06C004C086789070009709F03A
:1017B000A3948B2C9924B3FC14C0B0FE0FC0AF14BB
:1017C00028F4E72CEF0CEA18AF2C08C0E72C06C071
:1017D00080E290E0B6010E94560CA394AF14C0F3CF
:1017E00004C0AF1410F4FA1801C0FF2484FE0FC027
:1017F00080E390E0B6010E94560C82FE1FC081FE7D
:1018000003C088E590E010C088E790E00DC0C401F7
:1018100086789070009791F081FC02C080E201C050
:101820008BE2B7FC8DE290E0B6010E94560C06C038
:1018300080E390E0B6010E94560CEA947E14C0F357
:101840007A94F201E70DF11D808190E0B6010E94CB
:10185000560C7720A9F706C080E290E0B6010E94FE
:10186000560CFA94FF20C1F737CEF6012681378156
:1018700002C02FEF3FEFC9012C96E2E10C94F90C66
:10188000FC010590615070400110D8F7809590954B
:101890008E0F9F1F0895FC01615070400190011050
:1018A000D8F7809590958E0F9F1F08950F931F93E3
:1018B000CF93DF938C01EB018B8181FF1BC082FFF3
:1018C0000DC02E813F818C819D812817390764F4DA
:1018D000E881F9810193E883F98306C0E885F985F9
:1018E000802F0995009731F48E819F8101968E8318
:1018F0009F8302C00FEF1FEFC801DF91CF911F91AF
:101900000F910895FA01AA27283051F1203181F171
:10191000E8946F936E7F6E5F7F4F8F4F9F4FAF4FF7
:10192000B1E03ED0B4E03CD0670F781F891F9A1F0A
:10193000A11D680F791F8A1F911DA11D6A0F711DBE
:10194000811D911DA11D20D009F468943F912AE0CA
:10195000269F11243019305D3193DEF6CF010895B2
:10196000462F4770405D4193B3E00FD0C9F7F6CFE3
:10197000462F4F70405D4A3318F0495D31FD4052AB
:10198000419302D0A9F7EACFB4E0A6959795879541
:1019900077956795BA95C9F7009761057105089520
:1019A0009B01AC010A2E06945795479537952795CC
:1019B000BA95C9F7620F731F841F951FA01D089564
:1019C0002F923F924F925F926F927F928F929F924F
:1019D000AF92BF92CF92DF92EF92FF920F931F933D
:1019E000CF93DF93CDB7DEB7CA1BDB0BCDBFDEBF16
:1019F00009942A88398848885F846E847D848C8421
:101A00009B84AA84B984C884DF80EE80FD800C8129
:101A10001B81AA81B981CE0FD11DCDBFDEBFED01E3
:061A20000895F894FFCFC9
:101A2600FF00FF00FF000000000300000000800828
:041A3600960800000E
:00000001FF
