:107000000C942E380C944B380C944B380C944B3811
:107010000C944B380C944B380C944B380C944B38E4
:107020000C944B380C944B380C944B380C944B38D4
:107030000C944B380C944B380C944B380C944B38C4
:107040000C944B380C944B380C944B380C944B38B4
:107050000C944B380C944B380C944B3811241FBEB5
:10706000CFEFD8E0DEBFCDBF11E0A0E0B1E0E6E0B9
:10707000F4E702C005900D92A630B107D9F711E0F0
:10708000A6E0B1E001C01D92AC30B107E1F70E946B
:1070900068380C94013A0C940038982F8091C00005
:1070A00085FFFCCF9093C60008958091C00087FFB4
:1070B000FCCF8091C60008958EB184708EB981E0B6
:1070C00085BF15BEE0910601F0910701099508956D
:1070D0004F925F926F927F928F929F92AF92BF92E8
:1070E000CF92DF92EF92FF920F931F93CF93DF9394
:1070F0001092C50084E18093C40086E08093C200B2
:1071000088E18093C10082E60E944D386A98729AA5
:1071100020E04FEF5FEFCA010197F1F78091C000C7
:1071200087FF04C08091C600803721F02F5F253093
:1071300091F74CC180E70E944D3863E0762E6624BB
:10714000639455E0552E41E1442E0E945538863512
:1071500009F478C08735C0F48C3409F4F3C08D3459
:1071600050F4823409F480C0853409F4EBC08134D2
:1071700009F028C12AC0833519F1843509F44CC0BF
:10718000803509F01FC1DEC0853681F1863648F4AE
:107190008136C9F0823609F45FC0883509F012C122
:1071A00058C0803709F453C0813720F4873609F07E
:1071B00009C1CAC0833799F1843709F003C137C0C8
:1071C000C0E0D1E03CC089E5FEC00E945538182FD0
:1071D0000E945538B12EAA2490E08A299B299093C9
:1071E000090180930801880F991F8DC0E0E0F0E04D
:1071F0000AC007B600FCFDCFF999FECF7092570088
:10720000E895E058FF4F20E7E030F20790F3F09365
:107210000B01E0930A0196C00E94553893C08DE09F
:107220000E944D3885E90E944D388EE1CCC08CE338
:107230000E944D3880E0C7C00E944D382196888159
:107240008823D1F780E30E944D3882E3BCC083E5F8
:10725000BAC00E945C3876C089E50E944D3880E053
:107260000E944D3880E8AFC00E9455380E945538C2
:10727000082F813808F0A6C00E945538863409F0DE
:1072800047C080910A0190910B018150904718F0FE
:1072900080E00E944D38C0900A01D0900B0107B6E3
:1072A00000FCFDCFE02EE694E601FF2412C00E9410
:1072B0005538082F0E945538982E882410E0082948
:1072C0001929FE01080160925700E89511242296C1
:1072D000F394FE1460F38E2D90E0880F991F8C0DAF
:1072E0009D1D07B600FCFDCFF999FECFE0910A0184
:1072F000F0910B0150925700E89507B600FCFDCFC6
:1073000040925700E89590930B0180930A011AC0B0
:10731000853409F057C010E013C00E945538682F1B
:1073200080910801909109010E94F439809108012F
:1073300090910901019690930901809308011F5FC4
:10734000101758F38DE03FC00E9455380E94553801
:10735000E82E0E9455388634E1F4FF2417C0E091EE
:107360000A01F0910B0105911491802F0E944D3874
:10737000812F0E944D3880910A0190910B01029655
:1073800090930B0180930A01F2E0FF0EFE1438F394
:10739000DCCE8534B9F410E012C0809108019091E0
:1073A00009010E94EC390E944D38809108019091AA
:1073B0000901019690930901809308011F5F1E1532
:1073C00060F3C3CE8FE30E944D38BFCE81E60E94AA
:1073D0004D380E945C38AECEF999FECF92BD81BD8A
:1073E000F89A992780B50895262FF999FECF92BD76
:1073F00081BD20BD0FB6F894FA9AF99A0FBE019696
:067400000895F894FFCF8F
:0674060046444C20760014
:040000030000700089
:00000001FF
