:100000000C942E000C9459020C944B000C944B0051
:100010000C94CC010C944B000C944B000C94B70046
:100020000C944B000C944B000C944B000C94F60178
:100030000C944B000C9425020C944B000C944B0038
:100040000C944B000C944B000C944B000C944B0004
:100050000C944B000C944B000C944B0011241FBECD
:10006000CFEFD8E0DEBFCDBF15E0A0E0B1E0E6E81D
:10007000F7E302C005900D92AA3EB107D9F717E049
:10008000AAEEB5E001C01D92AA32B107E1F70E94C5
:10009000F7040C94C11B0C9400008FEF81B912B8C7
:1000A00085B18F7085B984B18F7084B918B817B8CD
:1000B0001BB880EC8AB911BA10BA81E084BB8DE11B
:1000C00083BB0895919903C010920101089581E0C6
:1000D00080930101089581E083BB84BB919903C0A3
:1000E00010920101089580930101089580E880BF76
:1000F00010927A000895F894EEE6F0E080818E7F09
:100100008083E0E7F0E080818D7F8083E1ECF0E0A8
:100110008081806880838DE18093640083B7817FD4
:1001200083BF83B7816083BF85B7806685BF8F7DBE
:1001300085BF7894889581E18093640083B78E7F32
:1001400083BFEEE6F0E0808181608083E0E7F0E04D
:10015000808182608083E1ECF0E080818068808330
:10016000789481E1809364001092030108951F92B6
:100170000F920FB60F921124AF92BF92CF92DF92DF
:10018000EF92FF920F931F932F933F934F935F93A1
:100190008F939F93AF93BF9312B81BBC80910201C2
:1001A000813099F1809114068F5F809314068091BD
:1001B0001406883C09F490C0F69B3CC0F698F79969
:1001C0003CC080E68093000180911006909111065A
:1001D000A0911206B0911306805A9F4FAF4FBF4FA8
:1001E0008093100690931106A0931206B093130605
:1001F00080911406843609F475C08EB3807F8EBB5F
:100200008EB38EBB81E08BBD1ABCBF91AF919F9125
:100210008F915F914F913F912F911F910F91FF907F
:10022000EF90DF90CF90BF90AF900F900FBE0F90E8
:100230001F901895F69AF79BC4CF80E38093000136
:10024000289A80911406843609F492C08091100691
:1002500090911106A0911206B0911306805A9F4FFB
:10026000AF4FBF4F8093100690931106A0931206D4
:10027000B09313062091100630911106409112069A
:1002800050911306E0901006F090110600911206AE
:1002900010911306A0901006B0901106C09012069F
:1002A000D0901306289883E08EBD0DB407FEFDCFD5
:1002B000CA01AA27BB278EBD0DB407FEFDCFBB2701
:1002C000A12F902F8F2D8EBD0DB407FEFDCFAEBC9C
:1002D0000DB407FEFDCF91CF1092080681E0809308
:1002E000020193CF289A80910C0690910D06A0915F
:1002F0000E06B0910F068093100690931106A093FE
:100300001206B093130620910C0630910D06409111
:100310000E0650910F06E0900C06F0900D0600912D
:100320000E0610910F06A0900C06B0900D06C0901E
:100330000E06D0900F06289883E08EBD0DB407FE00
:10034000FDCFCA01AA27BB278EBD0DB407FEFDCF86
:10035000BB27A12F902F8F2D8EBD0DB407FEFDCF93
:10036000AEBC0DB407FEFDCF81E08093080645CFFB
:1003700081E08093080680910C0690910D06A09173
:100380000E06B0910F068093100690931106A0936D
:100390001206B09313066ECF1F920F920FB60F92F4
:1003A00011248F939F9384B18F7084B917B88AB149
:1003B000837C8AB910BA12B89091FA0584B1892B5E
:1003C00084B99091FB0597B99091FC058AB1892B6E
:1003D0008AB99091FD0590BB8BB582B9F5989F9134
:1003E0008F910F900FBE0F901F9018951F920F9234
:1003F0000FB60F9211248F939F93809103069091D3
:10040000040696FD10C080910306909104060196A3
:1004100090930406809303069F918F910F900FBED7
:100420000F901F90189581E0809303018093020143
:1004300010920406109203061092FE059F918F9170
:100440000F900FBE0F901F9018951F920F920FB62E
:100450000F9211242F933F934F935F936F937F934A
:100460008F939F93AF93BF93EF93FF9381E180931B
:10047000640012B8F8940E94D1158091C00087FFE3
:1004800006C08091C6008091C00087FDFACF7894A5
:10049000FF91EF91BF91AF919F918F917F916F915C
:1004A0005F914F913F912F910F900FBE0F901F9032
:1004B00018951F920F920FB60F921124AF92BF9210
:1004C000CF92DF92EF92FF920F931F932F933F9360
:1004D0004F935F936F937F938F939F93AF93BF934C
:1004E000EF93FF931092B200109202011092030159
:1004F0001092140680910306909104068857954047
:1005000008F402C180910306909104068850974038
:1005100008F0E2C089E28093B3001092B20081E05B
:100520008093FE05F79A8091090690910A06892B1F
:1005300009F406C1289A8091090690910A0601974C
:1005400090930A06809309061092080680910B0684
:100550008F5F80930B062091DA063091DB06809145
:100560000B0690E08217930708F0D8C0E0910B06C5
:10057000F0E0EE0FFF1FE851F94F6081718180E0DC
:1005800090E020E030E340E050E00E942B186093C0
:100590000C0670930D0680930E0690930F068091C3
:1005A0000C0690910D06A0910E06B0910F06809357
:1005B000100690931106A0931206B0931306F799B4
:1005C0002DC12091100630911106409112065091D4
:1005D0001306E0901006F09011060091120610919B
:1005E0001306A0901006B0901106C0901206D0908D
:1005F0001306289883E08EBD0DB407FEFDCFCA0117
:10060000AA27BB278EBD0DB407FEFDCFBB27A12FA8
:10061000902F8F2D8EBD0DB407FEFDCFAEBC0DB457
:1006200007FEFDCF8EB3807F8EBB8EB38EBB81E085
:100630008BBD1ABCF799EEC080E6809300018091D3
:1006400003069091040660910306709104062091C0
:1006500003063091040640910306509104069695D6
:10066000879596958795329522952F7023273F7011
:100670002327820F931F860F971F569547955295F4
:1006800042954F7045275F704527841B950B9093CB
:100690008900809388001092850010928400109247
:1006A000040610920306FF91EF91BF91AF919F91C5
:1006B0008F917F916F915F914F913F912F911F91FA
:1006C0000F91FF90EF90DF90CF90BF90AF900F9081
:1006D0000FBE0F901F90189580910306909104060D
:1006E000805F9A40F0F08091030690910406805E4E
:1006F0009E4208F0ABC088E38093B3001092B20032
:100700001092FE05F7980FCF81E0809302011092BE
:100710000406109203061092FE05C5CF10920B0638
:1007200025CF84E28093B3001092B2001092FE05B0
:10073000F79A8091090690910A06892B09F0FACE62
:100740008AED96E00E946408882309F47BC0289A09
:100750001092080680E390E090930A0680930906C1
:1007600010920B066091E8067091E90680E090E037
:1007700020E030E340E050E00E942B1860930C062C
:1007800070930D0680930E0690930F0680910C06D1
:1007900090910D06A0910E06B0910F068093100661
:1007A00090931106A0931206B0931306F7995AC0BE
:1007B00020911006309111064091120650911306B7
:1007C000E0901006F09011060091120610911306A9
:1007D000A0901006B0901106C0901206D09013069B
:1007E000289883E08EBD0DB407FEFDCFCA01AA276D
:1007F000BB278EBD0DB407FEFDCFBB27A12F902FC9
:100800008F2D8EBD0DB407FEFDCFAEBC0DB407FE1F
:10081000FDCF08CF80E38093000111CF80911006B7
:1008200090911106A0911206B0911306C096A11DD9
:10083000B11D8093100690931106A0931206B093F9
:100840001306BFCE81E080930201ECCE81E080935D
:100850000301809302011092040610920306109285
:10086000FE0521CF8091100690911106A0911206ED
:10087000B0911306C096A11DB11D809310069093F0
:100880001106A0931206B093130692CFF5980E941A
:100890006F0C8FEF81B912B885B18F7085B984B1B3
:1008A0008F7084B918B817B81BB880EC8AB911BA20
:1008B00010BA91E094BB8DE183BB93BB94BB91993B
:1008C00093C01092010184E190E00E94290680917A
:1008D0006900826080936900E89A8091C100806815
:1008E0008093C100809181008A6080938100809113
:1008F0006F00826080936F008FEF9FEF909389006D
:100900008093880084B5826084BD21E020936E00CE
:100910008091B0008A608093B00080917000826006
:10092000809370008AE796E0909300068093FF051D
:100930008AE196E0909302068093010689E4809311
:10094000B30087EB8093B20080E6809300018EB302
:10095000807F8EBB8EB38EBB2BBD109264008091C6
:10096000640081608093640080E880BF10927A0008
:10097000F89480916E008E7F80936E00809170005D
:100980008D7F809370008091C10080688093C1004A
:100990008DE18093640083B7817F83BF83B78160DB
:1009A00083BF85B7806685BF8F7D85BF7894889526
:1009B00081E18093640083B78E7F83BF80916E0056
:1009C000816080936E0080917000826080937000DF
:1009D0008091C10080688093C100789481E1809308
:1009E0006400109203010895909301016CCF0F935E
:1009F0001F93F6980E94460478941DE101E161E09E
:100A000070E0A0E3B0E020E630E040E950E0809103
:100A10000201882309F442C01BBC8091030181308C
:100A2000B1F7F89480916E008E7F80936E00809174
:100A300070008D7F809370008091C10080688093EA
:100A4000C1001093640083B7817F83BF83B7816047
:100A500083BF85B7806685BF8F7D85BF7894889575
:100A60000093640083B78E7F83BF80916E008160A6
:100A700080936E00809170008260809370008091FE
:100A8000C10080688093C100789400936400109244
:100A9000030180910201882309F0BECF8EB38F5FDE
:100AA000877E8EBB1BBC8EB38770FB0102C0EE0F2E
:100AB000FF1F8A95E2F7EBBD8EB390E087709070D0
:100AC000892B21F48AB58F5F8F708ABD0E94B50B88
:100AD000F59AF79965C080910001813308F03FC015
:100AE00080910001882309F1F59B1FC080910001CE
:100AF0008823D9F01EBC0DB407FEFDCFF69973C054
:100B000080910806882309F090C080910001F901C6
:100B1000E81BF1098EB5E65EF94F808380910001F4
:100B2000815080930001F599E1CFF59B70CFF59945
:100B3000FCCF6DCFF69940C080910806882309F05C
:100B400060C080910001F901E81BF1098EB5E65EF5
:100B5000F94F808380910001815080930001F59BC3
:100B6000E4CF80910001813300F31EBC0DB407FE79
:100B7000FDCFE0CF9EB58091FE05882311F09695BC
:100B80009777F69927C080910001F901E81BF109D8
:100B9000E65EF94F908380910001815080930001BF
:100BA000F59BC3CF80910001882309F4BECF1EBC02
:100BB0000DB407FEFDCFDECF80910806882359F5DE
:100BC00080910001F901E81BF1098EB5E658F94F53
:100BD0008083C0CF80910001F901E81BF109E6583C
:100BE000F94F9083D8CF80910806882341F58091F2
:100BF0000001F901E81BF1098EB5E658F94F808331
:100C00008DCF80910001FA01E81BF1098EB5E65EF7
:100C1000F94F80839FCF80910001FA01E81BF10911
:100C20008EB5E658F94F808395CF80910001FD0184
:100C3000E81BF1098EB5E65EF94F80836FCF809196
:100C40000001FD01E81BF1098EB5E658F94F8083DC
:100C500065CF2EEF2DB98093C4009093C50088E135
:100C60008093C10086E08093C20008958091C00007
:100C700087FFFCCF8091C6000895982F8091C00017
:100C800085FFFCCF9093C6000895DC01EC91EE2324
:100C900071F090E09F5F8091C00085FFFCCFE093F2
:100CA000C600FD01E90FF11DE081EE2399F70895DB
:100CB000289A089508951F93CF93DF93009791F09A
:100CC000EC01D070192F892F0E94790C8C2F0E9473
:100CD000790C312F20E02C2B3D2BC901DF91CF91D6
:100CE0001F91089580E00E94790C182F80E00E94E7
:100CF000790CC82FD0E0EDCFEF92FF920F931F93A6
:100D0000CF93DF93289AA0E0B0E0BC01CD0120E0B2
:100D100030E340E050E00E942B187B018C012898C2
:100D200083E00E94790CC801AA27BB270E94790C96
:100D3000BB27A12F902F8F2D0E94790C8E2D0E9402
:100D4000790CC0E0D0E080E00E94790C0E943D0662
:100D5000219685E2C038D807B1F7289ADF91CF9164
:100D60001F910F91FF90EF9008958F929F92BF92E5
:100D7000CF92DF92EF92FF920F931F93CF93DF9367
:100D80004C016B01FC01E080F18002811381289A03
:100D9000289883E00E94790CC801AA27BB270E94EB
:100DA000790CBB27A12F902F8F2D0E94790C8E2DAF
:100DB0000E94790C80E00E94790C182F80E00E943C
:100DC000790C312F20E0C82FD0E0C22BD32BBC2EC2
:100DD000F0E2FC1708F483C0F601C083118280E0C2
:100DE0000E94790CF601828380E00E94790CF60162
:100DF000838380E00E94790CF601848380E00E9466
:100E0000790CF601858380E00E94790CF6018683D7
:100E100080E00E94790CF601878380E00E94790CC3
:100E2000F601808780E00E94790CF601818780E0DE
:100E30000E94790CF601828780E00E94790CF6010D
:100E4000838780E00E94790CF601848780E00E940D
:100E5000790CF6018587CC23C1F0760100E080E0B3
:100E60000E94790C182F80E00E94790CD12FC0E0ED
:100E700090E08C2B9D2BF701978786870F5F22E0F0
:100E800030E0E20EF31E0B1550F380E00E94790C67
:100E9000EEE4F0E0CE0EDF1EF60181936F0180E0FC
:100EA0000E94790CF6018083289AF4018081918157
:100EB000A281B381805B9F4FAF4FBF4F80839183EF
:100EC000A283B38381E0DF91CF911F910F91FF90B7
:100ED000EF90DF90CF90BF909F908F900895289AC9
:100EE00080E0F1CF2F923F924F925F926F927F926C
:100EF0008F929F92AF92BF92CF92DF92EF92FF922A
:100F00000F931F93DF93CF93CDB7DEB7C45BD04071
:100F10000FB6F894DEBF0FBECDBFE12CA0ECFA2EC9
:100F2000AFE30A2F112DE982FA820B831C8384E040
:100F300091E00E944506E982FA820B831C83CC244F
:100F4000DD244E010894811C911CF5E06F2E712C5C
:100F50006C0E7D1EE5E5EE2EF12CEC0EFD1E7DE205
:100F6000272E71E0372E63E5462E512C4C0E5D1E68
:100F70005AE4A52E51E0B52EC401B3010E94B50676
:100F8000882309F47FC00894C11CD11C8DB79EB77B
:100F90000E970FB6F8949EBF0FBE8DBFEDB7FEB78C
:100FA0003196ADB7BEB71296FC92EE92119733828E
:100FB0002282D582C48287E090E08C0F9D1F9783A8
:100FC00086838B899C8991878087D2018C918287C7
:100FD00013868D819E81958784870E94E918EDB7DD
:100FE000FEB73E960FB6F894FEBF0FBEEDBFC70129
:100FF0000E94450680E491E00E9445068D819E8115
:10100000892B89F110E0A0E0B0E000D000D000D042
:101010002DB73EB72F5F3F4FEDB7FEB7F282E182AB
:10102000F901B382A2821796AA0FBB1FA80DB91DA2
:1010300014968D919C911597958384830E94E9184D
:101040008DB79EB706960FB6F8949EBF0FBE8DBFA4
:10105000C7010E9445061F5FA12FB0E08D819E81D0
:10106000A817B90790F28FE491E00E944506D0924C
:10107000A801C092A701C401B3010E94B50688234C
:1010800009F081CFCD28E9F481E080931706CC5494
:10109000DF4F0FB6F894DEBF0FBECDBFCF91DF910B
:1010A0001F910F91FF90EF90DF90CF90BF90AF9086
:1010B0009F908F907F906F905F904F903F902F9078
:1010C000089510921706E3CFCF93DF93EC0183EAE4
:1010D00091E0BE010E94B506882321F081E0DF91F6
:1010E000CF91089580E090ECAFE3B0E08093A3014E
:1010F0009093A401A093A501B093A60183EA91E087
:10110000BE010E94B506882319F010921706E6CF9B
:1011100081E08093170680E0DF91CF9108956F9270
:101120007F928F929F92BF92CF92DF92EF92FF9227
:101130000F931F93CF93DF934C016B013A01FC0196
:10114000E080F18002811381289A289883E00E9430
:10115000790CC801AA27BB270E94790CBB27A12FB5
:10116000902F8F2D0E94790C8E2D0E94790C80E09B
:101170000E94790C182F80E00E94790C312F20E01A
:10118000C82FD0E0C22BD32BBC2EF0E2FC1708F402
:1011900063C0F601C083118280E00E94790CF601E1
:1011A000828380E00E94790CF601838380E00E94B4
:1011B000790CF601848380E00E94790CF601858326
:1011C00080E00E94790CF601868380E00E94790C11
:1011D000F601878380E00E94790CF601808780E029
:1011E0000E94790CF601818780E00E94790CF6015B
:1011F000828780E00E94790CF601838780E00E945C
:10120000790CF601848780E00E94790CF6018587CD
:10121000C6010296B3010E949C18009701F1289A1A
:10122000F40180819181A281B381805B9F4FAF4F98
:10123000BF4F80839183A283B38382E0DF91CF91FC
:101240001F910F91FF90EF90DF90CF90BF909F90F4
:101250008F907F906F900895289A80E0EFCFCC23F5
:10126000C1F0760100E080E00E94790C182F80E048
:101270000E94790CD12FC0E090E08C2B9D2BF701C0
:10128000978786870F5F22E030E0E20EF31E0B1592
:1012900050F380E00E94790CEEE4F0E0CE0EDF1E09
:1012A000F60181936F0180E00E94790CF601808342
:1012B000289AF40180819181A281B381805B9F4F44
:1012C000AF4FBF4F80839183A283B38381E0B6CFBA
:1012D0002F923F924F925F926F927F928F929F9246
:1012E000AF92BF92CF92DF92EF92FF920F931F9334
:1012F000DF93CF93CDB7DEB7C656D0400FB6F89484
:10130000DEBF0FBECDBF3C016B0180E090ECAFE3D0
:10131000B0E089839A83AB83BC832E010894411C7F
:10132000511CC201A3010E948F08882309F4B6C092
:1013300096012E5F3F4FA7963FAF2EAFA79710E0C5
:1013400035E0A32EB12CAC0EBD1E2EE4222E312C86
:101350002C0C3D1C93E7892E91E0992E08C0C20108
:10136000B601A3010E948F08882309F47AC0813056
:10137000B1F78DB79EB70A970FB6F8949EBF0FBE10
:101380008DBFEDB7FEB73196ADB7BEB71296BC9222
:10139000AE92119722E531E033832283A7968EAD7A
:1013A0009FADA79795838483D1018C918683178203
:1013B000D6018D919C91918780870E94E918EDB7A5
:1013C000FEB73A960FB6F894FEBF0FBEEDBFC5014B
:1013D0000E9445068CE691E00E944506D6018D915B
:1013E0009C91892B89F1760100E010E000D000D0BB
:1013F00000D0EDB7FEB73196ADB7BEB71296BC922E
:10140000AE92119793828282D7011E968D919C9104
:101410001F97958384830E94E918EDB7FEB736962F
:101420000FB6F894FEBF0FBEEDBFC5010E94450682
:101430000F5F1F4F22E030E0E20EF31ED6018D91C8
:101440009C910817190790F287E791E00E944506E2
:1014500011E0C201B601A3010E948F08882309F0A0
:1014600086CF1123D9F081E0CA59DF4F0FB6F89427
:10147000DEBF0FBECDBFCF91DF911F910F91FF90C7
:10148000EF90DF90CF90BF90AF909F908F907F9024
:101490006F905F904F903F902F9008958CE791E070
:1014A0000E94450680E0E0CF2F923F924F925F92DC
:1014B0006F927F928F929F92AF92BF92CF92DF9264
:1014C000EF92FF920F931F93DF93CF93CDB7DEB7C9
:1014D000CC5CD0400FB6F894DEBF0FBECDBF4C0140
:1014E00080E090ECAFE3B0E089839A83AB83BC8368
:1014F0008DE1482E512C4C0E5D1E3E010894611C5E
:10150000711CC301B201A4010E948F08882309F451
:1015100021C110E00DE6C02ED12CCC0EDD1EB2E5AF
:101520002B2EB1E03B2EA3E7AA2EA1E0BA2E08C0D5
:10153000C301B201A4010E948F08882309F475C079
:101540008130B1F78DB79EB70A970FB6F8949EBF5A
:101550000FBE8DBFEDB7FEB73196ADB7BEB71296D1
:10156000DC92CE921197338222828FE190E08C0F31
:101570009D1F95838483AC968FADAC97868317822D
:101580008D8D9E8D918780870E94E918ADB7BEB77B
:101590001A960FB6F894BEBF0FBEADBFC6010E942B
:1015A00045068CE691E00E9445068D8D9E8D892B27
:1015B00079F1FBE2EF2EF12CEC0EFD1E00E010E0C5
:1015C00000D000D000D0EDB7FEB73196ADB7BEB7B2
:1015D0001296DC92CE921197B382A282D7018D919E
:1015E0009D917D01958384830E94E918EDB7FEB734
:1015F00036960FB6F894FEBF0FBEEDBFC6010E942F
:1016000045060F5F1F4F8D8D9E8D08171907C0F27D
:1016100087E791E00E94450611E0C301B201A401F1
:101620000E948F08882309F08BCF112309F492C000
:101630008D8D9E8D892B09F472C0EBE2AE2EB12CFC
:10164000AC0EBD1ECC24DD2475E0872E912C8C0EB3
:101650009D1E6AE8662E61E0762E8DB79EB70897CC
:101660000FB6F8949EBF0FBE8DBFEDB7FEB7319693
:10167000ADB7BEB712969C928E921197738262821A
:10168000D582C482D5018D919C91978386830E94D7
:10169000E918EDB7FEB738960FB6F894FEBF0FBE47
:1016A000EDBFC4010E944506289AD5016D917C9139
:1016B00080E090E020E030E340E050E00E942B1812
:1016C0007B018C01289883E00E94790CC801AA272D
:1016D000BB270E94790CBB27A12F902F8F2D0E9432
:1016E000790C8E2D0E94790C00E010E080E00E94C1
:1016F000790C0E943D060F5F1F4FB5E200381B07B3
:10170000A9F7289A0894C11CD11CE2E0F0E0AE0EC3
:10171000BF1E8D8D9E8DC816D90608F49ECF81E020
:10172000C453DF4F0FB6F894DEBF0FBECDBFCF91CD
:10173000DF911F910F91FF90EF90DF90CF90BF90BE
:10174000AF909F908F907F906F905F904F903F9061
:101750002F9008958CE791E00E944506E0CFD09647
:1017600000270093FB050C94180C1F920F920FB6E4
:101770000F921124BF93AF930F932F933F934F93E7
:101780002EB32770220F3AB54EB3407419F0AAE772
:10179000B6E011F4AAE1B6E0A20FB11D0EB30078D5
:1017A000F1F64D91242F22952F703217011D000F55
:1017B0004F703417011D000F4D91242F22952F706B
:1017C0003217011D000F4F703417011D000F1E96B8
:1017D0004D91242F22952F703217011D000F4F704D
:1017E0003417011D000F4D91242F22952F703217B1
:1017F000011D000F4F703417011D0093FB051E964D
:1018000000274D91242F22952F703217011D000FB4
:101810004F703417011D000F4D91242F22952F700A
:101820003217011D000F4F703417011D000F1E9657
:101830004D91242F22952F703217011D000F4F70EC
:101840003417011D000F4D91242F22952F70321750
:10185000011D000F4F703417011D0093FD051E96EA
:1018600000274D91242F22952F703217011D000F54
:101870004F703417011D000F4D91242F22952F70AA
:101880003217011D000F4F703417011D000F000F9C
:101890000093FC051E9600274D91242F22952F7052
:1018A0003217011D000F4F703417011D000F4D91AD
:1018B000242F22952F703217011D000F4F703417FF
:1018C000011D02950093FA054F913F912F910F91C1
:1018D000AF91BF910F900FBE0F901F90089584B1EC
:1018E000876084B92B9A289A80E58CBD81E88DBDEC
:1018F00008958EBD0DB407FEFDCF8EB50895CF932C
:10190000DF93FC01DB01EA0128988FE98EBD0DB45D
:1019100007FEFDCF8EB51EBC0DB407FEFDCF8EB504
:1019200080831EBC0DB407FEFDCF8EB58C931EBC0C
:101930000DB407FEFDCF8EB588831EBC0DB407FE27
:10194000FDCF8EB5F9018083289ADF91CF9108955C
:101950009B01AC01289883E08EBD0DB407FEFDCF3E
:101960008EB5CA01AA27BB278EBD0DB407FEFDCFD9
:101970008EB5BB27A52F942F832F8EBD0DB407FEE8
:10198000FDCF8EB52EBD0DB407FEFDCF8EB51EBCAE
:101990000DB407FEFDCF8EB5289A0895289885E0EE
:1019A0008EBD0DB407FEFDCF8EB58BEE91E0019795
:1019B000F1F71EBC0DB407FEFDCF8EB5289A089531
:1019C0009C0140E050E0ECE0220F331F441F551F04
:1019D000EA95D1F7289886E08EBD0DB407FEFDCFBD
:1019E0008EB5289A289886E38EBD0DB407FEFDCFEC
:1019F0008EB5CA01AA27BB278EBD0DB407FEFDCF49
:101A00008EB5BB27A52F942F832F8EBD0DB407FE57
:101A1000FDCF8EB52EBD0DB407FEFDCF8EB5289A35
:101A200080E090E60197F1F765E02BEE31E040E0D1
:101A300050E628986EBD0DB407FEFDCF8EB5C901E6
:101A40000197F1F71EBC0DB407FEFDCF8EB5289AA5
:101A500080FF04C0CA010197F1F7EBCF08959C0104
:101A600040E050E0BCE0220F331F441F551FBA95E1
:101A7000D1F7289886E08EBD0DB407FEFDCF8EB558
:101A8000289A289889E38EBD0DB407FEFDCF8EB548
:101A9000CA01AA27BB278EBD0DB407FEFDCF8EB5A8
:101AA000BB27A52F942F832F8EBD0DB407FEFDCF2E
:101AB0008EB52EBD0DB407FEFDCF8EB5289A80E001
:101AC00090EC0197F1F765E02BEE31E040E050E655
:101AD00028986EBD0DB407FEFDCF8EB5C9010197E4
:101AE000F1F71EBC0DB407FEFDCF8EB5289A80FF1E
:101AF00004C0CA010197F1F7EBCF08959C0140E0C3
:101B000050E06CE0220F331F441F551F6A95D1F738
:101B1000289886E08EBD0DB407FEFDCF8EB5289ABD
:101B2000289880E28EBD0DB407FEFDCF8EB5CA01A8
:101B3000AA27BB278EBD0DB407FEFDCF8EB5BB27F0
:101B4000A52F942F832F8EBD0DB407FEFDCF8EB52C
:101B50002EBD0DB407FEFDCF8EB5289A80E090E62D
:101B60000197F1F765E02BEE31E040E050E6289870
:101B70006EBD0DB407FEFDCF8EB5C9010197F1F71B
:101B80001EBC0DB407FEFDCF8EB5289A80FF04C0A1
:101B9000CA010197F1F7EBCF08950F931F938B01C3
:101BA0009C01289886E08EBD0DB407FEFDCF8EB552
:101BB000289A289882E08EBD0DB407FEFDCF8EB521
:101BC000C901AA27BB278EBD0DB407FEFDCF8EB578
:101BD000BB27A32F922F812F8EBD0DB407FEFDCF03
:101BE0008EB50EBD0DB407FEFDCF8EB54EBD0DB446
:101BF00007FEFDCF8EB5289A55E02BEE31E041E48B
:101C000028985EBD0DB407FEFDCF8EB5C9010197C2
:101C1000F1F71EBC0DB407FEFDCF8EB5289A80FFEC
:101C200004C0842F8A95F1F7EBCF1F910F9108958F
:101C3000FF920F931F93CF93DF9320E030E040E0BB
:101C400050E006E019E3F12EC0E0D0EC6BEE71E05D
:101C5000E0E0F0E615E028980EBD0DB407FEFDCFDC
:101C60008EB5289A2898FEBC0DB407FEFDCF8EB520
:101C7000CA01AA27BB278EBD0DB407FEFDCF8EB5C6
:101C8000BB27A52F942F832F8EBD0DB407FEFDCF4C
:101C90008EB51EBC0DB407FEFDCF8EB5289ACE01C1
:101CA0000197F1F728981EBD0DB407FEFDCF8EB544
:101CB000CB010197F1F71EBC0DB407FEFDCF8EB529
:101CC000289A80FF04C0CF010197F1F7EBCF205095
:101CD000304F4F4F5F4F203080E0380780E4480797
:101CE00080E0580709F0B7CFDF91CF911F910F9196
:101CF000FF900895FF920F931F9320E030E040E0A3
:101D000050E006E066E3F62EE0E0F0E66BEE71E010
:101D100015E028980EBD0DB407FEFDCF8EB5289AAC
:101D20002898FEBC0DB407FEFDCF8EB5CA01AA27C8
:101D3000BB278EBD0DB407FEFDCF8EB5BB27A52FEB
:101D4000942F832F8EBD0DB407FEFDCF8EB51EBC24
:101D50000DB407FEFDCF8EB5289ACF010197F1F79C
:101D600028981EBD0DB407FEFDCF8EB5CB0101979F
:101D7000F1F71EBC0DB407FEFDCF8EB5289A80FF8B
:101D800004C0CF010197F1F7EBCF2050304F4F4FF8
:101D90005F4F203080E0380780E4480780E0580734
:101DA00009F0B7CF1F910F91FF900895FF920F9305
:101DB0001F93CF93DF9320E030E040E050E006E057
:101DC00019E3F12EC0E0D0EC6BEE71E0E0E0F0E65C
:101DD00015E028980EBD0DB407FEFDCF8EB5289AEC
:101DE0002898FEBC0DB407FEFDCF8EB5CA01AA2708
:101DF000BB278EBD0DB407FEFDCF8EB5BB27A52F2B
:101E0000942F832F8EBD0DB407FEFDCF8EB51EBC63
:101E10000DB407FEFDCF8EB5289ACE010197F1F7DC
:101E200028981EBD0DB407FEFDCF8EB5CB010197DE
:101E3000F1F71EBC0DB407FEFDCF8EB5289A80FFCA
:101E400004C0CF010197F1F7EBCF2050304F4F4F37
:101E50005F4F203080E0380780E4480780E0580773
:101E600009F0B7CF289886E08EBD0DB407FEFDCFF0
:101E70008EB5289A289880E68EBD0DB407FEFDCF5A
:101E80008EB5289A65E02BEE31E040E050E62898C8
:101E90006EBD0DB407FEFDCF8EB5C9010197F1F7F8
:101EA0001EBC0DB407FEFDCF8EB5289A80FF04C07E
:101EB000CA010197F1F7EBCFDF91CF911F910F91FD
:101EC000FF90089508958F929F92AF92BF92DF92F4
:101ED000EF92FF920F931F93DF93CF93CDB7DEB7AF
:101EE000C455D0400FB6F894DEBF0FBECDBF80E022
:101EF00090ECAFE3B0E089839A83AB83BC83DD24AD
:101F000025E0A22EB12CAC0EBD1E4E010894811C02
:101F1000911C95E5E92EF12CEC0EFD1EC401B501D6
:101F20000E94B506882389F08501F80181918F010F
:101F30000E943D0680E5D82E0E151F05B1F7C4019D
:101F4000B5010E94B506882379F7DD2021F489EADE
:101F500091E00E944506CC5ADF4F0FB6F894DEBFE1
:101F60000FBECDBFCF91DF911F910F91FF90EF90EA
:101F7000DF90BF90AF909F908F9008950F931F9325
:101F8000DF93CF93CDB7DEB7C054D0400FB6F894EF
:101F9000DEBF0FBECDBF8DB79EB708970FB6F894C2
:101FA0009EBF0FBE8DBFEDB7FEB731968E010F5F9E
:101FB0001F4FADB7BEB712961C930E93119781EBCE
:101FC00091E09383828380E190E09583848388EC21
:101FD00090E0978386830E94E9188DB79EB7089694
:101FE0000FB6F8949EBF0FBE8DBFC8010E94450674
:101FF000C05CDF4F0FB6F894DEBF0FBECDBFCF91F0
:10200000DF911F910F9108954F925F926F927F928F
:102010009F92AF92BF92CF92DF92EF92FF920F9377
:102020001F93DF93CF93CDB7DEB7C654D0400FB622
:10203000F894DEBF0FBECDBF87EC91E00E9445064D
:102040000E94D60E80ED91E00E9445060E94180E77
:1020500020E030E04BEE51E0CA010197F1F72F5F2D
:102060003F4F8CE920343807B9F78CED91E00E949E
:102070004506EE24FF2487013E010894611C711C73
:1020800046EEC42E41E0D42E13C0C801B7014E2D38
:102090000E94CD0D0894E11CF11C011D111D90E062
:1020A000E91690E0F90690E4090790E0190761F15C
:1020B000D801C7019F70A070B0700097A105B1054D
:1020C00021F7ADB7BEB718970FB6F894BEBF0FBED5
:1020D000ADBFEDB7FEB7319612967C926E92119716
:1020E000D382C282E482F582068317830E94E918B4
:1020F0008DB79EB708960FB6F8949EBF0FBE8DBFE2
:10210000C3010E944506C1CF20E030E04BEE51E014
:10211000CA010197F1F72F5F3F4FAFEF2F3F3A070B
:10212000B9F78BEE91E00E944506AA24BB24650115
:10213000EE24FF24870136EE432E31E0532E15C0E6
:102140009E1429F00894A11CB11CC11CD11C089438
:10215000E11CF11C011D111D90E0E91690E0F9064B
:1021600090E4090790E0190799F1C801B7010E94AE
:10217000A80C982ED801C7019F70A070B07000976E
:10218000A105B105E9F68DB79EB708970FB6F8948B
:102190009EBF0FBE8DBFEDB7FEB73196ADB7BEB7D0
:1021A00012967C926E92119753824282E482F5825B
:1021B000068317830E94E9188DB79EB708960FB65D
:1021C000F8949EBF0FBE8DBFC3010E944506B8CFD5
:1021D000ADB7BEB718970FB6F894BEBF0FBEADBF70
:1021E000EDB7FEB7319612967C926E92119785EFFD
:1021F00091E093838283A482B582C682D7820E94B3
:10220000E9188DB79EB708960FB6F8949EBF0FBE1B
:102210008DBFC3010E944506CA5BDF4F0FB6F8941D
:10222000DEBF0FBECDBFCF91DF911F910F91FF9009
:10223000EF90DF90CF90BF90AF909F907F906F9086
:102240005F904F9008950F931F9302B164E072E086
:102250000E94971880E090E064E072E00E94971876
:102260000E944A18182F80E090E064E072E00E941B
:1022700097189C0181E090E002C0880F991F1A9581
:10228000E2F782B9D9010D900020E9F71197A21B5E
:10229000B30B90E0E92FF0E0EA17FB07A8F4E20F98
:1022A000F31F8081823589F1873439F1823431F42A
:1022B00080B38F6080BB87B1806F87B99F5FE92F44
:1022C000F0E0EA17FB0758F320E030E04BEE51E076
:1022D000CA010197F1F72F5F3F4F8AE3283938078A
:1022E000B9F784B18F7084B917B88AB1837C8AB981
:1022F00010BA02B91F910F9108958AB18C638AB9FF
:1023000087B18F6087B99F5FDACF84B1806F84B95E
:1023100080B3806F80BB9F5FD2CF2F923F924F924E
:102320005F926F927F928F929F92AF92BF92CF9265
:10233000DF92EF92FF920F931F93DF93CF93CDB76E
:10234000DEB7C257D0400FB6F894DEBF0FBECDBF88
:1023500064E072E00E94971880E090E064E072E030
:102360000E9497180E946818E62ED72EC82EB92E04
:1023700080E090E064E072E00E9497188C010E9477
:102380006818012B09F49DC02E2C3D2C4C2C5B2C85
:102390003B014C012DB73EB72C5030400FB6F8949E
:1023A0003EBF0FBE2DBFEDB7FEB731968E010D5C5F
:1023B0001F4FADB7BEB712961C930E93119786E0D0
:1023C00092E0938382832482358246825782D401AD
:1023D000C301820D931DA41DB51D80879187A2871F
:1023E000B3870E94E9182DB73EB7245F3F4F0FB661
:1023F000F8943EBF0FBE2DBFC8010E944506AA2417
:10240000BB24650182017101EA0CFB1C0C1D1D1D22
:10241000C801B7010E94A80CADB7BEB71A970FB696
:10242000F894BEBF0FBEADBFEDB7FEB7319621E049
:1024300030E02C0F3D1F12963C932E931197ACE188
:10244000B2E0B383A283E482F58206831783808798
:1024500011860E94E9182DB73EB7265F3F4F0FB691
:10246000F8943EBF0FBE2DBFCE0101960E944506D7
:102470000894A11CB11CC11CD11C6A147B048C04DF
:102480009D0408F0BFCF8BE292E00E944506CE5833
:10249000DF4F0FB6F894DEBF0FBECDBFCF91DF91F7
:1024A0001F910F91FF90EF90DF90CF90BF90AF9072
:1024B0009F908F907F906F905F904F903F902F9064
:1024C00008958EE292E00E944506E1CFCF93DF931C
:1024D00064E072E00E94971880E090E064E072E0AF
:1024E0000E949718EC010097E1F06BE572E00E9402
:1024F0009C18009789F0CE010E946818DC01CB017E
:102500005CE0880F991FAA1FBB1F5A95D1F70E9444
:102510002F0DDF91CF9108950E94180EDF91CF917A
:1025200008958FE592E00E944506DF91CF910895CE
:10253000EF92FF920F931F93CF93DF9364E072E0CB
:102540000E94971880E090E064E072E00E94971883
:10255000EC01009709F16BE572E00E949C1800976E
:1025600091F0CE010E9468187B018C01CB010E9482
:102570002F0DC7010E947E0DDF91CF911F910F910A
:10258000FF90EF9008950E94D60EDF91CF911F919A
:102590000F91FF90EF9008958FE792E00E9445061B
:1025A000DF91CF911F910F91FF90EF900895CF93FE
:1025B000DF9364E072E00E94971880E090E064E0AE
:1025C00072E00E949718EC010097E1F06BE572E071
:1025D0000E949C18009789F0CE010E946818DC01C7
:1025E000CB016CE0880F991FAA1FBB1F6A95D1F71A
:1025F0000E94E00CDF91CF9108950E947A0EDF9146
:10260000CF9108958FE992E00E944506DF91CF9126
:1026100008956F927F928F929F92AF92BF92CF92C6
:10262000DF92EF92FF920F931F93CF93DF9364E0BB
:1026300072E00E94971880E090E064E072E00E94EF
:1026400097180E946818962E872E782E692E80E0A3
:1026500090E064E072E00E9497188C010E94681874
:102660005B016C018FEB92E00E944506012B09F49F
:10267000A5C0E92CF82C072D162DC801B70120E0C4
:1026800030E340E050E00E942B183B014C01D801A0
:10269000C701880F991FAA1FBB1F8E0D9F1DA01F6A
:1026A000B11F8C010E942F0D20E030E04BEE51E075
:1026B000CA010197F1F72F5F3F4F83E0283E3807AB
:1026C000B9F778010894E11CF11CC7010E942F0D95
:1026D00020E030E04BEE51E0CA010197F1F72F5FA7
:1026E0003F4F83E0283E3807B9F7E8012296CE0134
:1026F0000E942F0D20E030E04BEE51E0CA0101971F
:10270000F1F72F5F3F4F83E0283E3807B9F7C80144
:102710000E947E0D20E030E04BEE51E0CA010197AF
:10272000F1F72F5F3F4F83E0283E3807B9F7C70125
:102730000E947E0D20E030E04BEE51E0CA0101978F
:10274000F1F72F5F3F4F83E0283E3807B9F7CE01FE
:102750000E947E0D20E030E04BEE51E0CA0101976F
:10276000F1F72F5F3F4F83E0283E3807B9F7EE249B
:10277000FF2487010E943606482FC801B701660D65
:10278000771D881D991D0E94CD0D0894E11CF11C38
:10279000011D111DAE14BF04C006D10658F7DF910C
:1027A000CF911F910F91FF90EF90DF90CF90BF904E
:1027B000AF909F908F907F906F90089586EC92E0FD
:1027C0000E944506ECCF6F927F928F929F92AF92BC
:1027D000BF92CF92DF92EF92FF920F931F9364E02C
:1027E00072E00E94971880E090E064E072E00E943E
:1027F00097180E9468183B014C0180E090E064E06B
:1028000072E00E9497188C010E9468185B016C01AD
:10281000012B29F1EE24FF2487010E943606482F60
:10282000C401B3016E0D7F1D801F911F0E94CD0D4D
:102830000894E11CF11C011D111DAE14BF04C0065B
:10284000D10658F71F910F91FF90EF90DF90CF9036
:10285000BF90AF909F908F907F906F90089581EF81
:1028600092E00E944506EECFEF92FF921F93CF9326
:10287000DF937C018EE193E00E9445060E943606BC
:1028800090E00E948F18182F0E943D061A3331F1F4
:10289000C0E0D0E003C0CF33D105E9F0F701EC0F81
:1028A000FD1F108321960E94360690E00E948F182B
:1028B000182F0E943D061A3371F7FE01EE0DFF1D21
:1028C00010828BE292E00E944506DF91CF911F912A
:1028D000FF90EF900895EFE3F0E0F0CFE0E0F0E05C
:1028E000EDCF1F93CF93DF930E94CE0C182FC82FEC
:1028F000D0E080FF29C081E293E00E944506C1FF3D
:1029000029C083E493E00E944506CE018C7090704C
:10291000892B49F585E793E00E944506C4FF29C04D
:102920008BEB93E00E944506C5FF29C081EF93E041
:102930000E94450617FD29C08AE694E00E944506DC
:10294000DF91CF911F91089584E393E00E944506A3
:10295000C1FDD7CF8AE593E00E944506CE018C7079
:102960009070892BB9F284E993E00E944506C4FD7A
:10297000D7CF88ED93E00E944506C5FDD7CF81E112
:1029800094E00E94450617FFD7CF8AE394E00E94A7
:102990004506DF91CF911F910895FF920F931F93EA
:1029A000DF93CF93CDB7DEB7A8970FB6F894DEBF0D
:1029B0000FBECDBF64E072E00E94971880E090E007
:1029C00064E072E00E9497188C010E944A18F82E69
:1029D000012B09F450C000D000D000D0EDB7FEB7F5
:1029E00031968E010F5F1F4FADB7BEB712961C9385
:1029F0000E9311978CE994E093838283F48215827D
:102A00000E94E9188DB79EB706960FB6F8949EBF40
:102A10000FBE8DBFC8010E9445068F2D0E94790C04
:102A200000D000D000D0EDB7FEB73196ADB7BEB73D
:102A300012961C930E93119720EB34E0338322837C
:102A4000848315820E94E9188DB79EB706960FB64B
:102A5000F8949EBF0FBE8DBFC8010E944506A89680
:102A60000FB6F894DEBF0FBECDBFCF91DF911F919F
:102A70000F91FF90089582EC94E00E944506EFCFFD
:102A80000F931F93DF93CF93CDB7DEB7C454D040DD
:102A90000FB6F894DEBF0FBECDBF8DB79EB70E97B1
:102AA0000FB6F8949EBF0FBE8DBFEDB7FEB731963F
:102AB0008E010B5F1F4FADB7BEB712961C930E93DE
:102AC00011978DED94E09383828382E090E095836B
:102AD000848320E230E03783268384EC90E0918782
:102AE00080873387228781E090E0958784870E94E2
:102AF000E9188DB79EB70E960FB6F8949EBF0FBE1D
:102B00008DBFC8010E94450681E295E00E944506FE
:102B1000CE010196BE016E5F7F4FAE014D5F5F4FEC
:102B20009E012C5F3F4F0E947F0CADB7BEB71C9734
:102B30000FB6F894BEBF0FBEADBFEDB7FEB731966E
:102B400012961C930E93119780E395E093838283F2
:102B50008981848315828A81868317828B8180870D
:102B600011868C81828713860E94E9188DB79EB7E3
:102B70000C960FB6F8949EBF0FBE8DBFC8010E9481
:102B800045068BE292E00E944506CC5BDF4F0FB614
:102B9000F894DEBF0FBECDBFCF91DF911F910F9193
:102BA00008952F923F924F925F926F927F928F92F1
:102BB0009F92AF92BF92CF92DF92FF920F931F939B
:102BC000DF93CF93CDB7DEB7C75DD0400FB6F89493
:102BD000DEBF0FBECDBF8CE695E00E94450688E0C3
:102BE000A82EB12CAC0EBD1E0FE3802E912C8A0CAA
:102BF0009B1C18E4612E712C6C0E7D1EBDED4B2EBE
:102C0000B4E05B2EA2E02A2E312C2C0E3D1EF8EDF6
:102C1000CF2ED12CCC0EDD1E8EE193E00E94450616
:102C20000E94360690E00E948F18F82E0E943D0602
:102C30008AE3F81609F4CDC100E010E004C00F33B8
:102C4000110509F452C1F501E00FF11FF0820F5F89
:102C50001F4F0E94360690E00E948F18F82E0E94A7
:102C60003D069AE3F91659F7F501E00FF11F1082BE
:102C70008BE292E00E944506C50166E875E00E947D
:102C80009C18009709F433C1C5016BE875E00E94F8
:102C90009C18009709F4DBC08885182F823509F449
:102CA00012C1873509F4FCC0C50160E975E00E94D6
:102CB0009C18009709F42898C50165E975E00E9401
:102CC0009C18009709F4289A133509F4B3C01535F8
:102CD00009F49FC0103509F07BC08985823509F45D
:102CE0006BC0C5016AE975E00E949C18009709F461
:102CF00085C0C5016EE975E00E949C18009709F433
:102D00003BC08885843559F1C50163EA75E00E94AE
:102D10009C180097E9F0C50161EC75E00E949C18D1
:102D2000009709F46AC1C50166EE75E00E949C181F
:102D3000009709F071CFF89428E088E190E00FB691
:102D4000F894A895809360000FBE20936000FFCF99
:102D500088EA95E00E9445060E940410DCCF898530
:102D60008C3491F68A85853479F68B85843461F6C6
:102D7000C5010E942311C8CF80E090ECAFE3B0E022
:102D80008C839D83AE83BF83FF24CE010496BE0156
:102D900068577F4F0E94B506882399F18E01085726
:102DA0001F4FF80181918F010E943D06E0E5FE2E44
:102DB0000C151D05B1F7E9CF8A858F3409F091CF45
:102DC0008B85843509F08DCFC5010E94D7121885F7
:102DD000163409F086CF89858C3409F082CF8A8534
:102DE000853409F427C1833509F07BCF8B85843581
:102DF00009F077CFC5010E94711473CF0E9472074A
:102E000078CFFF2009F07DCF89EA91E00E94450646
:102E100078CF8985803509F064CF8A85823509F0BD
:102E200060CF8B858F3409F05CCFC5010E9466129C
:102E3000188550CF8985803509F053CF8A8589342C
:102E400009F04FCFC5010E94CD14188540CFEDB7D2
:102E5000FEB738970FB6F894FEBF0FBEEDBF3196A0
:102E6000ADB7BEB712967C926E92119781EB91E04E
:102E70009383828380E190E09583848388EC90E063
:102E8000978386830E94E918ADB7BEB718960FB630
:102E9000F894BEBF0FBEADBFC3010E944506FCCE75
:102EA0008985823511F017E5FFCE8A85893409F4CA
:102EB00092C08234C1F78B858C34A9F7C5010E947A
:102EC00009131885F1CE8985853409F0EDCE8A8500
:102ED000813409F0E9CE8B85843409F0E5CEC50153
:102EE0000E948D118885182FDCCEF401C0CEADB7BD
:102EF000BEB71E970FB6F894BEBF0FBEADBFEDB7FD
:102F0000FEB7319612967C926E921197538242824E
:102F100082E090E09583848320E230E0378326834B
:102F200084EC90E0918780873387228781E090E06E
:102F3000958784870E94E918EDB7FEB73E960FB6D5
:102F4000F894FEBF0FBEEDBFC3010E94450681E2AB
:102F500095E00E944506CE010196B101AE014D5F9C
:102F60005F4F9E012C5F3F4F0E947F0C8DB79EB735
:102F70000C970FB6F8949EBF0FBE8DBFEDB7FEB78E
:102F80003196ADB7BEB712967C926E92119780E3E0
:102F900095E0938382838981848315828A818683E5
:102FA00017828B81808711868C81828713860E948D
:102FB000E918ADB7BEB71C960FB6F894BEBF0FBEEA
:102FC000ADBFC3010E9445068BE292E00E94450618
:102FD0005BCEF5014CCE8B85843509F064CFC501FD
:102FE0000E94E3138885182F873509F05DCE898507
:102FF000823509F058CF8A855CCF86EC95E00E9437
:103000004506C952DF4F0FB6F894DEBF0FBECDBFE5
:10301000CF91DF911F910F91FF90DF90CF90BF90E4
:10302000AF909F908F907F906F905F904F903F9068
:103030002F9008958B85823509F053CEC5010E94EB
:1030400098128885863409F04CCE89858C3409F035
:1030500048CE8A85C8CE629FD001739FF001829FBF
:10306000E00DF11D649FE00DF11D929FF00D839F17
:10307000F00D749FF00D659FF00D9927729FB00DB4
:10308000E11DF91F639FB00DE11DF91FBD01CF01C7
:1030900011240895FC0188279927E8942191203272
:1030A000E9F3293010F02E30C8F32B3241F02D32E5
:1030B00039F4689404C00E94E118820F911D219197
:1030C00020532A30C0F31EF4909581959F4F0895A8
:1030D0001F93FC0199278827BC01E89411911032B5
:1030E000E9F3193010F01E30C8F31B3251F01D32D5
:1030F00049F4689406C00E94CC18610F711D811DAF
:10310000911D119110531A30B0F33EF490958095B3
:10311000709561957F4F8F4F9F4F1F91089591112B
:10312000089581568A5108F480528558089548E1DF
:1031300056E00E94A5180895FB01DC018D910190D5
:1031400080190110D9F3990B0895FA01A191B0816A
:10315000009719F41097E1F0CD01DC01CD010D903D
:10316000002011F4C00113C0FB012191222319F0AA
:103170002015D9F7F3CFFB012191201519F41E92E8
:10318000119606C02223C1F70D900020A1F7D001AF
:10319000FA01A193B0830895592F482F372F262F76
:1031A000660F771F881F991F660F771F881F991F4B
:1031B000620F731F841F951F660F771F881F991F4B
:1031C00008957AE0979F902D879F802D910D11246F
:1031D0000895AEE0B0E0EFEEF8E10C94981B0D8995
:1031E0001E8986E08C831A8309838FEF9FE79E8375
:1031F0008D839E01275E3F4FCE0101966F89788DAA
:10320000A9010E940D192F813885020F131FF801A3
:1032100010822E96E4E00C94B41BABE0B0E0E3E146
:10322000F9E10C948A1B3C012B015A01FC01178225
:103230001682838181FD03C06FEF7FEFC6C19AE0E4
:10324000892E1E010894211C311CF3012381F201F7
:1032500023FD859123FF81912F01882309F4B2C1B9
:10326000853239F423FD859123FF81912F01853229
:1032700029F490E0B3010E94001BE7CF982FFF24B0
:10328000EE249924FFE1FF15D0F09B3269F09C32C7
:1032900028F4903259F0933291F40EC09D3249F0E7
:1032A000903369F441E024C052E0F52A84E0F82A22
:1032B00028C098E0F92A25C0E0E1FE2A22C0F7FCE8
:1032C00029C0892F80538A3070F4F6FE05C0989C7F
:1032D000902C1124980E15C0E89CE02C1124E80EC7
:1032E000F0E2FF2A0EC09E3229F4F6FC6BC140E4E6
:1032F000F42A07C09C3619F450E8F52A02C0983623
:1033000049F4F20123FD959123FF91912F01992317
:1033100009F0B8CF892F8554833018F0805283305C
:1033200038F444E050E0A40EB51E5FE359830FC0AB
:10333000933631F0933779F0933509F056C020C0B9
:10334000F5018081898342E050E0A40EB51E610141
:1033500001E010E012C0F501C080D180F6FC03C08E
:103360006FEF7FEF02C0692D70E042E050E0A40EE5
:10337000B51EC6010E94F51A8C015FE7F52214C044
:10338000F501C080D180F6FC03C06FEF7FEF02C073
:10339000692D70E042E050E0A40EB51EC6010E9407
:1033A000EA1A8C0150E8F52AF3FE07C01AC080E241
:1033B00090E0B3010E94001BEA948E2D90E0081764
:1033C0001907A8F30EC0F601F7FC8591F7FE81916D
:1033D0006F0190E0B3010E94001BE110EA940150DC
:1033E00010400115110579F7EAC0943611F09936AD
:1033F00069F5F7FE08C0F5012081318142815381D2
:1034000084E090E00AC0F501808191819C0144270D
:1034100037FD4095542F82E090E0A80EB91E9FE63C
:10342000F92257FF09C050954095309521953F4F9F
:103430004F4F5F4FE0E8FE2ACA01B901A1012AE01F
:1034400030E00E942C1BD82ED21840C0953729F4AA
:103450001F2D1F7E2AE030E01DC01F2D197F9F36D3
:1034600061F0903720F4983509F0ACC00FC0903768
:1034700039F0983709F0A6C004C028E030E00AC04F
:10348000106114FD146020E130E004C014FD1660EA
:1034900020E132E017FF08C0F5016081718182816F
:1034A000938144E050E008C0F50180819181BC0126
:1034B00080E090E042E050E0A40EB51EA1010E9421
:1034C0002C1BD82ED2188FE7F82EF122F6FE0BC057
:1034D0005EEFF522D91438F4F4FE07C0F2FC05C003
:1034E0008FEEF82202C01D2D01C0192DF4FE0DC073
:1034F000FE01ED0DF11D8081803319F499EEF92262
:1035000008C01F5FF2FE05C003C08F2D867809F04A
:103510001F5F0F2DF3FC14C0F0FE0FC01E1510F03E
:103520009D2C0BC09D2C9E0C911A1E2D06C080E276
:1035300090E0B3010E94001B1F5F1E15C0F304C082
:103540001E1510F4E11A01C0EE2404FF0FC080E341
:1035500090E0B3010E94001B02FF1DC001FD03C0EB
:1035600088E790E00EC088E590E00BC0802F867859
:1035700091F001FF02C08BE201C080E2F7FC8DE216
:1035800090E0B3010E94001B06C080E390E0B3010D
:103590000E94001B9A94D914C0F3DA94F101ED0D46
:1035A000F11D808190E0B3010E94001BDD20A9F78E
:1035B00006C080E290E0B3010E94001BEA94EE2076
:1035C000C1F743CEF30166817781CB012B96E2E10F
:1035D0000C94A61BFC010590615070400110D8F7B7
:1035E000809590958E0F9F1F0895FC01615070404B
:1035F00001900110D8F7809590958E0F9F1F089528
:103600000F931F93CF93DF938C01EB018B8181FF8D
:103610001BC082FF0DC02E813F818C819D812817A8
:10362000390764F4E881F9810193F983E88306C0DE
:10363000E885F985802F0995892B31F48E819F814A
:1036400001969F838E8302C00FEF1FEFC801DF91A9
:10365000CF911F910F910895FA01AA27283051F1B7
:10366000203181F1E8946F936E7F6E5F7F4F8F4FB3
:103670009F4FAF4FB1E03ED0B4E03CD0670F781F12
:10368000891F9A1FA11D680F791F8A1F911DA11DF7
:103690006A0F711D811D911DA11D20D009F4689430
:1036A0003F912AE0269F11243019305D3193DEF6D8
:1036B000CF010895462F4770405D4193B3E00FD08E
:1036C000C9F7F6CF462F4F70405D4A3318F0495D79
:1036D00031FD4052419302D0A9F7EACFB4E0A6955C
:1036E0009795879577956795BA95C9F7009761057E
:1036F000710508959B01AC010A2E069457954795D4
:1037000037952795BA95C9F7620F731F841F951FC8
:10371000A01D08952F923F924F925F926F927F92D9
:103720008F929F92AF92BF92CF92DF92EF92FF92D1
:103730000F931F93CF93DF93CDB7DEB7CA1BDB0B7D
:103740000FB6F894DEBF0FBECDBF09942A88398822
:1037500048885F846E847D848C849B84AA84B98429
:10376000C884DF80EE80FD800C811B81AA81B98135
:10377000CE0FD11D0FB6F894DEBF0FBECDBFED0149
:063780000895F894FFCF4C
:10378600600101010D0A23202D204E616D65202D5B
:1037960020233120426C6B202D204F666673202D2E
:1037A60020537A2028426C6B73290D0A0025640980
:1037B600092573090925640925640925640D0A008C
:1037C600426C6F636B733A0D0A0025642C20000D62
:1037D6000A004E6D3A25730D0A4F6666733A2564E4
:1037E6000D0A4E4F46723A25640D0A0046724C7316
:1037F600743A00256420000D0A0D0A000D0A4E6F6A
:103806007420466F756E640D0A000D0A4672616D6E
:10381600652023256420426C6F636B202325643A60
:103826000D0A0000C03F00FFFF454D5054590D0AD8
:1038360000434445503A253033643B414E473A25D0
:103846003033643B0D0A0044656C6574650D0A00EF
:10385600556E70726F746563740D0A0057726974E1
:10386600696E670D0A00256C7520005265616469F2
:103876006E670D0A00234572726F72733A20256CCB
:10388600750D0A00200052656164696E6720256C1B
:103896007520746F20256C753B0D0A0041256C75EB
:1038A6003A202020307825780D0A000D0A0055535D
:1038B6004147453A20202052454144205B5354411C
:1038C600525420414444524553535D205B4259545F
:1038D6004520434F554E545D0D0A00414C4C005552
:1038E600534147453A2020205550524F205B424CC9
:1038F6004F434B23206F7220414C4C5D0D0A0055FF
:10390600534147453A202020464C4552205B424CC5
:103916004F434B23206F7220414C4C5D0D0A0055DE
:10392600534147453A20202050524F54205B424C89
:103936004F434B23206F7220414C4C5D0D0A0057BC
:1039460052424C0D0A0055534147453A2020205714
:1039560052424C205B535441525420424C4F434BED
:103966005D205B4259544520434F554E545D0D0A28
:103976000055534147453A20202057524954205B71
:10398600535441525420414444524553535D205BA5
:103996004259544520434F554E545D0D0A003E3E54
:1039A600000D0A2330204E4F542072656164792041
:1039B600283129000D0A2330207265616479202898
:1039C6003029000D0A233120777269746520656EEF
:1039D60061626C656420283129000D0A2331204E6E
:1039E6004F5420777269746520656E61626C6564F8
:1039F60020283029000D0A233233204E4F542077D9
:103A0600726974652070726F7465637465642028CA
:103A1600303029000D0A2332332070726F746563CB
:103A260074696F6E20756E6B6E6F776E20283130FD
:103A360020726573657276656429000D0A23342049
:103A46004E4F542077726974652070726F74656387
:103A560074656420283129000D0A233420777269A1
:103A660074652070726F74656374656420283029EC
:103A7600000D0A2335206661696C65642070726FDB
:103A86006772616D20286572617365292028312966
:103A9600000D0A23352070726F6772616D202865EC
:103AA600726173652920776173207375636365732B
:103AB6007366756C6C20283029000D0A2337207335
:103AC6006563746F722070726F74656374696F6E6C
:103AD60020726567697374657273204C4F434B455A
:103AE60044202831290D0A0D0A000D0A23372073B8
:103AF6006563746F722070726F74656374696F6E3C
:103B06002072656769737465727320554E4C4F4316
:103B16004B4544202830290D0A0D0A000D0A54721F
:103B2600616E7366657272696E67203078257800FB
:103B36000D0A526563696576656420307825780DCF
:103B46000A0055534147453A202020535049205BEF
:103B5600444154415F384249545D0D0A00414E4983
:103B660042494B45205645523A253033642E303073
:103B76003B4D535A3A25303564204D424954533B08
:103B86004350533A25303364204D485A3B4E4C45FA
:103B9600443A253033643B5247423A25643B0D0A8A
:103BA600000D0A466C617368496E666F3A0D0A002D
:103BB6004D616E4944203D20307825783B20446590
:103BC60076494431203D20307825783B204465767F
:103BD600494432203D20307825783B2045784461A1
:103BE6007461203D20307825780D0A00414E494207
:103BF600494B4520494E432E205645522E20322E03
:103C060030302E0D0A0049444E3F005245504100C7
:103C160043534C4F004353484900444952004754CC
:103C26004653004D5453540054657374696E6720AF
:103C3600466C617368204D656D6F72793A200D0A86
:103C4600004558495400414E4942494B4520455884
:103C56004954494E47205452414E53464552204DF1
:0A3C66004F44450D0A00525354006C
:00000001FF
