:100000000C942E000C943C010C944B000C944B006F
:100010000C94D9000C944B000C944B000C948D0064
:100020000C944B000C944B000C944B000C94050169
:100030000C944B000C94CC010C944B000C944B0092
:100040000C944B000C944B000C944B000C944B0004
:100050000C944B000C944B000C944B0011241FBECD
:10006000CFEFD8E0DEBFCDBF15E0A0E0B1E0E2ED1C
:10007000F9E202C005900D92AC3FB107D9F717E045
:10008000ACEFB5E001C01D92A73AB107E1F70E94BD
:10009000FD010C94E7140C9400008FEF81B912B8A5
:1000A00085B18F7085B984B18F7084B918B817B8CD
:1000B0008BB1837C8BB98AB1837C8AB911BA10BAAF
:1000C000089590910C0621E030E002C0220F331F0A
:1000D0009A95E2F722B994B19F7094B924B1982F00
:1000E0009295907F922B94B9942F907F262F2295F2
:1000F0002F70922B97B99AB1937C9AB99AB170E00C
:100100006F707070660F771F660F771F962B9AB906
:100110004F70807F482B40BB08951F920F920FB6FF
:100120000F9211242F933F938F939F931092210648
:1001300010920C0680911B01882319F180E68093B0
:10014000020180E3809301012091A5073091A60769
:1001500086E0253E380711F185EE96E09093A607DC
:100160008093A50783E296E09093E4068093E306EC
:100170009F918F913F912F910F900FBE0F901F90E5
:1001800018951092020180E6809301012091A50745
:100190003091A60786E0253E3807F1F683E296E027
:1001A0009093A6078093A5073093E4062093E30677
:1001B000DFCF8F939F93EF93FF9384B18F7084B9B8
:1001C00017B88AB1837C8AB910BA12B890910F0619
:1001D00084B1892B84B99091100697B9909111063A
:1001E0008AB1892B8AB99091120690BBE3E0F1E0C5
:1001F00080910C06E80FF11D808182B910920E06E5
:10020000FF91EF919F918F9118951F920F920FB6CA
:100210000F9211242F938F939F93AF93BF9380914D
:10022000130690911406A0911506B091160601963A
:10023000A11DB11D8093130690931406A09315067B
:10024000B09316068091130690911406A09115069E
:10025000B0911606835C9B4EAB40B04018F081E035
:1002600080931706BF91AF919F918F912F910F901F
:100270000FBE0F901F9018951F920F920FB60F92FE
:1002800011242F933F938F939F93AF93BF9310921B
:10029000170686B580930106809113069091140687
:1002A000A0911506B0911606209101063091000626
:1002B000BA2FA92F982F8827820F911DA11DB11D3C
:1002C000831B9109A109B1098093FC059093FD0559
:1002D000A093FE05B093FF058091FC059091FD056C
:1002E000A091FE05B091FF05815E984CA041B04001
:1002F00008F049C08091FC059091FD05A091FE0594
:10030000B091FF0580549244AF40B04048F489E278
:100310008093B30086ED8093B20081E080931B014F
:100320008091130690911406A0911506B0911606BF
:100330008093020690930306A0930406B0930506EB
:1003400010921306109214061092150610921606BB
:100350008091010680930006809102069091030629
:10036000A0910406B09105069093890080938800BF
:10037000BF91AF919F918F913F912F910F900FBEA1
:100380000F901F90189584E48093B3008BEB8093BB
:10039000B20010921B01C4CF1F920F920FB60F92A2
:1003A00011242F933F934F935F936F937F938F937A
:1003B0009F93AF93BF93EF93FF9312B8F8940E946B
:1003C000310F8091C00087FF06C08091C6008091E8
:1003D000C00087FDFACF7894FF91EF91BF91AF9164
:1003E0009F918F917F916F915F914F913F912F914D
:1003F0000F900FBE0F901F9018957F928F929F9233
:10040000AF92BF92CF92DF92EF92FF920F931F9322
:10041000DF93CF93CDB7DEB7C056D0400FB6F89478
:10042000DEBF0FBECDBF8E010F5F1F4FDE01D19625
:10043000F80180E1E82EF12CEC0EFD1E77E0C72ECE
:10044000D12C77E05E2F501B452F4695242F30E0AE
:10045000C90182959295907F9827807F9827642F75
:10046000682B60A3C601821B930B82959295907FA7
:100470009827807F9827272F241B282B208B569581
:100480005695852F8295807F852B819390966C93CE
:1004900090972C9350962C9350971196EE15FF053C
:1004A00089F610920E060E94BF030E944D0084E15F
:1004B00090E00E94811180916900826080936900C0
:1004C000E89A8091C10080688093C100809181008A
:1004D0008A608093810080916F00826080936F00BA
:1004E0008FEF9FEF909389008093880084B582609E
:1004F00084BD81E080936E008091B0008A6080931B
:10050000B0008091700082608093700020E320939F
:10051000B3008FEC8093B20085EE96E09093A6072F
:100520008093A50783E296E09093E4068093E30628
:100530001092210610920C062093010110920201E4
:1005400080910201803C08F04CC040E0F801E40FCB
:10055000F11D508180910201E091A507F091A6075D
:10056000E80FF11D852F82958F70282F30E02D5ECA
:100570003E4FD9018C9180838091020190E00196D9
:10058000E091A507F091A607E80FF91FA52FB0E0AD
:10059000AF70B070AD5EBE4F8C91808380910201D0
:1005A0006091E3067091E406680F711DF901808186
:1005B000FB0180838091020190E00196E091E306C7
:1005C000F091E406E80FF91F8C9180834F5F8091D2
:1005D00002018E5F8093020180910201803C08F449
:1005E000B5CF109202017894EE24FF2477247394FF
:1005F00020E3822E912C90E6C92ED12C80E9A82EE2
:10060000B12C809117068823E1F7F7E0FE1508F07A
:10061000B3C0EE24E0E0F0E080910C06880F880F74
:1006200080932106E55FFE4F8081809300010E9448
:10063000B80A70920E0680910101813308F085C0DE
:1006400080910101882371F458C080910101F40167
:10065000E81BF109E00FF11F9083809101018150A7
:100660008093010180910E06882309F44AC080918D
:100670000101882309F445C080E00E94C803982F37
:1006800080911B06882309F380910101F601E81B84
:10069000F109E00FF11F9083E0CF80910201803CCF
:1006A00080F5F801EF0DF11DA081209102018091EC
:1006B000E3069091E406820F911DEA2FE295EF7018
:1006C000F0E0ED5EFE4F2081FC012083809102016D
:1006D00090E00196E091E306F091E406E80FF91F3F
:1006E000B0E0AF70B070AD5EBE4F8C918083F3947C
:1006F000809102018E5F8093020180910E06882313
:1007000061F680910E068823E1F780910C068F5FD9
:1007100080930C0680910C06883009F072CF1092FD
:100720000C06E3946ECF80911B068823D9F4809148
:1007300001019EB5F501E81BF109E00FF11F90835F
:100740008091010181508093010180910E068823E0
:10075000C1F2809101018133A0F21EBC0DB407FEED
:10076000FDCFE1CF809101019EB5F601E81BF109B3
:10077000E00FF11F9083E4CFEE2DF0E04DCF84B178
:10078000876084B9289A80E58CBD80E88DBD089586
:100790008EBD0DB407FEFDCF8EB50895CF93DF93C8
:1007A000FC01DB01EA0128988FE98EBD0DB407FE3C
:1007B000FDCF8EB51EBC0DB407FEFDCF8EB5808378
:1007C0001EBC0DB407FEFDCF8EB58C931EBC0DB4C0
:1007D00007FEFDCF8EB588831EBC0DB407FEFDCF8E
:1007E0008EB5F9018083289ADF91CF9108950F93F8
:1007F0001F938B019C01289886E08EBD0DB407FEE7
:10080000FDCF8EB5289A289882E08EBD0DB407FEE4
:10081000FDCF8EB5C901AA27BB278EBD0DB407FE3B
:10082000FDCF8EB5BB27A32F922F812F8EBD0DB488
:1008300007FEFDCF8EB50EBD0DB407FEFDCF8EB504
:100840004EBD0DB407FEFDCF8EB5289A1F910F91B6
:1008500008959B01AC01289883E08EBD0DB407FE7E
:10086000FDCF8EB5CA01AA27BB278EBD0DB407FEEA
:10087000FDCF8EB5BB27A52F942F832F8EBD0DB432
:1008800007FEFDCF8EB52EBD0DB407FEFDCF8EB594
:100890001EBC0DB407FEFDCF8EB5289A08951F9398
:1008A00021E030E040E050E016E0F8EDE1E063E305
:1008B00073E128981EBD0DB407FEFDCF8EB5289AB2
:1008C0002898FEBD0DB407FEFDCF8EB5CA01AA273C
:1008D000BB278EBD0DB407FEFDCF8EB5BB27A52F60
:1008E000942F832F8EBD0DB407FEFDCF8EB5EEBDC8
:1008F0000DB407FEFDCF8EB5289ACB010197F1F715
:10090000213080E038078FE3480780E0580729F05E
:10091000205030404F4F5F4FCCCF1F9108959B0127
:10092000AC01289886E08EBD0DB407FEFDCF8EB5D4
:10093000289A289880E28EBD0DB407FEFDCF8EB5B3
:10094000CA01AA27BB278EBD0DB407FEFDCF8EB509
:10095000BB27A52F942F832F8EBD0DB407FEFDCF8F
:100960008EB52EBD0DB407FEFDCF8EB5289A83E35C
:1009700093E10197F1F708959B01AC01289886E077
:100980008EBD0DB407FEFDCF8EB5289A289889E359
:100990008EBD0DB407FEFDCF8EB5CA01AA27BB27B9
:1009A0008EBD0DB407FEFDCF8EB5BB27A52F942FAE
:1009B000832F8EBD0DB407FEFDCF8EB52EBD0DB4B9
:1009C00007FEFDCF8EB5289A83E393E10197F1F7F7
:1009D00008959B01AC01289886E08EBD0DB407FEFA
:1009E000FDCF8EB5289A289886E38EBD0DB407FEFC
:1009F000FDCF8EB5CA01AA27BB278EBD0DB407FE59
:100A0000FDCF8EB5BB27A52F942F832F8EBD0DB4A0
:100A100007FEFDCF8EB52EBD0DB407FEFDCF8EB502
:100A2000289A83E393E10197F1F70895289885E0E8
:100A30008EBD0DB407FEFDCF8EB581E48A95F1F72A
:100A40001EBC0DB407FEFDCF8EB5289A089520E098
:100A500030E0E6E076E361E043E353E12898EEBD61
:100A60000DB407FEFDCF8EB5289A28987EBD0DB433
:100A700007FEFDCF8EB51EBC0DB407FEFDCF8EB5B3
:100A80001EBC0DB407FEFDCF8EB56EBD0DB407FEC6
:100A9000FDCF8EB5289ACA010197F1F7CA010197D7
:100AA000F1F72F5F3F4F20343105C1F6089520E064
:100AB00030E0E6E079E361E043E353E12898EEBDFE
:100AC0000DB407FEFDCF8EB5289A28987EBD0DB4D3
:100AD00007FEFDCF8EB51EBC0DB407FEFDCF8EB553
:100AE0001EBC0DB407FEFDCF8EB56EBD0DB407FE66
:100AF000FDCF8EB5289ACA010197F1F7CA01019777
:100B0000F1F72F5F3F4F20343105C1F60895289A41
:100B1000089508951F93CF93DF93009791F0EC0110
:100B2000D070192F892F0E94C8038C2F0E94C803F0
:100B3000312F20E02C2B3D2BC901DF91CF911F914C
:100B4000089580E00E94C803182F80E00E94C80327
:100B5000C82FD0E0EDCFEF92FF920F931F93CF936A
:100B6000DF9320E030E3829F7001839FF00C929F1F
:100B7000F00C112400E010E0289883E00E94C803E4
:100B800080E00E94C803BB27A12F902F8F2D0E94C9
:100B9000C8038E2D0E94C803C0E0D0E080E00E9410
:100BA000C8030E949511219685E2C038D807B1F795
:100BB000289ADF91CF911F910F91FF90EF900895A8
:100BC0008F929F92BF92CF92DF92EF92FF920F93FC
:100BD0001F93CF93DF934C016B01EA01FC01E0808E
:100BE000F18002811381289883E00E94C803C80124
:100BF000AA27BB270E94C803BB27A12F902F8F2DA8
:100C00000E94C8038E2D0E94C80380E00E94C80382
:100C1000182F80E00E94C803312F20E0E82EFF2427
:100C2000E22AF32AF1E2EF16F10408F066C080E050
:100C30000E94C803F601828380E00E94C803F60187
:100C4000838380E00E94C803F601848380E00E94D1
:100C5000C803F601858380E00E94C803F6018683FD
:100C600080E00E94C803F601878380E00E94C803E9
:100C7000F601808780E00E94C803F601818780E04A
:100C80000E94C803F601828780E00E94C803F60133
:100C9000838780E00E94C803F601848780E00E9479
:100CA000C803F6018587C6010296BE010E94D711CE
:100CB000009729F128E030E0E20EF31EEE0CFF1C55
:100CC000970140E050E0F40180819181A281B381DD
:100CD000820F931FA41FB51F80839183A283B383C8
:100CE00082E0DF91CF911F910F91FF90EF90DF9005
:100CF000CF90BF909F908F90089580E0F2CFE11445
:100D0000F104D9F0BB24C0E0D0E080E00E94C80329
:100D1000182F80E00E94C8032796CC0FDD1FCC0D52
:100D2000DD1D00E090E0802B912B99838883B394A4
:100D3000CB2DD0E0CE15DF0540F380E00E94C80344
:100D40002EE430E0C20ED31EF60181936F0180E0E5
:100D50000E94C803F6018083289A28E030E0E20E62
:100D6000F31EEE0CFF1C970140E050E0F40180817F
:100D70009181A281B381820F931FA41FB51F80832D
:100D80009183A283B38381E0ACCF2F923F924F92A5
:100D90005F926F927F928F929F92AF92BF92CF920B
:100DA000DF92EF92FF920F931F93DF93CF93CDB714
:100DB000DEB7C656D0400FB6F894DEBF0FBECDBF2B
:100DC0003C016B0180E090ECAFE3B0E089839A8353
:100DD000AB83BC832E010894411C511CC201A301AA
:100DE0000E94E005882309F4BAC096012E5F3F4FA8
:100DF000A7963FAF2EAFA79710E0E5E0AE2EB12C3F
:100E0000AC0EBD1E7EE4272E312C2C0C3D1C6FE653
:100E1000862E61E0962E08C0C201B601A3010E9491
:100E2000E005882309F47EC08130B1F78CE191E0C0
:100E30000E949D118DB79EB70A970FB6F8949EBF7A
:100E40000FBE8DBFEDB7FEB73196ADB7BEB71296E8
:100E5000BC92AE9211972DE231E033832283A796A4
:100E60008EAD9FADA79795838483D1018C918683A6
:100E70001782D6018D919C91918780870E940F12D5
:100E8000EDB7FEB73A960FB6F894FEBF0FBEEDBFB2
:100E9000C5010E949D1182E691E00E949D11D6013C
:100EA0008D919C91892B89F1760100E010E000D0B2
:100EB00000D000D0EDB7FEB73196ADB7BEB71296F1
:100EC000BC92AE92119793828282D7011E968D9129
:100ED0009C911F97958384830E940F12EDB7FEB7F4
:100EE00036960FB6F894FEBF0FBEEDBFC5010E9447
:100EF0009D110F5F1F4F22E030E0E20EF31ED6017E
:100F00008D919C910817190790F283E791E00E9458
:100F10009D1111E0C201B601A3010E94E0058823E2
:100F200009F082CF1123D9F081E0CA59DF4F0FB603
:100F3000F894DEBF0FBECDBFCF91DF911F910F910F
:100F4000FF90EF90DF90CF90BF90AF909F908F90E9
:100F50007F906F905F904F903F902F90089588E71B
:100F600091E00E949D1180E0E0CF8F929F92AF921E
:100F7000BF92CF92DF92EF92FF920F931F93CF9386
:100F8000DF934C016B01FC01E080F1800281138151
:100F9000289883E00E94C803C801AA27BB270E94A3
:100FA000C803BB27A12F902F8F2D0E94C8038E2D21
:100FB0000E94C80380E00E94C803182F80E00E94AE
:100FC000C803312F20E0A82EBB24A22AB32AF1E2C5
:100FD000AF16B10408F08EC080E00E94C803F6018D
:100FE000828380E00E94C803F601838380E00E9430
:100FF000C803F601848380E00E94C803F60185835C
:1010000080E00E94C803F601868380E00E94C80346
:10101000F601878380E00E94C803F601808780E0A4
:101020000E94C803F601818780E00E94C803F60190
:10103000828780E00E94C803F601838780E00E94D7
:10104000C803F601848780E00E94C803F601858703
:10105000A114B104D9F0EE24C0E0D0E080E00E94F9
:10106000C803182F80E00E94C8032796CC0FDD1F0D
:10107000CC0DDD1D00E090E0802B912B99838883BF
:10108000E394CE2DD0E0CA15DB0540F380E00E944A
:10109000C8032EE430E0C20ED31EF60181936F0127
:1010A00080E00E94C803F6018083289A28E030E09F
:1010B000A20EB31EAA0CBB1C950140E050E0F40147
:1010C00080819181A281B381820F931FA41FB51FDC
:1010D00080839183A283B38381E0DF91CF911F91BD
:1010E0000F91FF90EF90DF90CF90BF90AF909F90C7
:1010F0008F90089580E0F1CF4F925F926F927F9230
:101100008F929F92AF92BF92CF92DF92EF92FF9217
:101110000F931F93DF93CF93CDB7DEB7C45BD0405F
:101120000FB6F894DEBF0FBECDBF80E090ECAFE30A
:10113000B0E089839A83AB83BC838CE891E00E9402
:101140009D1181EA91E00E949D1183ED91E00E9442
:101150009D1100E010E055E0452E512C4C0E5D1E17
:101160004E010894811C911C45E5E42EF12CEC0EF7
:10117000FD1E3CE0632E32E0732E27E0A22EB12C40
:10118000AC0EBD1E93E5C92ED12CCC0EDD1E36C093
:101190000F5F1F4F8DB79EB70E970FB6F8949EBF87
:1011A0000FBE8DBFEDB7FEB73196ADB7BEB7129685
:1011B000FC92EE9211977382628215830483B78248
:1011C000A6828B899C8991878087D6018C918287A2
:1011D00013868D819E81958784870E940F128DB71B
:1011E0009EB70E960FB6F8949EBF0FBE8DBFC70177
:1011F0000E949D1110933D0200933C02C401B20174
:101200000E94B507882321F6012BD9F481E0809351
:101210001E06CC54DF4F0FB6F894DEBF0FBECDBF15
:10122000CF91DF911F910F91FF90EF90DF90CF90C2
:10123000BF90AF909F908F907F906F905F904F90F6
:10124000089510921E06E5CFCF93DF93EC0188E35B
:1012500092E0BE010E94B507882321F081E0DF9172
:10126000CF91089580E090ECAFE3B0E08093380236
:1012700090933902A0933A02B0933B0288E392E044
:10128000BE010E94B507882319F010921E06E6CF12
:1012900081E080931E0680E0DF91CF9108952F9228
:1012A0003F924F925F926F927F928F929F92AF92F6
:1012B000BF92CF92DF92EF92FF920F931F93DF9333
:1012C000CF93CDB7DEB7CC5CD0400FB6F894DEBF7D
:1012D0000FBECDBF4C0180E090ECAFE3B0E089835E
:1012E0009A83AB83BC833DE1632E712C6C0E7D1E13
:1012F0002E010894411C511CC201B301A4010E949B
:10130000E005882309F424C110E02DE6C22ED12C7B
:10131000CC0EDD1E9DE2292E91E0392E0FE6A02E87
:1013200001E0B02E08C0C201B301A4010E94E00593
:10133000882309F479C08130B1F78CE191E00E94F3
:101340009D118DB79EB70A970FB6F8949EBF0FBE3A
:101350008DBFEDB7FEB73196ADB7BEB71296DC9232
:10136000CE921197338222828FE190E08C0F9D1FE5
:1013700095838483AC968FADAC97868317828D8DD1
:101380009E8D918780870E940F12ADB7BEB71A96C7
:101390000FB6F894BEBF0FBEADBFC6010E949D112F
:1013A00082E691E00E949D118D8D9E8D892B79F1B1
:1013B000BBE2EB2EF12CEC0EFD1E00E010E000D0A5
:1013C00000D000D0EDB7FEB73196ADB7BEB71296DC
:1013D000DC92CE921197B382A282D7018D919D911A
:1013E0007D01958384830E940F12EDB7FEB7369678
:1013F0000FB6F894FEBF0FBEEDBFC6010E949D114F
:101400000F5F1F4F8D8D9E8D08171907C0F283E760
:1014100091E00E949D1111E0C201B301A4010E945C
:10142000E005882309F087CF112309F491C08D8D41
:101430009E8D892B09F471C0ABE2AA2EB12CAC0EA3
:10144000BD1ECC24DD24F5E08F2E912C8C0E9D1E2C
:10145000EFE16E2EE2E07E2E412C70E3572E8DB729
:101460009EB708970FB6F8949EBF0FBE8DBFEDB71D
:10147000FEB73196ADB7BEB712969C928E92119779
:1014800073826282D582C482D5018D919C919783AB
:1014900086830E940F12EDB7FEB738960FB6F89408
:1014A000FEBF0FBEEDBFC4010E949D11D5018D91FD
:1014B0009C91849D7001859DF00C949DF00C1124ED
:1014C00000E010E0289883E00E94C80380E00E94BA
:1014D000C803BB27A12F902F8F2D0E94C8038E2DEC
:1014E0000E94C80300E010E080E00E94C8030E9450
:1014F00095110F5F1F4FB5E200381B07A9F7289A17
:101500000894C11CD11CE2E0F0E0AE0EBF1E8D8D30
:101510009E8DC816D90608F4A2CF81E0C453DF4FD0
:101520000FB6F894DEBF0FBECDBFCF91DF911F91F4
:101530000F91FF90EF90DF90CF90BF90AF909F9072
:101540008F907F906F905F904F903F902F90089575
:1015500088E791E00E949D11E0CFA5EAB7E0A10FD6
:10156000B11DDF9691960027009310060C940C0B8A
:10157000BF93AF930F931F933F934F93309100010D
:101580001091210600911B01013039F3A5EAB7E063
:10159000A10FB11D00274D91432309F00160000FF9
:1015A0004D91432309F00160000F4D91432309F051
:1015B0000160000F4D91432309F00160000F5C961C
:1015C0004D91432309F00160000F4D91432309F031
:1015D0000160000F4D91432309F00160000F4D9110
:1015E000432309F00160009310065C9600274D919B
:1015F000432309F00160000F4D91432309F001607E
:10160000000F4D91432309F00160000F4D914323DA
:1016100009F00160000F5C964D91432309F00160D1
:10162000000F4D91432309F00160000F4D914323BA
:1016300009F00160000F4D91432309F00160009310
:1016400012065C9600274D91432309F00160000FBC
:101650004D91432309F00160000F4D91432309F0A0
:101660000160000F4D91432309F00160000F000F4E
:10167000009311065C9600274D91432309F0016009
:10168000000F4D91432309F00160000F4D9143235A
:1016900009F00160000F4D91432309F001600295AC
:1016A00000930F064F913F911F910F91AF91BF9102
:1016B00008951F932F93AF93CF9310910201D7E01A
:1016C000C5EAC10FD11DB1E0A3E1202F22952F70F3
:1016D000A20FB11D1C911993B1E0A3E10F70A00FEF
:1016E000B11D1C911993CF91AF912F911F91089526
:1016F00008952F923F924F925F926F927F928F92B6
:101700009F92AF92BF92CF92DF92EF92FF920F9390
:101710001F93DF93CF9300D000D0CDB7DEB76EE339
:1017200072E00E94D21180E090E06EE372E00E94CD
:10173000D2110E94AC117C0180E090E06EE372E077
:101740000E94D2118C010E94AC119C01442737FDEC
:101750004095542F29833A834B835C83012B09F4F2
:1017600077C080E090E3AC01E49EC001E59E900D5F
:10177000F49E900D11241C01442455244201310192
:101780000894611C711C811C911CC401B3010E944E
:101790008F0491E0A92E90E1B92EC12CD12CA20C7E
:1017A000B31CC41CD51CC601B5010E948F0481E086
:1017B000E82E80E2F82E012D112DE20CF31C041D01
:1017C000151DC801B7010E948F04C401B3010E9416
:1017D000BC04C601B5010E94BC04C801B7010E9447
:1017E000BC04EE24FF24870105C00894611C711C11
:1017F000811C911C0E948E11482FC201B1010E94D0
:10180000F7030894E11CF11C011D111D13012401B3
:1018100089819A81AB81BC818E159F05A007B10794
:1018200020F70F900F900F900F90CF91DF911F91A5
:101830000F91FF90EF90DF90CF90BF90AF909F906F
:101840008F907F906F905F904F903F902F90089572
:1018500080E492E00E949D11E4CF6F927F928F927C
:101860009F92AF92BF92CF92DF92EF92FF920F932F
:101870001F936EE372E00E94D21180E090E06EE36D
:1018800072E00E94D2110E94AC117C0180E090E0D5
:101890006EE372E00E94D2118C010E94AC11012B08
:1018A00061F13C01882499245701CC24DD24EE24E5
:1018B000FF2487010E948E11482FC601B5010E94A6
:1018C000F7030894E11CF11C011D111D0894A11CD3
:1018D000B11CC11CD11C6E147F048006910650F708
:1018E0001F910F91FF90EF90DF90CF90BF90AF903E
:1018F0009F908F907F906F9008958BE692E00E946A
:101900009D11EECFEF92FF921F93CF93DF937C0157
:1019100088E992E00E949D110E948E1190E00E9441
:10192000CA11182F0E9495111A3331F1C0E0D0E08E
:1019300003C0CF33D105E9F0F701EC0FFD1F108391
:1019400021960E948E1190E00E94CA11182F0E94C9
:1019500095111A3371F7FE01EE0DFF1D10828BE910
:1019600092E00E949D11DF91CF911F91FF90EF9027
:101970000895EFE3F0E0F0CFE0E0F0E0EDCF1F936B
:10198000CF93DF930E941605182FC82FD0E080FF59
:1019900029C08EE992E00E949D11C1FF29C08CEC04
:1019A00092E00E949D11CE018C709070892B49F5B8
:1019B0008AE093E00E949D11C4FF29C08CE593E06A
:1019C0000E949D11C5FF29C08EE993E00E949D11E0
:1019D00017FD29C089E294E00E949D11DF91CF910B
:1019E0001F91089587EB92E00E949D11C1FDD7CF12
:1019F00089EE92E00E949D11CE018C709070892B2F
:101A0000B9F28FE293E00E949D11C4FDD7CF8FE71A
:101A100093E00E949D11C5FDD7CF84EC93E00E9416
:101A20009D1117FFD7CF83EF93E00E949D11DF91A7
:101A3000CF911F9108950F931F93DF93CF93CDB74D
:101A4000DEB7C054D0400FB6F894DEBF0FBECDBF96
:101A50008DB79EB708970FB6F8949EBF0FBE8DBF87
:101A6000EDB7FEB731968E010F5F1F4FADB7BEB712
:101A700012961C930E93119781E694E093838283D0
:101A800089E190E09583848388EC90E09783868356
:101A90000E940F128DB79EB708960FB6F8949EBF9E
:101AA0000FBE8DBFC8010E949D11C05CDF4F0FB6F5
:101AB000F894DEBF0FBECDBFCF91DF911F910F9184
:101AC0000895FF920F931F93DF93CF9300D000D020
:101AD000CDB7DEB76EE372E00E94D21180E090E0F5
:101AE0006EE372E00E94D2118C010E94AC11F82EBC
:101AF000012B09F44EC000D000D000D0EDB7FEB7E6
:101B000031968E010F5F1F4FADB7BEB712961C9373
:101B10000E93119787E794E093838283F482158272
:101B20000E940F128DB79EB706960FB6F8949EBF0F
:101B30000FBE8DBFC8010E949D118F2D0E94C8034A
:101B400000D000D000D0EDB7FEB73196ADB7BEB72C
:101B500012961C930E9311972BE834E03383228363
:101B6000848315820E940F128DB79EB706960FB61A
:101B7000F8949EBF0FBE8DBFC8010E949D110F90AB
:101B80000F900F900F90CF91DF911F910F91FF90C9
:101B900008958DE994E00E949D11F1CF2F923F921C
:101BA0004F925F926F927F928F929F92AF92BF926D
:101BB000CF92DF92EF92FF920F931F93DF93CF9319
:101BC000CDB7DEB7C454D0400FB6F894DEBF0FBE19
:101BD000CDBF6EE372E00E94D21180E090E06EE330
:101BE00072E00E94D2110E94AC11F82EE92E80E022
:101BF00090E06EE372E00E94D2118C010E94AC1161
:101C0000012B09F498C00F2D1E2D7C012DB73EB776
:101C1000285030400FB6F8943EBF0FBE2DBFEDB731
:101C2000FEB7319635E0C32ED12CCC0EDD1EADB7FC
:101C3000BEB71296DC92CE92119788EB94E0938314
:101C4000828315830483C701800F911F9783868346
:101C50000E940F122DB73EB7285F3F4F0FB6F89482
:101C60003EBF0FBE2DBFC6010E949D1137018824C3
:101C70009924780100E010E0AA24BB2465012E011C
:101C80000894411C511C2CEC222E24E0322EC80159
:101C9000B7010E942904ADB7BEB718970FB6F894E4
:101CA000BEBF0FBEADBFEDB7FEB7319612965C92C8
:101CB0004E92119733822282F582E48286831782C4
:101CC0000E940F122DB73EB7285F3F4F0FB6F89412
:101CD0003EBF0FBE2DBFC2010E949D110894A11CE2
:101CE000B11CC11CD11C0894E11CF11C011D111D6B
:101CF0006A147B048C049D0450F68BE992E00E94E8
:101D00009D11CC5BDF4F0FB6F894DEBF0FBECDBF89
:101D1000CF91DF911F910F91FF90EF90DF90CF90C7
:101D2000BF90AF909F908F907F906F905F904F90FB
:101D30003F902F9008958AED94E00E949D11E1CF8D
:101D40000F931F93DF93CF93CDB7DEB7C454D0402A
:101D50000FB6F894DEBF0FBECDBF8DB79EB70E97FE
:101D60000FB6F8949EBF0FBE8DBFEDB7FEB731968C
:101D70008E010B5F1F4FADB7BEB712961C930E932B
:101D8000119787E095E09383828382E090E09583CA
:101D9000848320E230E03783268384EC90E09187CF
:101DA00080873387228781E090E0958784870E942F
:101DB0000F128DB79EB70E960FB6F8949EBF0FBE4A
:101DC0008DBFC8010E949D118BE495E00E949D117A
:101DD000CE010196BE016E5F7F4FAE014D5F5F4F3A
:101DE0009E012C5F3F4F0E94CE03ADB7BEB71C973C
:101DF0000FB6F894BEBF0FBEADBFEDB7FEB73196BC
:101E000012961C930E93119788E695E09383828334
:101E10008981848315828A81868317828B8180875A
:101E200011868C81828713860E940F128DB79EB710
:101E30000C960FB6F8949EBF0FBE8DBFC8010E94CE
:101E40009D118BE992E00E949D11CC5BDF4F0FB694
:101E5000F894DEBF0FBECDBFCF91DF911F910F91E0
:101E600008952F923F924F925F926F927F928F923E
:101E70009F92AF92BF92CF92DF92FF920F931F93E8
:101E8000DF93CF93CDB7DEB7C858D0400FB6F894E4
:101E9000DEBF0FBECDBF84EA95E00E949D11F9E040
:101EA000CF2ED12CCC0EDD1EEFE38E2E912C8C0C80
:101EB0009D1C79E4A72EB12CAC0EBD1E67E0662EEA
:101EC00065E0762E52E0452E512C4C0E5D1E43E00F
:101ED000242E312C2C0E3D1E88E992E00E949D118B
:101EE0000E948E1190E00E94CA11F82E0E94951156
:101EF0002AE3F21609F4FDC100E010E004C00F333C
:101F0000110509F4D2C1F601E00FF11FF0820F5F55
:101F10001F4F0E948E1190E00E94CA11F82E0E945D
:101F200095113AE3F31659F7F601E00FF11F10820D
:101F30008BE992E00E949D11C6016EEB75E00E9454
:101F4000D711009709F43EC1C60163EC75E00E9409
:101F5000D711009709F40DC18985182F823509F42E
:101F6000F6C0873509F4E0C0C60168EC75E00E9450
:101F7000D711009709F42898C6016DEC75E00E940E
:101F8000D711009709F4289A133509F465C015355F
:101F900009F44FC01035C9F58A85823569F1C6014B
:101FA00062ED75E00E94D711009709F452C0C60196
:101FB00066ED75E00E94D711009709F08DCF8BED8B
:101FC00095E00E949D11C857DF4F0FB6F894DEBF11
:101FD0000FBECDBFCF91DF911F910F91FF90DF908A
:101FE000CF90BF90AF909F908F907F906F905F90B9
:101FF0004F903F902F9008958B858F3481F68C857C
:10200000843569F60E9427051985163441F68A85BC
:102010008C3429F68B85853409F45BC1833509F04E
:10202000BECF8C85843509F0BACFC6010E94BF0CA3
:10203000B6CF8A85803509F0B2CF8B85823509F01D
:10204000AECF8C858F3409F0AACF0E945705198531
:10205000A1CF0E947C08ABCF8A85803509F09FCF45
:102060008B85893409F09BCFC6016EE372E00E9434
:10207000D21180E090E06EE372E00E94D2118C01F8
:102080000E94AC11F82E012B09F435C100D000D00C
:1020900000D0EDB7FEB7319625E030E02C0F3D1FA4
:1020A000ADB7BEB712963C932E93119787E794E095
:1020B00093838283F48215820E940F12ADB7BEB75C
:1020C00016960FB6F894BEBF0FBEADBFCE010596F3
:1020D0000E949D118F2D0E94C80300D000D000D017
:1020E000EDB7FEB7319625E030E02C0F3D1FADB7C0
:1020F000BEB712963C932E931197ABE8B4E0B3832E
:10210000A283848315820E940F122DB73EB72A5FE7
:102110003F4F0FB6F8943EBF0FBE2DBFCE010596C0
:102120000E949D11198533CF8A85823511F017E5FC
:102130001BCF8B85893409F4BAC08234C1F78C85F2
:102140008C34A9F7C6010E94790B19850DCF8A85B9
:10215000853409F009CF8B85813409F005CF8C8552
:10216000843409F001CFC6010E94CE0D8985182F55
:10217000F8CEADB7BEB718970FB6F894BEBF0FBE76
:10218000ADBFEDB7FEB731961296BC92AE921197E5
:1021900021E634E03383228389E190E095838483D0
:1021A00088EC90E0978386830E940F128DB79EB7CC
:1021B00008960FB6F8949EBF0FBE8DBFC5010E9452
:1021C0009D11CACE8DB79EB70E970FB6F8949EBFDD
:1021D0000FBE8DBFEDB7FEB73196ADB7BEB7129645
:1021E000BC92AE9211977382628282E090E09583F6
:1021F000848320E230E03783268384EC90E091876B
:1022000080873387228781E090E0958784870E94CA
:102210000F122DB73EB7225F3F4F0FB6F8943EBF67
:102220000FBE2DBFC5010E949D118BE495E00E9459
:102230009D11CE010196B201A1019E012C5F3F4F7D
:102240000E94CE038DB79EB70C970FB6F8949EBF31
:102250000FBE8DBFEDB7FEB73196ADB7BEB71296C4
:10226000BC92AE92119728E635E0338322838981B0
:10227000848315828A81868317828B818087118669
:102280008C81828713860E940F128DB79EB70C96A1
:102290000FB6F8949EBF0FBE8DBFC5010E949D1161
:1022A0008BE992E00E949D114FCEF40140CE8C85C7
:1022B000843509F03CCFC6010E942D0C8985182F6A
:1022C000873509F051CE8A85823509F030CF8B856C
:1022D00034CF8C85823509F062CE0E944F04898507
:1022E000863409F05CCE8A858C3409F058CE8B8513
:1022F00095CEF6011CCE8DE994E00E949D111985C2
:1023000046CE6898699A8093C4009093C50088E18E
:102310008093C10086E08093C20008958091C00040
:1023200087FFFCCF8091C6000895982F8091C00050
:1023300085FFFCCF9093C6000895FC0190819923FE
:1023400051F08091C00085FFFCCF9093C600918131
:1023500031969923B1F70895FC0188279927E894CD
:1023600021912032E9F3293010F02E30C8F32B32BE
:1023700041F02D3239F4689404C00E940712820F94
:10238000911D219120532A30C0F31EF49095819520
:102390009F4F08959111089581568A5108F48052F3
:1023A000855808954FE156E00E94E0110895FB0121
:1023B000DC018D91019080190110D9F3990B0895DA
:1023C000FA01A191B081009719F41097E1F0CD01C5
:1023D000DC01CD010D90002011F4C00113C0FB0100
:1023E0002191222319F02015D9F7F3CFFB01219178
:1023F000201519F41E92119606C02223C1F70D90E4
:102400000020A1F7D001FA01A193B08308957AE0EA
:10241000979F902D879F802D910D11240895AEE0F8
:10242000B0E0E5E1F2E10C94BE140D891E8986E06E
:102430008C831A8309838FEF9FE79E838D839E0190
:10244000275E3F4FCE0101966F89788DA9010E94CA
:1024500033122F813885020F131FF80110822E9638
:10246000E4E00C94DA14ABE0B0E0E9E3F2E10C94C0
:10247000B0143C012B015A01FC01178216828381A2
:1024800081FD03C06FEF7FEFC6C19AE0892E1E0168
:102490000894211C311CF3012381F20123FD859155
:1024A00023FF81912F01882309F4B2C1853239F4C9
:1024B00023FD859123FF81912F01853229F490E03E
:1024C000B3010E942614E7CF982FFF24EE2499240D
:1024D000FFE1FF15D0F09B3269F09C3228F4903276
:1024E00059F0933291F40EC09D3249F0903369F463
:1024F00041E024C052E0F52A84E0F82A28C098E0A0
:10250000F92A25C0E0E1FE2A22C0F7FC29C0892F64
:1025100080538A3070F4F6FE05C0989C902C1124EC
:10252000980E15C0E89CE02C1124E80EF0E2FF2A7A
:102530000EC09E3229F4F6FC6BC140E4F42A07C0B9
:102540009C3619F450E8F52A02C0983649F4F20195
:1025500023FD959123FF91912F01992309F0B8CF85
:10256000892F8554833018F08052833038F444E04A
:1025700050E0A40EB51E5FE359830FC0933631F0CF
:10258000933779F0933509F056C020C0F50180816A
:10259000898342E050E0A40EB51E610101E010E025
:1025A00012C0F501C080D180F6FC03C06FEF7FEF51
:1025B00002C0692D70E042E050E0A40EB51EC601D5
:1025C0000E941B148C015FE7F52214C0F501C08046
:1025D000D180F6FC03C06FEF7FEF02C0692D70E081
:1025E00042E050E0A40EB51EC6010E9410148C01FA
:1025F00050E8F52AF3FE07C01AC080E290E0B3016C
:102600000E942614EA948E2D90E008171907A8F36B
:102610000EC0F601F7FC8591F7FE81916F0190E005
:10262000B3010E942614E110EA94015010400115F4
:10263000110579F7EAC0943611F0993669F5F7FE7D
:1026400008C0F501208131814281538184E090E00E
:102650000AC0F501808191819C01442737FD409596
:10266000542F82E090E0A80EB91E9FE6F92257FF92
:1026700009C050954095309521953F4F4F4F5F4F82
:10268000E0E8FE2ACA01B901A1012AE030E00E9477
:102690005214D82ED21840C0953729F41F2D1F7E12
:1026A0002AE030E01DC01F2D197F9F3661F0903762
:1026B00020F4983509F0ACC00FC0903739F0983746
:1026C00009F0A6C004C028E030E00AC0106114FD83
:1026D000146020E130E004C014FD166020E132E017
:1026E00017FF08C0F501608171818281938144E008
:1026F00050E008C0F50180819181BC0180E090E04C
:1027000042E050E0A40EB51EA1010E945214D82E42
:10271000D2188FE7F82EF122F6FE0BC05EEFF522FD
:10272000D91438F4F4FE07C0F2FC05C08FEEF8228D
:1027300002C01D2D01C0192DF4FE0DC0FE01ED0DCE
:10274000F11D8081803319F499EEF92208C01F5FD2
:10275000F2FE05C003C08F2D867809F01F5F0F2D94
:10276000F3FC14C0F0FE0FC01E1510F09D2C0BC022
:102770009D2C9E0C911A1E2D06C080E290E0B301A4
:102780000E9426141F5F1E15C0F304C01E1510F40E
:10279000E11A01C0EE2404FF0FC080E390E0B30112
:1027A0000E94261402FF1DC001FD03C088E790E0CF
:1027B0000EC088E590E00BC0802F867891F001FF75
:1027C00002C08BE201C080E2F7FC8DE290E0B30131
:1027D0000E94261406C080E390E0B3010E942614F4
:1027E0009A94D914C0F3DA94F101ED0DF11D8081B2
:1027F00090E0B3010E942614DD20A9F706C080E214
:1028000090E0B3010E942614EA94EE20C1F743CE73
:10281000F30166817781CB012B96E2E10C94CC1415
:10282000FC010590615070400110D8F7809590959B
:102830008E0F9F1F0895FC016150704001900110A0
:10284000D8F7809590958E0F9F1F08950F931F9333
:10285000CF93DF938C01EB018B8181FF1BC082FF43
:102860000DC02E813F818C819D812817390764F42A
:10287000E881F9810193F983E88306C0E885F98549
:10288000802F0995892B31F48E819F8101969F833A
:102890008E8302C00FEF1FEFC801DF91CF911F9110
:1028A0000F910895FA01AA27283051F1203181F1C2
:1028B000E8946F936E7F6E5F7F4F8F4F9F4FAF4F48
:1028C000B1E03ED0B4E03CD0670F781F891F9A1F5B
:1028D000A11D680F791F8A1F911DA11D6A0F711D0F
:1028E000811D911DA11D20D009F468943F912AE01B
:1028F000269F11243019305D3193DEF6CF01089503
:10290000462F4770405D4193B3E00FD0C9F7F6CF33
:10291000462F4F70405D4A3318F0495D31FD4052FB
:10292000419302D0A9F7EACFB4E0A6959795879591
:1029300077956795BA95C9F7009761057105089570
:102940009B01AC010A2E069457954795379527951C
:10295000BA95C9F7620F731F841F951FA01D0895B4
:102960002F923F924F925F926F927F928F929F929F
:10297000AF92BF92CF92DF92EF92FF920F931F938D
:10298000CF93DF93CDB7DEB7CA1BDB0B0FB6F8943E
:10299000DEBF0FBECDBF09942A88398848885F847E
:1029A0006E847D848C849B84AA84B984C884DF80EF
:1029B000EE80FD800C811B81AA81B981CE0FD11DD3
:1029C0000FB6F894DEBF0FBECDBFED010895F894A9
:0229D000FFCF37
:1029D2000160548040201008040201010204081022
:1029E200204080000103070F1F3F7F010D0A466F41
:1029F200756E642046696C653A200D0A0046696C62
:102A020065204E616D653A2025730D0A416E676C33
:102A120065204F66667365743A2025640D0A4E750B
:102A22006D204F66204672616D65733A2025640DF4
:102A32000A004672616D65204C6973743A20002564
:102A42006420000D0A0D0A000D0A46696C65206EAD
:102A52006F7420666F756E64210D0A000D0A466C54
:102A620061736820436F6E74656E74733A200D0A49
:102A7200000D0A23090946696C65204E616D6509DE
:102A820009426C6F636B094F666673657409466928
:102A92006C652053697A652028426C6F636B7329D9
:102AA2000D0A002D2D2D2D09092D2D2D2D2D2D2D0C
:102AB2002D2D2D2D2D2D2D09092D2D2D2D2D2D09B0
:102AC2002D2D2D2D2D2D092D2D2D2D2D2D2D2D2D58
:102AD2002D2D2D2D2D2D2D2D2D0D0A0025640909AD
:102AE2002573090925640925640925640D0A000D69
:102AF2000A4672616D652023256420426C6F636B08
:102B0200202325643A0D0A0000C03F00FFFF200089
:102B120055534147453A2020205752424C205B539F
:102B22005441525420424C4F434B5D205B42595416
:102B32004520434F554E545D0D0A005553414745BC
:102B42003A20202057524954205B5354415254207A
:102B5200414444524553535D205B425954452043FE
:102B62004F554E545D0D0A003E3E000D0A000D0AFF
:102B7200233020466C617368204E4F542072656189
:102B8200647920283129000D0A233020466C6173B4
:102B92006820726561647920283029000D0A23318A
:102BA20020466C61736820777269746520656E6176
:102BB200626C656420283129000D0A233120466C9D
:102BC200617368204E4F5420777269746520656E78
:102BD20061626C656420283029000D0A233233209B
:102BE200466C617368204E4F542077726974652079
:102BF20070726F7465637465642028303029000D2B
:102C02000A23323320466C6173682070726F7465D8
:102C12006374696F6E20756E6B6E6F776E202831EC
:102C22003020726573657276656429000D0A23345B
:102C320020466C617368204E4F5420777269746528
:102C42002070726F74656374656420283129000DE9
:102C52000A233420466C6173682077726974652098
:102C620070726F74656374656420283029000D0AE0
:102C7200233520466C617368206661696C65642047
:102C820070726F6772616D202865726173652920A9
:102C9200283129000D0A233520466C6173682070A3
:102CA200726F6772616D2028657261736529207782
:102CB2006173207375636365737366756C6C20282A
:102CC2003029000D0A233720466C61736820736532
:102CD20063746F722070726F74656374696F6E20B3
:102CE200726567697374657273204C4F434B454438
:102CF200202831290D0A0D0A000D0A233720466CBF
:102D020061736820736563746F722070726F74658B
:102D12006374696F6E20726567697374657273207C
:102D2200554E4C4F434B4544202830290D0A0D0A7D
:102D320000434445503A253033643B414E473A25DF
:102D42003033643B0D0A000D0A5472616E7366657E
:102D52007272696E672030782578000D0A526563B9
:102D6200696576656420307825780D0A00555341EF
:102D720047453A202020535049205B444154415F4B
:102D8200384249545D0D0A0052656164696E6720DC
:102D9200256420746F2025643B0D0A004125643AA6
:102DA200202020307825780D0A0055534147453AB6
:102DB20020202052454144205B535441525420412B
:102DC2004444524553535D205B4259544520434F7E
:102DD200554E545D0D0A00414E4942494B4520561D
:102DE20045523A253033642E30303B4D535A3A2502
:102DF200303564204D424954533B4350533A2530B9
:102E02003364204D485A3B4E4C45443A2530336496
:102E12003B5247423A25643B0D0A000D0A0D0A4413
:102E2200617461666C61736820696E666F726D6150
:102E320074696F6E3A0D0A004D616E4944203D205F
:102E4200307825783B20446576494431203D203056
:102E52007825783B20446576494432203D203078FD
:102E620025783B20457844617461203D20307825E7
:102E7200780D0A00414E4942494B4520494E432EA6
:102E8200205645522E20322E30302E0D0A00494453
:102E92004E3F00524550410043534C4F004353486C
:102EA2004900444952004558495400414E4942495B
:102EB2004B452045584954494E47205452414E53A0
:0C2EC200464552204D4F44450D0A0000CB
:00000001FF
